:020000040801F1
:1000000050D5002029030108458D01081D800108F5
:10001000258D01089D450108759801080000000024
:10002000000000000000000000000000690301085B
:10003000754D0108000000000104010811040108C9
:1000400081980108430301084303010843030108A1
:100050004303010843030108774D010843030108E6
:1000600043030108954D010843030108994A01081B
:100070004303010843030108430301084303010844
:10008000A94A0108B94A01083D3E01082146010874
:10009000A9450108C1450108430301089F4D010816
:1000A0004303010843030108430301084303010814
:1000B0004303010843030108430301084303010804
:1000C00043030108430301084303010843030108F4
:1000D00043030108459801085598010843030108A6
:1000E000814D01084303010843030108430301084C
:1000F000430301084303010843030108C94A0108F7
:1001000043030108430301084303010843030108B3
:10011000430301087992010843030108859101080E
:10012000D94A0108E94A0108F94A010843030108CC
:10013000430301080000000000000000A946010878
:1001400031460108494601084303010843030108F9
:1001500043030108094B0108194B01086598010880
:100160004303010843030108430301084303010853
:1001700043030108430301080000000000000000E1
:10018000430301084303010800F002F800F0B8F847
:100190000AA090E8000C82448344AAF10107DA45E2
:1001A00001D100F0ADF8AFF2090EBAE80F0013F07C
:1001B000010F18BFFB1A43F00103184780870100A5
:1001C000A08701000A444FF0000C10F8013B13F027
:1001D000070408BF10F8014B1D1108BF10F8015BA0
:1001E000641E05D010F8016B641E01F8016BF9D193
:1001F00013F0080F1EBF10F8014BAD1C0C1B09D1EA
:100200006D1E58BF01F801CBFAD505E014F8016B5B
:1002100001F8016B6D1EF9D59142D6D370470000ED
:100220000023002400250026103A28BF78C1FBD8FF
:10023000520728BF30C148BF0B6070476E2900F0DD
:100240008886702900F0AD82662917F0B38265298F
:1002500017F0B082672917F0AD82612917F0AC82E0
:1002600003681B0A28BF41F08001692900F01E8243
:10027000642900F01B82752900F018826F2901F0B3
:100280006E81782900F07982E92901F00981E42959
:1002900001F00681F52901F00381EF2901F06B815E
:1002A000F82900F078820368DB0928BF41F080015B
:1002B000632901F0BB83732901F0C083E32901F0B6
:1002C000CB83F32901F0D083002070471FB517F0CE
:1002D000B9F99DE8030000F0EEFC01F05BF90400C1
:1002E0000020002115F050FD401C6060002000211E
:1002F00015F060FDE0601FBD10B501F078FC10BD89
:1003000001F050FC114603B40AF0B0FE03BCFFF745
:10031000DDFF0FF0EBFF01F072FC03B4FFF7ECFF21
:1003200003BC01F0A9FC00000948804709480047C8
:10033000FEE7FEE7FEE7FEE7FEE7FEE7FEE7FEE795
:10034000FEE7FEE704480549054A064B70470000F2
:1003500021910108890101085075002050D5002025
:1003600050A5002050A500201EF0040F0CBFEFF395
:100370000880EFF30980816911F8021C91BB01B577
:1003800090E80F10E047BDE800508CE80300244BD4
:1003900093E80600914208BF704741B91EF0100F64
:1003A00010D12049086820F0010008600AE02CE91B
:1003B000F00F1EF0100F08BF2CED108AC1F838C0E6
:1003C00081F822E01A6092F82210906B61F0FF0E23
:1003D0001EF0100F08BFB0EC108AB0E8F00F80F3E9
:1003E00009887047104A13689942FAD801B552F843
:1003F00021C00FC8E047BDE80050CCF800007047AE
:1004000001B502F06FF8BDE80140EFF3098CBEE7DB
:1004100001B502F0E1FABDE80140EFF3098CB6E75F
:10042000741C002034EF00E0987A0208DFED1D0A0A
:10043000B5EEC00A60EE200ABDEEE01A11EE100A19
:10044000F1EE10FA38BF401E00EE100AB8EEC00AF6
:1004500030EEC00ADFED140A20EE200AB4EEE00A06
:10046000F1EE10FAA8BF30EE600AFCEEC00A0F49A8
:10047000F7EE001A10EE900AC0F3080000EE900AA2
:1004800001EB8000F8EE600A90ED011A70EE600A50
:1004900090ED000A71EEE01A21EE800A00EE810A6A
:1004A0007047000083F9223E00000044A07A020851
:1004B0000B3020F0070070472DE9F04117460E463B
:1004C0000446FFF7F5FFA042054633D9002F1CBFB5
:1004D00006F10C000AF09FFD30467468F4B1216803
:1004E000A94217D305F1080291423CBF61684160FF
:1004F00007D3626861194A602268521B0A60416032
:100500002560002F1CBF06F10C000AF0A6FD201D7F
:10051000BDE8F08120466468002CE0D129463046D1
:1005200000F0B5FB0028D7D1002F1CBF06F10C004E
:100530000AF093FD0020BDE8F08110B5044600F0FC
:100540009DFB01682046BDE810400122B4E770B56C
:1005500016460D46041F002808BF70BD002E1CBFA4
:1005600005F10C000AF057FD2B465868002818BF0B
:10057000A04238BF0346F8D31968CA18A24218BF70
:100580005C6003D122681C461144196021680A1975
:10059000824218BF606004D142686260006808440B
:1005A0002060002E1CBF05F10C000AF056FD70BD46
:1005B00010B5044600F062FB01682046BDE810401B
:1005C0000122C4E710B54C1084EA530404D540421C
:1005D000C1F1000138BF491E1B4204D55242C3F18C
:1005E000000338BF5B1E00F09EFB14F0804F04D068
:1005F0004042C1F1000138BF491E14F0004F04D041
:100600005242C3F1000338BF5B1E10BD10B5044653
:1006100000F02CFB0068005DC00602D504F120004C
:1006200010BD204610BD00007CB51D4616460C00CE
:10063000009001D02044401E074B7B442A46694667
:100640000190304600F0ADFE05461CB10020694621
:1006500000F0BAFE28467CBD950D000070B504463A
:1006600085690068C10601D5302600E02026C00754
:1006700007D070BDD4E9012130469047206A401C64
:1006800020626D1EF6D570BD70B504468569007890
:10069000C00707D170BDD4E9012120209047206A0E
:1006A000401C20626D1EF6D570BD00002DE9F041A2
:1006B0000646002410687529314616A510D000F0B2
:1006C000B4FB002802DA404213A507E031688A072C
:1006D00001D512A502E0490704D511A5012401E0C6
:1006E00000F0ACFB00210A2206F1240709E0B0FB70
:1006F000F2FCB0FBF2F302FB1C00303078541846D9
:10070000491C0028F3D123462A463046BDE8F04173
:1007100000F0C6BB000000002D0000002B00000010
:1007200020000000F0B40D460188090502D5214CD7
:100730007C4402E01F4C7C440E34002100F124066E
:1007400008E002F00F071209E75D42EA03721B0995
:100750007754491C52EA0307F3D1027800231207A9
:1007600004D5702D06D009B1022311342246F0BC05
:1007700000F096BB01231034F8E770B504460D462F
:100780002146106800F05AFB024629462046BDE883
:1007900070400023C6E7D21D22F00703D3E90023EF
:1007A000C0E70368126843F0200303600823C361B5
:1007B0000023B7E7707B01002DE9F05F894604460E
:1007C0004FF0000ADFF874B1FB44C0F820A02046C7
:1007D000E1688847002874D0252806D0D4E9012193
:1007E0009047206A401C2062F1E700265F462046C1
:1007F000E16888472028054607DB312D05D27819A6
:1008000010F8200C08B10643F1E7B00701D526F037
:100810000406C4F81CA00027C4F818A02A2D09D08B
:1008200028460AF0F1FB38B304EB8708303DC8F8DE
:10083000185019E059F8041B204604EB8702916117
:10084000E1688847012F054618D1E069002820DAC1
:1008500026F020061DE0D8F8180000EB800005EB1C
:1008600040003038C8F818002046E168884705463F
:100870000AF0CAFB0028EED1012F0AD02E2D08D194
:100880002046E16888477F1C0546022F46F0200677
:10089000C4DBA069002803DA404246F00106A061EB
:1008A000F00701D026F010066C2D0BD0682D09D072
:1008B0004C2D39D06A2D35D0742D35D07A2D33D0CA
:1008C00016E038E0E1682F4620468847B8420546E2
:1008D00009D16C2F26D04FF48060E1680643204692
:1008E0008847054604E06C2F1AD04FF48070064309
:1008F0000DB3A5F14100192802D8203546F4006651
:100900004A462946204626604E46FFF797FC80B1AE
:1009100001280BD0F61D26F0070000F1080956E764
:100920004020E4E78020D8E70020D6E706F104095C
:100930004DE7284652E7206ABDE8F09F007B0100A2
:10094000401ECAB210F8011F8A4202D00029F9D114
:100950000020704730B505460B462A4613F8014B78
:1009600012F8010B08B1A042F8D01CB1002802D047
:100970006D1CF1E7284630BD0022CBB210F8011BF8
:10098000994200D1421E0029F8D11046704710B597
:10099000431C02E010F8011B71B18107FAD14FF03E
:1009A000013202C88C1A8C4314EAC211F9D0C01A61
:1009B0000A0603D0C01E10BDC01A10BD0A0401D023
:1009C000801E10BD0902FCD0401E10BD40EA01038C
:1009D00070B59B072ED14FF00136042A2AD308C8E0
:1009E00010C99D1B9D43121F15EAC61517D0D8B21A
:1009F000E1B2401A50EA056110D198B2A1B2401A92
:100A000050EA05410AD123F07F4024F07F41401A8B
:100A100050EA052102D1180EA0EB146070BDA3426C
:100A2000DBD018BA21BA884201D9012070BD4FF03D
:100A3000FF3070BD0AB9002070BD10F8013B11F8FD
:100A4000014B63B1A3420AD1521E08D010F8013BFA
:100A500011F8014B1BB1A34201D1521EEDD1181B5D
:100A600070BD032A40F2308010F0030C00F01580B6
:100A700011F8013BBCF1020F624498BF11F801CBA1
:100A800000F8013B38BF11F8013BA2F1040298BF06
:100A900000F801CB38BF00F8013B11F0030300F070
:100AA0002580083AC0F0088051F8043B083A51F814
:100AB00004CBA0E80810F5E7121D5CBF51F8043B19
:100AC00040F8043BAFF30080D20724BF11F8013B8C
:100AD00011F801CB48BF11F8012B24BF00F8013BEE
:100AE00000F801CB48BF00F8012B704710B5203A41
:100AF000C0F00B80B1E81850203AA0E81850B1E8D7
:100B00001850A0E81850BFF4F5AF5FEA027C24BF8C
:100B1000B1E81850A0E8185044BF18C918C0BDE883
:100B200010405FEA827C24BF51F8043B40F8043B4C
:100B300008BF7047D20728BF31F8023B48BF11F801
:100B4000012B28BF20F8023B48BF00F8012B70475B
:100B50004FF000020429C0F0128010F0030C00F0E6
:100B60001B80CCF1040CBCF1020F18BF00F8012B64
:100B7000A8BF20F8022BA1EB0C0100F00DB85FEA32
:100B8000C17C24BF00F8012B00F8012B48BF00F8FE
:100B9000012B70474FF0000200B51346944696466D
:100BA000203922BFA0E80C50A0E80C50B1F1200180
:100BB000BFF4F7AF090728BFA0E80C5048BF0CC02E
:100BC0005DF804EB890028BF40F8042B08BF70478C
:100BD00048BF20F8022B11F0804F18BF00F8012BFE
:100BE000704700004FF0013C50F8042B51F8043BD3
:100BF0009A4221D1A2EB0C03934313EACC1317D1F1
:100C000050F8042B51F8043B9A4215D1A2EB0C0387
:100C1000934313EACC130BD150F8042B51F8043B47
:100C20009A4209D1A2EB0C03934313EACC13DBD015
:100C30004FF00000704700BFD01A01BAB1FA81F13D
:100C400001F0180122FA01F0CB40C1F12001DBB222
:100C5000C0B2C01A2CFA01F3D11A914311EAC311A0
:100C6000E6D17047704770477047000010B500F03C
:100C700091FC001D10BD00BF1151010010B500F026
:100C800085FC083010BD704770477047704738B515
:100C900004460A4600206946AFF30080002808BFDA
:100CA00038BD02460099204600F07BFC012038BD8B
:100CB000012000F06FBFF8B5AFF3008005460020BB
:100CC0000C46102000BF0646A819A0420DD9324696
:100CD00069460020AFF30080070008BF00F05AFF0C
:100CE0000098A04218BF0546C419FFF7C7FF05606A
:100CF0000746F01D20F007004619284600F00AF8C4
:100D0000B44208BFF8BDA21B31463868BDE8F840C0
:100D100000F047BC00210160C0E901100C300AF06E
:100D20008BB91020704753EA020C00F069802DE95E
:100D3000F04B4FF00006002B1FBFB3FA83F503FA08
:100D400005F424FA05F65E4012BF1643B2FA82F5A6
:100D500002FA05F4C5F120051EBF22FA05FC44EA9B
:100D60000C04203556EA044C4FEA144418BF641CA6
:100D70004FF000084FF00009904271EB030C39D39B
:100D8000002919BFB1FA81F701FA07F6B0FA80F726
:100D900000FA07F6C7F120071EBF20FA07FC46EA53
:100DA0000C062037B6FBF4FCA7EB0507103F07F055
:100DB0001F0BCBF120060CFA0BFB2CFA06F644BFF6
:100DC000B3460026202FA4BF5E464FF0000B5BEA1F
:100DD000060C08BF4FF0010B19EB0B09ABFB027CB3
:100DE00048EB0608C01B06FB02CC0BFB03CC71EBE7
:100DF0000C01C1E70B46024641464846BDE8F08B70
:100E000013B54FF000004FF00001AFF30080BDE8D4
:100E10001C40704710B500F0C2FB006810BD10B553
:100E2000044600F0BCFB046010BD09684A0501D50A
:100E300040B27047C905FCD500B2704709684A0541
:100E400001D5C0B27047C905FCD580B2704770B5F6
:100E50000C460546012A05D02878800600D5EA69A7
:100E6000002302E0012305E05B1C934202D2E05C18
:100E70000028F9D1A869E618C01AA861286A1844A0
:100E800028622846FFF7EAFB04E0D5E9012114F8BF
:100E9000010B9047B442F8D32846FFF7F5FB70BD2D
:100EA0002DE9F0470D4699469246044600F1240884
:100EB0000168880604D5E06921F01001216000E096
:100EC0000120A84201DD471B00E00027A1697A1933
:100ED00002EB0900081AA0612078C00602D420465F
:100EE000FFF7BCFB002608E0D4E901211AF8060050
:100EF0009047206A401C761C20624E45F4DB207827
:100F0000C0060AD52046FFF7A9FB06E0D4E9012177
:100F100030209047206A401C2062381EA7F101074C
:100F2000F4DC07E0D4E9012118F805009047206AB5
:100F3000401C2062281EA5F10105F3DC2046FFF7C6
:100F4000A3FB2078000602D50220BDE8F08701202F
:100F5000FBE711680268006A530501D508700AE0D2
:100F6000D30501D5088006E0130603D5C217C1E9F1
:100F7000000200E008600120704770472DE9FF4F34
:100F80000C461E464FF0FF378BB0D2E90001DDF86A
:100F900060800A908A46C1F30A5505B93D46002192
:100FA000084616F0F7FBBAF1000F00F4400005DA2E
:100FB00000EB80004FF4400101EA50004FEA9059E5
:100FC000B9F1010F00DDB9460A9850EA4A000ED087
:100FD00044F61050A5F2FF3545432F14B8F1000F29
:100FE0001ED07542291E1EDDC9F100021CE0B8F1B9
:100FF000010F4FF0000001D0302103E0F24305E083
:101000002154401CB042FBDB304600220021215419
:101010000B99C1F80880C1E900200FB0BDE8F08F3E
:10102000BD1B6D1CDEE74A4600DA694206A800F0E7
:101030001FFD06AB93E8070003AB83E807005046AB
:101040000A9902F0E7FA8DE80700A0F500501F3872
:1010500000900398002D0ADD42F21F014A46084421
:10106000002303A90390684602F050FD09E0A0F5B3
:1010700000504A461F38002303A90390684602F037
:101080005AFD8DE807000004000C03D04FF0FF303C
:10109000410800E01046B8F1000F03D00022009292
:1010A00015461EE0751E05D400F09AFA30326255DE
:1010B0006D1EF9D5B3460122084302D000227F1CE1
:1010C00004E02078302801D100227F1E002A0997F1
:1010D00084D01DE0112D07DA00F082FA303262551B
:1010E0006D1C50EA0102F5D1084302D00098C8B146
:1010F0000EE00021681E05E0235C625C635422540C
:10110000401E491C8142F7DBAB46A81B401E0990DC
:10111000002004F80B000B98099AC0F80880C0E979
:10112000002B7AE711264FF0000857E72DE9F04F22
:1011300088460446D21D22F0070191B0D1E9000192
:10114000CDE90A0108F0B2FB02460B98C00F01D0AE
:101150002D2007E02068810701D52B2002E0202107
:1011600001EAC000032A099001D0072A05DB0346E3
:101170004146204600F010FC0BE12078800601D5A6
:10118000E06900E00620B8F1650F814606D0B8F1AD
:10119000660F18D0B8F1670F70D131E00020B9F1B7
:1011A000110F009001DB112301E009F101030AAAEC
:1011B00001A90CA8FFF7E2FEDDE90C70002609F199
:1011C0000105834647E001204B4600904FF0004761
:1011D0000AAA01A90CA8FFF7D1FEDDE90DB00C9910
:1011E0005D46002610B909F101000D18B9EB0500A4
:1011F00003D4C0F1FF3609F10105A5EB09002BE08E
:10120000B9F1010F01DA4FF001090020B9F1110F16
:101210000090484601DD112300E003460AAA01A917
:101220000CA8FFF7ABFEDDE90C704D4600268346A7
:10123000207800070AD4AB4500DA5D4601A8012DED
:1012400004DD411911F8011C302907D04F4502DA9D
:1012500017F1040F04DA012082460FE06D1EEEE75D
:10126000002F02DCED1B3E4403E0781CA84200DDA9
:101270007D1CB81B00F1010A4FF0004720780007E1
:1012800003D4AA4501DB4FF0FF3A0021B7F1004F2C
:101290000DF143088DF8431024D002202B23002F9A
:1012A00001DA7F422D230A21021EA0F1010000DC99
:1012B0005FB197FBF1FC97FBF1F201FB1C7C174639
:1012C0000CF1300C08F801CDEEE7A8F10100037035
:1012D0002188090501D5452100E06521A0F101081B
:1012E00000F8011C09980FA9A1EB0807FF1D00B128
:1012F0000120411901EBEA70A1693844081A401E27
:10130000A0612078C00602D42046FFF7A7F909980B
:1013100028B1D4E901219047206A401C206220783E
:10132000C00622D52046FFF799F91EE0002E04DB07
:10133000B34502DD01A8805D00E03020D4E9012141
:101340009047206A401C2062761CAAF101005FEAE7
:10135000000A0AD100F01EF9C0680168405CD4E9B7
:1013600001219047206A401C2062281EA5F101053A
:10137000DCDC07E0D4E9012118F8010B9047206A72
:10138000401C2062381EA7F10107F3DC2046FFF75E
:101390007BF9032011B041E601694A1C026108781B
:1013A000704700B58FB0CDE90131002105910549A5
:1013B0007944CDE9031011466846FFF7FDF90FB0F7
:1013C00000BD0000E5FFFFFF0A6802F8010B0A609C
:1013D0007047D1E900239A4202D2531C0B6010706F
:1013E000704700002DE9FF5F15468A460446DFF886
:1013F000AC80F8440027D8E900103E46CDE9001043
:1014000010E03AF816106A4602A800F0A3FB411C4F
:1014100007D02178890603D5E269391891420DD8A1
:101420000744761C2078800602D5E069B84205DDC5
:10143000AE42E6DB3AF816000028E2D1A069C01BF4
:10144000A0612046FFF70AF9D8E90010CDE90010A5
:10145000002017E03AF818106A4602A800F07AFB5C
:10146000B0F1FF3F81460BD000250DF1080B05E0E0
:10147000D4E901211BF8050090476D1C4D45F7D3B9
:1014800008F10100B0428046E4DB206A3844206263
:101490002046FFF7F9F8BDE8FF9F0000C26F01008A
:1014A0002DE9F0418046D21D22F007020025D2E945
:1014B0000002F52915A614D0011E72F1000106DA0A
:1014C0000023D0EB030063EB020211A608E0D8F87A
:1014D00000108B0701D50FA602E0490701D50EA623
:1014E00001251146002408F1240704E000F078F8F3
:1014F00030323A55641C50EA0102F7D12B4632468D
:1015000021464046BDE8F041FFF7CABC000000009C
:101510002D0000002B0000002000000030B400214E
:1015200000F1240408E002F00705D208303542EA51
:101530004372DB086554491C52EA0305F3D1046881
:10154000002310A2250707D5A40600D421B1C46941
:1015500001230DA2641EC46130BCFFF7A1BC10B50D
:10156000044621461068FFF769FC02462046BDE8A4
:1015700010400023D2E7D21D22F00701D1E9002359
:10158000CCE7000000000000300000000048704779
:10159000EC74002010B5FFF7F9FF203010BD09F002
:1015A00007BD30B404468C464368002B18BF634522
:1015B00038BF1846F8D303681844604507D0C81CE4
:1015C00020F0070000F1040CACEB0100121A2146D8
:1015D000CCF8002030BC00220CF10400FEF7B7BFAD
:1015E00030B5B0F10A024FEA900E71F100034EEAF5
:1015F000817EB0EB0E0061EB91014FEA101E4EEAC6
:10160000017E10EB0E0041EB11114FEA102E4EEA55
:10161000016E10EB0E0041EB11214FEA104E4EEA25
:10162000014E10EB0E0041EB1141401841F1000159
:101630004FEAD00040EA41704FEAD10110EB80053B
:101640004FEA810444EA907444EB01046D1944EBC1
:101650000404521BA3414FF0000348BF0A3200D5D7
:1016600030BD401C41F1000130BD00001FB584B009
:1016700000200A9C06AB04AA02A90094AFF30080E4
:1016800018B1DDE9020108B010BD0348204000F0A8
:10169000C4FA00200146F6E70000207C2DE9F04F57
:1016A00004460D46D21D22F0070089B0D0E900970C
:1016B0004846394608F0FAF80246F80F01D02D23C3
:1016C00007E02068810701D52B2302E0202101EAF1
:1016D000C0038DF820300BB1012000E00020032A68
:1016E000824601D0072A04DB2946204600F054F93F
:1016F0003FE12078800601D40D2500E0E569C7F3BD
:101700000A560D2D49DA00214FEA175B084616F0FC
:1017100041F8002F00F4400007DA00EB80004FF49E
:10172000400100EBD07001EA60008115012901DD64
:101730004FF0FF3100224FEA850CBCF1180F06D3A1
:101740001346ACF118004FF08052C24003E04FF452
:10175000801323FA0CF30CF10C0CBCF1200F04D312
:10176000ACF1200C09FA0CF001E007FA0CF00029AA
:101770004FF0004801DD18B90FE00ED140450CD301
:1017800019EB02095F4121B9404502D19F4329EA83
:101790000209BBEB175F00D0761C2088000502D53C
:1017A0007B48784402E07A487844193808AA302304
:1017B00002F80A30037C0AF10101002E0AF1020A44
:1017C00053546A4602DC4FF0300101E04FF0310122
:1017D0004FF001088DF8001002D0A6F2FF3603E0AA
:1017E00059EA470100D06B4E002D02DC2178090731
:1017F00004D54FF002082E218DF80110C4460021B7
:101800000BE0C7F303433F01C35C491C6D1E02F8A4
:101810000830052908F1010801DA002DF1DC00216A
:101820000CE000EB1973491C1B786D1E082902F8A7
:1018300008304FEA091908F1010801DA002DF0DC3F
:1018400021688B0602D516E0A8F10108E04505DD08
:1018500002EB080313F8013C302BF5D0B8F1000F70
:1018600009DD02EB080313F8013C2E2B03D1090715
:1018700001D4A8F10108002D05DD3E2102F8081071
:101880006D1E08F10108407C002E02F8080008F1E6
:10189000010804DA2D20764202F8080002E02B202D
:1018A00002F808000A214FF47A70864208F1010814
:1018B0000BDB96FBF0F3303302F8083096FBF0F3C5
:1018C00008F1010800FB136601E0642E0CDB6420C4
:1018D00096FBF0F3303302F8083096FBF0F308F192
:1018E000010800FB136601E00A2E06DB96FBF1F00F
:1018F000303002F8080008F1010896FBF1F001FB16
:101900001060303002F80800A16908F1010808EB06
:10191000050202EB0A00081AA0612078C00602D472
:101920002046FEF79BFE216A08AE01EB0A0020620A
:1019300004E0D4E9012116F8010B9047BAF1010A3D
:10194000F7D22078C00602D52046FEF787FE6E4605
:1019500009E016F8010B3E280FD0D4E90121904789
:10196000206A401C2062B8F10108F2D22046FEF73E
:101970008BFE09B00320BDE8F08F206A2844206266
:1019800003E0D4E90121302090476D1EEBD3F8E746
:10199000CD6C010002FCFFFF2DE9F0411F4604461B
:1019A00003260168072A01F4006004DB08B116A5CC
:1019B00005E016A503E008B115A500E015A521F086
:1019C00010002060A069C01EA0610FB1401EA06180
:1019D0002046FEF743FE4FB1D4E901213846904737
:1019E000206A401C2062C01C206206E0206AFAE7E0
:1019F000D4E9012115F8010B9047761EF8D2204654
:101A0000FEF742FEBDE8F0814E414E006E616E0071
:101A1000494E4600696E660010B5436913B1AFF3D5
:101A2000008001E0FFF713FA012010BD127800F1E9
:101A300024010A7000224A700122EDE711684FF07C
:101A4000FF32E9E710B5436913B1AFF3008001E05D
:101A5000FFF7C8FC012010BD128800F12401828428
:101A60000022C2840122EDE711684FF0FF32E9E75E
:101A70002DE9F047814616468AB0354878440DC8AE
:101A80008DE80D0032487844801C03AC0DC884E812
:101A90000D0041F69B300844372190FBF1F290FB9A
:101AA000F1F5A5F1800501FB12041B3C02D564424F
:101AB000012000E00020DFF898A080460027FA44CB
:101AC000AAF1BE0A0EE0E0070AD03246684607EBEC
:101AD000470101230AEB810102F02DF88DE8070090
:101AE00064107F1C002CEED1194F7F44AE3F19E0EB
:101AF000E80715D007EB04100DF1180A90E80E0066
:101B00008AE80E00C068F04201D198190890324668
:101B1000012306A903A802F00EF803AB83E807002F
:101B20006D10641C002DE3D14FF00103324669466D
:101B3000B8F1000F03A802D001F0E8FF01E001F0C6
:101B4000FAFFC9E90001C9F808200AB0BDE8F0872A
:101B5000846A010070B516460C460546FFF786F804
:101B6000036893F80101012806D0FF2C0FD8185DF7
:101B700068B101202C7070BDD3F8070132462146B0
:101B800003F2071303442846BDE8704018474FF09E
:101B9000FF3070BD10B500F047F8BDE8104000F010
:101BA00037B870477546FFF7F1FCAE460500694649
:101BB000534620F00700854618B020B5FEF7C2FB5B
:101BC000BDE820404FF000064FF000074FF000083E
:101BD0004FF0000B21F00701AC46ACE8C009ACE8BF
:101BE000C009ACE8C009ACE8C0098D46704710B523
:101BF000FFF744F80068BDE8104000F043B810B5A6
:101C00000446AFF300802046BDE81040FEF785BBD8
:101C1000002801D000F030B8704710B500F050F83F
:101C2000BDE81040FFF7F4BF10B5012805D0002132
:101C300003A000F02CF8012010BD09A1F8E7000076
:101C400053494752544D454D3A204F7574206F66A5
:101C50002068656170206D656D6F7279000000000D
:101C60003A2048656170206D656D6F727920636FF1
:101C7000727275707465640001491820ABBEFEE78E
:101C80002600020010B50C3009F0D0F910BD70B577
:101C900005460C460A2000E06D1C00F067F835B1DF
:101CA00028780028F8D102E0641C00F05FF814B135
:101CB00020780028F8D1BDE870400A2000F056B81E
:101CC00010B5022803D0410103D50DA112E0002078
:101CD00010BD010101D50FA10CE0C10001D511A17A
:101CE00008E0810001D512A104E0400001D513A154
:101CF00000E0002115A0FFF7CAFF012010BD000081
:101D0000496E76616C6964204F7065726174696FA9
:101D10006E000000446976696465204279205A6546
:101D2000726F00004F766572666C6F77000000007E
:101D3000556E646572666C6F77000000496E657859
:101D400061637420526573756C7400005349474693
:101D500050453A2041726974686D65746963206505
:101D60007863657074696F6E3A20000008B5694643
:101D70008DF800000320ABBE08BD10B500F12801AE
:101D800051E8002F12B9BFF32F8F04E0531E41E832
:101D9000003404B1F4E78AB12C3001210BE0821C3D
:101DA000D2E84F3FC2E8441F04B1F9E713F0FF0F38
:101DB00008BF10BD083000680028F0D1002010BD19
:101DC00084465CF8303F93B110B54FF0000E05E04B
:101DD000CB78D4789C420FD2536896461A46002A94
:101DE000F6D10022C1E9012E00F12C0207E0002209
:101DF000C1E90122C1620AE0C1E9012E0832BEF147
:101E0000000F116018BF0EF1040CBDE81040CCF8B3
:101E10000010283050E8001F4A1C40E8002303B19E
:101E2000F8E77047D1E9012C02F10803002A08BF46
:101E300000F12C03C3F800C0D1E901210B1D0029DA
:101E400008BF00F130031A607047000001480068C5
:101E5000704700BF10E000E007480178012905D174
:101E60000021017005484FF080610160044801685D
:101E700041F00101016070474C75002004ED00E065
:101E800010E000E04FF0FF307047000040B10B4918
:101E90000968B1FBF0F0411E0020B0EB116F02D0D9
:101EA0004FF0FF307047064AFF231370054A0623A0
:101EB0001360516004499060087070475C15002001
:101EC00023ED00E010E000E04C75002010B5930712
:101ED00012D400F12803D00718D153E8000F0842AC
:101EE00003D1BFF32F8F002005E020EA010243E871
:101EF000002404B1F1E710BD806AD20700EA0103B3
:101F000015D1002B18BF10BD002010BD53E8000FE5
:101F100000EA01028A4203D0BFF32F8F002005E0C0
:101F200020EA010243E8002404B1EFE710BD8B4230
:101F300018BF002010BD000080B5124A4FF0000EFF
:101F400002F1440C624606E01A6991420BD3891AE9
:101F500003F10C029E461368002BF5D10022C0E964
:101F600002E2016106E0C0E902E3016198601A69DA
:101F7000511A1961BEF1000F18BF0EF10C0CCCF80C
:101F8000000080BD601C0020EFF3058129B9EFF34C
:101F9000108111B9EFF3118111B16FF00500704795
:101FA000DFF804C000DF70475D2B0108EFF31480F9
:101FB00010F0010F08D0EFF3058028B9EFF310807F
:101FC00010B9EFF3118010B10448007A7047DFF8C0
:101FD00008C000DF704700BF712B0108601C0020A3
:101FE000EFF3058028B9EFF3108010B9EFF31180FB
:101FF00010B16FF005007047DFF804C000DF7047D4
:102000007D2B0108EFF3058028B9EFF3108010B99C
:10201000EFF3118010B16FF005007047DFF804C0D6
:1020200000DF7047F52C0108F8B50546EFF3058091
:1020300014460E4628B9EFF3108010B9EFF3118063
:1020400000B36FF003001DB313BB0EB3297808294A
:102050001ED1687898B12846FFF78FFE074677B102
:102060006A6A07F10C013046FEF7FBFC0CB1F87808
:1020700020703846FD6000F07DFA002008E06FF027
:10208000020005E0DFF80CC028463146224600DF9A
:1020900001B0F0BD812D0108EFF305832BB9EFF3FB
:1020A000108313B9EFF311830BB100207047DFF8F1
:1020B00008C000DF704700BF712E01082DE9F04114
:1020C0000646EFF3058090460D4628B9EFF31080E1
:1020D00010B9EFF3118038B36FF003070EB303BBF1
:1020E000FDB1307808281CD17078C0B106F10C0021
:1020F00000F0F0F8044694B1726A04F10C0029462D
:10210000FEF7AFFC40F20710002720802046A770A2
:1021100084F80380C4E9015600F02CFA01E06FF066
:1021200002073846BDE8F081DFF80CC0304629468A
:10213000424600DFBDE8F081A92F0108EFF30582D8
:102140002AB9EFF3108212B9EFF3118212B16FF0D6
:1021500005007047DFF804C000DF704771300108E8
:10216000EFF3058129B9EFF3108111B9EFF3118174
:1021700011B16FF005007047DFF804C000DF704751
:1021800009310108EFF3058129B9EFF3108111B985
:10219000EFF3118109B100207047DFF808C000DFBC
:1021A000704700BFDD310108EFF3058129B9EFF376
:1021B000108111B9EFF3118111B16FF00500704773
:1021C000DFF804C000DF704749320108B0B50023D2
:1021D000D0B3C9B3032A37D886460F315EF8084F0B
:1021E00021F0070CDEF804102346A3EB0E0421F0C7
:1021F0000305641B644505D21C689E46002CF1D182
:10220000002321E0D0E9004363444360204450F8B8
:10221000044C9C423EBF08384360DEF8041069B1AC
:10222000DEF8000021F0030141F80E004CEA020044
:1022300071444860CEF800108E4603E04CEA02007C
:10224000CEF804000EF108031846B0BD80B5002298
:1022500018B311B300F10803A1F1080C4FF0000E00
:102260001A46624505D013689646002BF8D1002225
:1022700013E051F8043C4268BEF1000F23F0030361
:10228000A2EB030242604FF0010219BFDCF800002C
:10229000CEF80000002041F8040C104680BD08B1C3
:1022A000420702D000221046704700221829FAD3B4
:1022B00011F00703F7D11022C0E900120144A1F187
:1022C00008038360002341F8083C81684A600122CA
:1022D000C360E8E708B3B0B5014604C951E8003F60
:1022E0009A4202D8BFF32F8F04E05C1C41E80045FE
:1022F00005B1F3E701688B42BDE8B0400DD200F1B3
:10230000140151E8000F10B9BFF32F8F04E00268E9
:1023100041E8002303B1F4E7704700207047B0B5EF
:1023200010B3C2688A421FD802698A421CD9021DB2
:1023300052E8003F13B9BFF32F8F04E05C1E42E860
:10234000004505B1F4E793B1143002680A60BFF3A9
:102350005F8F50E8002F0B689342F6D140E80014DD
:1023600004B1F2E70020B0BD6FF00300B0BD6FF024
:102370000200B0BD84460020BCF1000F18BF002948
:1023800021D002B3FBB180B54FF0000E02FB01304B
:10239000CCE9001ECCE90223CCE90403481EC1F1BC
:1023A000010E194600FB02FC04E088180EF1010E34
:1023B00008600146BEF1000FF7D1002043F80C0081
:1023C0000120BDE880407047F8B5044660780028D9
:1023D0005ED0A078A8B3E5686878002858D0284671
:1023E0002146FFF71FFD002005F10C062146607015
:1023F0003046FFF794FFA868002849D0407893281A
:1024000046D13046FFF766FF0446002C40D02846F0
:1024100000F0F6F9002100220646002700F0C2FA7B
:10242000304600F051FA06466A6A04F10C00B168C1
:10243000FEF717FB40F207102080A770F068E070ED
:1024400027E0A568687818B3A86810B34078832897
:102450001FD1284600F0D4F90021002206460027AB
:1024600000F0A0FA304600F02FFA06466A6A04F13E
:102470000C01B068FEF7F5FAF06808B1E178017078
:10248000677005F10C002146BDE8F840FFF747BF33
:10249000F8BD28462146BDE8F840FFF791BC2DE97C
:1024A000F041044600274FF0010815E0E8786C6918
:1024B000000711D52F76A86870B1284600F0A0F962
:1024C00000210022064600F06DFAEE60F06AC5E9D0
:1024D0000470F56285F818802546002DE6D1BDE828
:1024E000F0810000F8B5224C4FF6FF7604F1560556
:1024F00004F15A0727E0D7E85F1F4A1C904200D832
:102500000022C7E8532F03B1F5E788B2E16D51F817
:102510002000002826D001780139062913D8DFE8E9
:1025200001F0041207120A0D1000216E88470AE01C
:10253000616E884707E0A16E884704E0E16E884736
:1025400001E0216F8847B4F85400D5E85F1F11B946
:10255000BFF32F8F04E04A1EC5E8532F03B1F4E701
:102560003142C8D10020BDE8F84000F0EDB800BF0E
:10257000601C002070B501461948B0F8542000F1E5
:102580005603D3E85F4FA24202D8BFF32F8F04E077
:10259000651CC3E8565F06B1F3E7A3B293421AD2B3
:1025A00000F15803D3E85F4F651CAA4200D800250C
:1025B000C3E8565F06B1F5E7C36DA2B243F8221037
:1025C000417A002919BF0121817206484FF08051DC
:1025D00008BF016070BD0220BDE870400EF05EBE15
:1025E000601C002004ED00E0012141700C4990F9CD
:1025F00020C001F11C021346194651F8082F4AB1B8
:1026000092F920106145F6DC02F10C01C0E90223C9
:10261000986002E00022C0E902230860704700BF12
:10262000601C002080B54A1C1AD0224A4FF0000ED0
:1026300002F12C0C624606E0DA69914227D3891A2E
:1026400003F110029E461368002BF5D1C1610021F1
:10265000BEF1000FC0E9041E18BF0EF1100C25E0FA
:102660001449002201F1300C634611461A6802F148
:102670001003002AF9D14FF0FF320029C2614FF058
:102680000002C0E9042118BF01F1100C0EE0BEF1F8
:10269000000FC0E9043EC16118BF0EF1100CCCF868
:1026A000000003F1140CDA69511AD961CCF800006A
:1026B00080BD00BF601C0020C36941695A1C11D055
:1026C000DFF848C021B9DCF82C20824218BF7047DF
:1026D000026922B15161D1691944D161416939B1AD
:1026E0000A610EE0094A31B9136B834203D0704787
:1026F000CCF82C20704703690BB15961416919B1BD
:102700000B6100214161704713637047601C00201A
:10271000B0B50C4DEC6A1CB1E0690138E06100D045
:10272000B0BD204600F093F8204600F0C3F82469BD
:102730002CB1E0690028F4D00020606100E00024A2
:10274000EC62B0BD601C0020B0B505461548002DF8
:102750004469017A0DD0022906D12CB194F92000E8
:1027600095F92010814213DC2846BDE8B04000F006
:10277000A1B8022914D19CB1456A8DB194F9200009
:1027800095F920108142D8BFB0BD284600F05FF80F
:102790002046FFF729FF2846BDE8B04000F0DEB82C
:1027A000B0BD00BF601C002010B504460020607062
:1027B000A07810F0020F0DD0C00605D40F48216B91
:1027C000406FFFF743FD05E00C48216BD0F8840013
:1027D000FFF7A5FDA078C00708BF10BD0749D1F8D5
:1027E000880020B12146BDE81040FFF798BDD1F820
:1027F00080002146BDE81040FFF728BD601C002086
:102800000146886830B18268002A8A6000D0D160B1
:102810000021C1607047C9B191F920C000F10802E0
:1028200006E093F9202062450ADB03F1080218460E
:102830001368002BF5D10022C1E90220083004E022
:10284000C1E90230816003F10C0001607047C1688A
:1028500031B182688A60826802B1D1600021C160B2
:102860007047B0B50446254603E02878012803D117
:10287000ED68002DF9D1B0BD2046FFF7E8FF2846EE
:102880002146BDE8B040FFF7C6BF10B504466078EA
:10289000332818BF10BD94F82320616A2046FFF743
:1028A00015FB014629B120460022BDE8104000F08A
:1028B00079B810BD01460120487002481C30FFF76E
:1028C000AABF00BF601C002090F822104022806B3D
:1028D00002EA810181F060010844704707484169BC
:1028E00039B1086B8A6B824204D90068044A90426D
:1028F00000D1704701200EF0D1BC00BF601C002049
:10290000A52E5AE2B0B5114DA86A08B101240AE01B
:102910000F480021826D0F4800F02EFD0446002C68
:10292000AC6218BF01240A48416E61B1A96C51B96B
:10293000C26D0948002100F01FFD0028A86418BFDF
:1029400001202040B0BD2046B0BD00BF601C00206B
:10295000C8880208BD120208492A010802214170F4
:1029600001498861FFF7BABF601C002010B50C4C0C
:102970008446207A02281CBF002010BD6369002015
:102980006BB1626A5AB1184683F801C0FFF74AFE7C
:1029900004F11C00FFF734FFFFF7E0FF012010BD3A
:1029A000601C0020B0B504461546402294F8220071
:1029B00002EA8000A26B80F0600011502046FFF711
:1029C0007BFE20461DB1BDE8B040FFF7BDBEBDE8AF
:1029D000B040FFF76FBF0000B0B5FFF737FA194DF1
:1029E000E968286D01310028E96000D08047FFF7D1
:1029F0008FFE0020FFF7A8FE296C11B3AA69A86B0F
:102A000090421CBFC5E90E21B0BDE96B11B101397F
:102A1000E96316D1297A022913D16C6A8CB190F836
:102A2000200094F8201081420BD12046FFF70FFFC1
:102A3000A86BFFF73FFF2046FFF790FF286CC5E922
:102A40000E40B0BD601C0020BCB50D480821D0E987
:102A50001820FFF721FB0B4D0028E8640ED00A492F
:102A60006C462965214600224FF0FF33FFF7DCFA60
:102A700010B9DDE900108847E86CF3E7BCBD00BF82
:102A8000C8880208601C00208D2A010870B5144D0A
:102A90006C6C1CB320690126013820611CE02069A0
:102AA000E0B9E06808B1A1688160686404F11801C8
:102AB00000220023E86CFFF701FB18B10320214638
:102AC0000EF0ECFBE078012804D161692046FFF7A5
:102AD00033FA00E066706C6C002CE0D170BD00BF72
:102AE000601C0020DFF804C000DFFEE705330108AA
:102AF000EFF3058028B9EFF3108010B9EFF31180E0
:102B000008B100207047DFF808C000DF704700BF41
:102B10006D330108EFF305832BB9EFF3108313B97D
:102B2000EFF311830BB100207047DFF808C000DF1E
:102B3000704700BF79330108EFF3058129B9EFF33E
:102B4000108111B9EFF3118111B16FF005007047D9
:102B5000DFF804C000DF704759350108014629B18C
:102B600080B51320FFF702FFBDE8804000207047CA
:102B70000148007A704700BF601C00202DE9F8432F
:102B8000DFF8648198F80800012800F0A58000288B
:102B900040F0A480554F4FF0FF30796D4829C0F0C8
:102BA0009F80FC68002C00F09B803D8A002D00F087
:102BB000978008F108009C21FDF7ECFFA8F854501D
:102BC000C8F85C40B868D7E90B41C8F84000204617
:102BD000FFF765FB08B1C8F88040D7E90541DFF889
:102BE0001091D7E907562046C847D8F8801000282A
:102BF000284618BF2146C8F874103146C847D8F88F
:102C00008010002818BF2946C8F87810D7E9094174
:102C10002046C847D8F88010002818BF21467C6B92
:102C2000C8F87C1044B12168D4E902232046FFF79C
:102C3000A1FB08B1C8F88440BC6B44B12168D4E959
:102C400002232046FFF796FB08B1C8F88840FC6BCA
:102C500044B12168D4E902232046FFF78BFB08B179
:102C6000C8F88C403C6C44B12168D4E9022320466A
:102C7000FFF780FB08B1C8F890407C6C44B1216834
:102C8000D4E902232046FFF775FB08B1C8F8944049
:102C9000BC6C44B12168D4E902232046FFF76AFBEB
:102CA00008B1C8F89840FC6C44B12168D4E902230B
:102CB0002046FFF75FFB08B1C8F89C403C6D44B16B
:102CC0002168D4E902232046FFF754FB08B1C8F875
:102CD000A040012088F80800002001E04FF0FF30FC
:102CE00001B0BDE8F08300BF601C0020C888020866
:102CF0009F220108B0B51E4C207A01281CD1FFF795
:102D000001FEC8B11B48FF211B4D8175817D026802
:102D100081F0FF01C2F30222B1FA81F1C1F1200179
:102D20008A4228BF511CFE2202FA01F1C174686870
:102D30001249FFF7ABF810B14FF0FF30B0BDFFF70D
:102D4000A1F82061FFF788F804F11C00FFF758FD97
:102D50000028F1D0FFF702FE2878C0070CBF03203F
:102D6000022080F31488022020720020B0BD00BF32
:102D7000601C00200CED00E0C88802081104010866
:102D80002DE9F84304461E4690460F466FF00305B2
:102D9000002C67D0002F65D02078082862D1607899
:102DA00000285BD02046FEF7E8FF8146B9F1000F0E
:102DB00042D020464946FFF735F8626A09F10C0116
:102DC0003846FDF74EFEB8F1000F04F10C064FF047
:102DD000000549461CBF99F8030088F8000089F8EF
:102DE00001503046FFF79BFAA068D8B3407893288B
:102DF00037D13046FFF76EFA0646002596B32046D7
:102E0000FFF7FEFC002101220746FFF7CBFD384605
:102E1000FFF75AFD0746626A06F10C00B968FDF734
:102E200020FE40F2071031463080B570F868F0702F
:102E30002046FEF7C5FF15E086B183203146FFF737
:102E400095FD40B1094841692046FFF7E4FCEFF3E6
:102E50000980C0E902786FF0010503E06FF0020518
:102E600000E00025284601B0BDE8F083601C00208A
:102E70002DE9F84F04460D46002764B15DB105F118
:102E80000F01B4FA84F021F00306B6FA86F1084483
:102E9000202804D20027384601B0BDE8F08F06FB99
:102EA00004F872B1D2F808A01368D2E90490BAF11C
:102EB000000F11D05FEA8A71ECD1D1683429E9D3CF
:102EC0000DE000234FF0000935490093D1F8A00030
:102ED00078B1FFF7FFF912E0D1680029DAD1B9F132
:102EE000000F31D000274045D5D319F003002DD075
:102EF000D1E7D1F8800034210122FFF767F982463B
:102F00004FF0010BB9F1000F12D1BAF1000F0FD041
:102F1000234F41460022F86FFFF758F98146B9F177
:102F2000000F07D048464146FDF712FE57461AE00B
:102F300057461AE0BBF1000F14D0D7F8A00060B1DB
:102F40005146FFF7ECF90DE00028A3D1BAF1000FCC
:102F5000BAD000934FF0000BD4E7D7F88000514669
:102F6000FFF774F900274BF0020B002F3FF493AFEB
:102F70004FF48470009987F802B032464B4638808F
:102F80000020C7E90110C7E90950C7E90B0007F1A4
:102F90000C002146FFF7EEF90148024901677AE784
:102FA000601C0020C92301082DE9F8430546994615
:102FB00090460E466FF00307002D52D0002E50D0E1
:102FC000287808284DD16878002848D0A868D0B162
:102FD0004078832817D12846FFF712FC00210122F0
:102FE00004460027FFF7DEFC2046FFF76DFC044691
:102FF0006A6A3146A068FDF734FDE06888B380F85E
:10300000008000272DE005F10C00FFF763F904466E
:103010008CB16A6A04F10C003146FDF722FD40F2E2
:1030200007100027214620802846A77084F80380D7
:10303000FEF7C6FE15E0B9F1000F10D09320494607
:10304000FFF794FC40B1094841692846FFF7E3FBCC
:10305000EFF30980C0E902686FF0010701E06FF04B
:103060000207384601B0BDE8F08300BF601C0020B5
:1030700070B5044623480E4645695DB33CB32078DD
:10308000042824D16078C8B3207E30B3E17811F0F1
:10309000010F02D0E268AA422CD07EB388070AD57D
:1030A000E06895F9201090F920208A4203DA80F830
:1030B0002010FFF7D6FB53203146FFF757FC18B11D
:1030C00020462946FFF7A7FB6FF0010070BD6FF0A7
:1030D000030070BD4FF0FF3070BDE5600021E86A6D
:1030E0000028C4E9041000D00461EC6201202076BD
:1030F000002070BDFF2801D00130F8E76FF002001A
:1031000070BD00BF601C002010B50446002C55D0D7
:103110002078042852D16078002852D000206070B6
:10312000207E00283FD0D4F814C0E068BCF1000F26
:1031300000F12C031CBF2269CCF8102021691A462B
:10314000002918BF01F11402C2F800C0E178890714
:1031500023D590F821C00AE0936833B193F9203069
:103160004FFA8CF18B42C8BF9C4602F114031A68D7
:10317000002AF1D190F820105FFA8CF291420CD025
:1031800080F820C0FFF76DFB07E02046FFF738FB13
:103190006FF002010022FFF705FCA0680028F4D1BF
:1031A0000020FFF7D1FAA078C00712D00A49D1F861
:1031B000940048B12146FFF7B2F80AE06FF003002F
:1031C00010BD6FF0020010BDD1F880002146FFF75E
:1031D0003DF8002010BD00BF601C002070B558B144
:1031E000D0E90065846884B1A10711D1C1680020CD
:1031F0001C2938BF70BD16E0002500261149D1F802
:10320000940038B1FFF766F80AE0C0680028F5D0EE
:10321000002070BDD1F880001C210122FEF7D6FFEE
:10322000044664B10120A0704FF482701121208007
:1032300004F10800E5706660FDF7ACFC00E00024D6
:10324000204670BD601C002070B504462C484069C3
:1032500070B154B12178042907D1617811B1E168C6
:10326000814209D06FF0020404E06FF0030401E032
:103270004FF0FF34204670BD217E0029F2D0013985
:1032800011F0FF0F217601D00024F3E7616909B145
:1032900022690A61236900F12C052A46002B18BF18
:1032A00003F114021160E178890711D590F821101B
:1032B00009E093682BB193F920304DB2AB42C8BFFF
:1032C000194602F114052A68002AF2D180F820106C
:1032D000A06878B12046FFF793FA00210022054646
:1032E0000026FFF75FFBE560E86AC4E9046001209F
:1032F000EC62207600200024FFF726FABAE700BF30
:10330000601C0020B0B5184D6C6964B3287A02289F
:1033100029D1686A38B3E06AFFF7C1F8A06918B12B
:1033200000210022FFF73EFBEFF30980A06305F1C7
:103330001C00FFF765FAFFF711FB00206861E078D9
:10334000C00701D0A06920B12046BDE8B040FFF71A
:103350002BBA0020E06004206070686B0028A06039
:1033600000D0C4606C63B0BD601C0020014840699F
:10337000704700BF601C00202DE9FE4F8046B8F169
:10338000000F21D06AB102F1100A9AE88006D2E952
:1033900000439568B5B1A80716D1D068442813D367
:1033A00017E04FF0180A002300274FF0000900240F
:1033B000644A0293D2F88800CDE90014C8B1FEF740
:1033C00089FF1CE0D06820B10026304603B0BDE87C
:1033D000F08F37B10026B9F1000FF6D017F00700D3
:1033E000F3D1BAF1000F38D0AAF101003728EBD899
:1033F00035E0D2F8800044210122FEF7E7FE0546C1
:103400004FF0010B67B95DB1B9F1000F0AD04D481B
:1034100049460022406FFEF7D9FE074687B911E002
:103420002E463EE047484849D0F88400D1F85490F1
:103430000028ECD0FEF74EFF07461FB14BF0100BF3
:103440002E462CE0BBF1000F1CD03E49D1F888007D
:10345000E0B12946FEF763FF1DE04FF0180AB9F10D
:10346000000F06D00026B9F1480FAED319F00700BF
:10347000ABD1002D3FF49CAFCDE9001402934FF087
:10348000000BBFE74FF0000B002707E0D1F88000EA
:103490002946FEF7DBFE00274FF0010B00264BF01C
:1034A000020B002E3FF491AF40F2011086F802B0FB
:1034B000182130800298F0700198706006F10800C1
:1034C000FDF768FB07EB0901FD2086F821A086F8CF
:1034D00020A086F822000020403986F82F00C6F888
:1034E0002B00C6F82700C6F82300C6E90C79C6E908
:1034F0000E181649009D39601349097849070AD505
:1035000011213A1D4FF0CC33A1EB990101E008C223
:1035100001310029FBD1B16B002202E041F8220009
:1035200001320D2AFAD10A4A4FF080700D62C1E9CA
:103530000D28C8630348074901663046FFF704F9C0
:1035400043E700BF601C0020C8880208A52E5AE28D
:10355000E52A01088B280108B0B50446C4B12078DB
:10356000012815D1607800F00F00012813D003283E
:1035700015D002281CBF6FF00200B0BD24496FF0C7
:1035800002000A7A022A18BFB0BD496A69B9B0BD03
:103590006FF00300B0BD2046FFF759F905E0204663
:1035A000FFF755F92046FFF787F8E06AFEF777FF47
:1035B000A06918B100210022FFF7F4F96078022811
:1035C0000CD1134DEFF30980A06305F11C00FFF748
:1035D00017F9FFF7C3F90020686102E00020FFF748
:1035E000B3F8E078C00701D0A06920B12046FFF70A
:1035F000DBF80020B0BD0020E060042060700448CB
:10360000416B0029A16000D0CC604463F1E700BFAA
:10361000601C00205FEA400C08BF91F0000F4FEAE9
:103620008C234FEAC12243EA51514FEA1C5018BF84
:1036300000F5F0404FEA300018BF41F000415FEA6A
:103640006C5C00F02980BCF1FF3F08BF40F0804077
:103650007047130C06BF12044FF0100C4FF0000C13
:10366000130E04BF12020CF1080C130F04BF120159
:103670000CF1040C930F04BF92000CF1020CD30F59
:1036800004BF52000CF1010C11464FF00002A0F1F2
:103690001F00A0EB0C00704711F0004F08BF7047EF
:1036A00031F000413FF4D5AF0B0C06BF09044FF0D9
:1036B000100C4FF0000C0B0E04BF09020CF1080CAB
:1036C0000B0F04BF09010CF1040C8B0F04BF890020
:1036D0000CF1020CCB0F04BF49000CF1010CCCF132
:1036E0002003A0EB0C0022FA03F302FA0CF241EAE9
:1036F000030100F10100704720F07F4C80EA0300D5
:1037000023F07F47ACEB070303F57C5300F0004048
:1037100003F1FF032DE980494FEA154B09B44FEA45
:10372000144325EA0B4E24EA03480FF2042606EB65
:10373000132749083E785FEA320203FB0667C7F5A4
:10374000000707FB06F64FEA54374FEAD64606F164
:10375000020607FB066CCCF1005C4FEA1C472CEA22
:10376000074C07FB06F40CFB06F504EB15464FEA85
:10377000961634BF00204FF000404FEAD13706FBC9
:1037800007FC4FEA1C4C0CFB0BF7D21B03FB0CF79E
:1037900061EB07010CFB0EF7B0EB074072EB174231
:1037A0000CFB08F734BFA2EB0742B2EB074261EB18
:1037B00017414FEA0C444FEA910706FB07FC4FEA1A
:1037C0001C4C0CFB0BF7B0EBC74072EB573203FB02
:1037D0000CF734BFA2EBC742B2EBC74261EB5731E3
:1037E0000CFB0EF7B0EBC70072EB57720CFB08F73F
:1037F00034BFA2EBC702B2EBC70261EB5771039F64
:103800004FEA816141EA921104EBCC044FEAD137CF
:103810004FEA826206FB07FC42EA90124FEA8060A0
:103820004FEA1C4C0CFB0BF7D21B03FB0CF761EBB4
:1038300007010CFB0EF7B0EB074072EB17420CFBD5
:1038400008F734BFA2EB0742B2EB074261EB174126
:103850004FEA8C554FEA910704EB9C2406FB07FCCA
:103860004FEA1C4C0CFB0BF7B0EBC74072EB573226
:1038700003FB0CF734BFA2EBC742B2EBC74261EBCC
:1038800057310CFB0EF7B0EBC70072EB57720CFB15
:1038900008F734BFA2EBC702B2EBC70261EB577166
:1038A00015EB4C254FEA816141EA92114FEA8262A1
:1038B0004FEAD13742EA901206FB07FC44F10004BC
:1038C0004FEA80604FEA1C4C0CFB0BF7D21B03FB4A
:1038D0000CF761EB07010CFB0EF7B0EB074072EB46
:1038E00017420CFB08F734BFA2EB0742B2EB0742CA
:1038F00061EB174115EB1C154FEA813141EA92410A
:103900004FEA823242EA90424FEA80304FEA0C7628
:1039100044F1000448EA03434EEA0B484FF0000E1E
:10392000B2EB080C71EB030724BF624639464EEB3D
:103930000E0E4FF0000B0018524149414BEB0B0BA0
:10394000B2EB080C71EB03077BF1000B24BF62465E
:1039500039464EEB0E0E4FF0000B00185241494114
:103960004BEB0B0BB2EB080C71EB03077BF1000B7D
:1039700024BF624639464EEB0E0E51EA020718BFCD
:1039800046F0010616EB0E7655F1000254F10001E7
:1039900003D5BDE88901BDE80088BDE88901BDE81F
:1039A0000048B619524141EB0101A3F101037047F0
:1039B00080807F7E7D7C7B7A79787776767574736C
:1039C000727171706F6E6E6D6C6C6B6A6A6968682B
:1039D000676666656464636362616160605F5F5EC1
:1039E0005E5D5D5C5C5B5B5A5A5959585857575637
:1039F000565555555454535352525251515050509C
:103A00004F4F4F4E4E4D4D4D4C4C4C4B4B4B4A4AED
:103A10004A49494948484847474747464646454531
:103A2000454444444443434343424242424141416A
:103A3000002B9C4630D477002BD01CB54FEA3707BB
:103A400003B44FF010004FF01001BAF1000F06D090
:103A5000BCF1000FDCBF40F0080040F0080113F09B
:103A600099FE0FBCBDE810400BF1010BBBF1010F3B
:103A700008BF5FEA170722BF12F1010211F101012D
:103A80004FF0004143F1000300F0004043EA000022
:103A90007047F9D35708D0E746EA064613F1400FBE
:103AA0004FEA16461FDD13F1200FDFBF16430A460B
:103AB000002120335B42BED0C3F1200746EA064610
:103AC00002FA07F74FEA164646EA0706C3F120074F
:103AD00022FA03F201FA07F721FA03F14FF000038B
:103AE00042EA0702A7E746EA020646EA06464FEA26
:103AF000164646EA0106BCBF46EA0646360C4FF0BB
:103B000000034FF000024FF0000194E72DE9804CD4
:103B10009A46934670B491E8380007C831EA400CE1
:103B200048BF34EA430C03D5FFF7E6FDFFF780FFFB
:103B3000F0BCBDE8008C2DE9804C9A46934670B4E9
:103B400091E8380007C810F0804F08BF13F0804F8D
:103B500003D100F005F8FFF76BFFF0BCBDE8008C67
:103B600020F07F4780EA030023F07F4C07EB0C0333
:103B7000A3F57C5300F00040A3F1FE0392F0000F88
:103B800000F0B38095F0000F00F077802DE9014937
:103B90004FEA11404FEA144621EA004800FB06FCB8
:103BA00024EA064708FB06F607FB08F800FB07F7C0
:103BB00018EB06484CEB164C4FEA124B18EB074833
:103BC0004FEA15464CEB174022EA0B4E0BFB06FC66
:103BD00025EA06470EFB06F607FB0EFE0BFB07F772
:103BE0001EEB064E4CEB164C4FF000061EEB074E3C
:103BF0004CEB174B18EB0B0840F1000018EB0E0BC9
:103C000058EB000840F100008F1A4FF000013CBF54
:103C1000C943661B14BFB5EB040C00213CBFC9436C
:103C2000F61B4FEA17444EEA8E0E27EA04454FEA88
:103C30001C4704FB07622CEA074C05FB07F70CFB4B
:103C400005F604FB0CFC16EB074642EB174216EB9D
:103C50000C4642EB1C421BEB060658EB02024141AC
:103C600046EA9E0601D5BDE80189B619524141EBED
:103C70000101A3F10103BDE801894FEA14454FEAB0
:103C8000114724EA054621EA074C05FB07F406FB29
:103C900007F70CFB06F105FB0CFC11EB074144EBAD
:103CA00017444FEA124711EB0C4144EB1C4422EA43
:103CB000074C05FB07F206FB07F70CFB06F605FBB6
:103CC0000CFC16EB074642EB174216EB0C4642EB98
:103CD0001C456A1854F1000148BF7047B61952419B
:103CE00041EB0101A3F10103704795F0000F37D0BC
:103CF0004FEA11424FEA144721EA024624EA074CF0
:103D000002FB07F106FB07F70CFB06F402FB0CFCB9
:103D100014EB074441EB17414FEA154714EB0C44F1
:103D200041EB1C4125EA074C02FB07F506FB07F7B0
:103D30000CFB06F602FB0CFC16EB074645EB1745A1
:103D400016EB0C4645EB1C42121951F1000148BF1D
:103D50007047B619524141EB0101A3F101037047CD
:103D60004FEA14454FEA114724EA054621EA074C79
:103D700005FB07F106FB07F70CFB06F24FF0000608
:103D800005FB0CFC12EB074241EB174112EB0C4216
:103D900051EB1C4148BF7047921841EB0101A3F160
:103DA0000103704770B50546AC6B206C00F0500005
:103DB00050BB206C40F4007020642068806800F0E4
:103DC0004050E8B9A069D8B92068C06A00F4700012
:103DD00020B12068806800F4806088B9206840685D
:103DE00020F0200021684860206C20F4807020645E
:103DF000206C00F4805018B9206C40F00100206461
:103E0000204601F06FFA03E0A06BC16C284688479A
:103E100070BD70B50546AC6B40202064606C40F00E
:103E200004006064204601F05FFA70BD70B504467E
:103E3000A56B284601F057FA70BD000010B5024886
:103E400001F053FA10BD00002C1D002010B5584998
:103E50004A6822F440324A604A6843681A434A601A
:103E60000268526822F4807203685A6002685368DC
:103E7000026943EA022203685A600268526822F02B
:103E8000407203685A600268526883681A43036884
:103E90005A600268926822F4006203689A600268BD
:103EA0009268C3681A4303689A60424B826A9A42D6
:103EB00018D00268926822F0706203689A60026803
:103EC0009268836A1A4303689A600268926822F0D3
:103ED000405203689A6002689268C36A1A43036892
:103EE0009A600BE00268926822F0706203689A6040
:103EF0000268926822F0405203689A6002689268F1
:103F000022F0020203689A6002689368826943EAB9
:103F1000420203689A60026AD2B10268526842F4AF
:103F2000006203685A600268526822F460420368C3
:103F30005A6002685368426A521E4FF4604494FA11
:103F4000A4F4B4FA84F4A24013430268536005E079
:103F50000268526822F4006203685A600268D26AFA
:103F600022F470020368DA620268D36A828B521EFE
:103F700043EA02520368DA620268926822F400722D
:103F800003689A6002689368026B43EA42220368FE
:103F90009A600268926822F4806203689A600268FC
:103FA0009368426943EA822203689A6010BD000068
:103FB000002301400100000F10B500224FF4806182
:103FC000134802F033FD00BF1148006820F44000A0
:103FD0000F4908600846006840F48000086000BF90
:103FE0000022C9140A4802F021FD012008F0AAFEAF
:103FF00001229102064802F019FD012008F0A2FEFC
:1040000000224FF48061024802F010FD10BD000054
:104010000008024000B587B000BF002001901248A0
:10402000006840F00400104908600846006800F08D
:104030000400019000BF00BF4FF4406002900120D7
:10404000039004900220059002A9084802F0E2FBC8
:104050000122D102054802F0E9FC01229102034845
:1040600002F0E4FC07B000BD303802400008024016
:1040700010B500224FF48061134802F0D7FC00BF56
:104080001148006820F440000F49086008460068A5
:1040900040F48000086000BF0122C9140A4802F001
:1040A000C5FC012008F04EFE01229102064802F0F4
:1040B000BDFC012008F046FE00224FF4806102485A
:1040C00002F0B4FC10BD00000008024070B50446C8
:1040D000002500F0E9F8A02000F0A4F800F03EF977
:1040E0000D48007820B9201200F09CF800F036F955
:1040F000E0B200F097F800F031F900F0D5F8A12017
:1041000000F090F800F02AF9002000F007F80546CA
:1041100000F0F8F8284670BD5C18002070B5054620
:104120000026002400BF1948006820F44000174909
:10413000086008460068086000BF00BF1CE000225D
:104140004FF48061114802F071FC012008F0FAFD83
:10415000012291020D4802F069FC6006040E4FF442
:1041600000610A4802F056FC08B1601CC4B201208C
:1041700008F0E8FD701CC6B2082EE0DB15B9FFF7A9
:1041800077FF01E0FFF718FF204670BD00080240EE
:104190002DE9F04104460F461546002620480078D8
:1041A00030B96019B0F5004F08DB0020BDE8F081A0
:1041B0006019B0F5006F01DB0020F7E7012D01DA8F
:1041C0000020F3E700F070F8A02000F02BF800F0DA
:1041D000C5F81348007820B9201200F023F800F049
:1041E000BDF8E0B200F01EF800F0B8F800F05CF89E
:1041F000A12000F017F800F0B1F805E00120FFF76A
:104200008DFFB855701C86B2681EB042F6DC0020E7
:10421000FFF784FFB85500F075F80120C6E70000ED
:104220005C18002070B5044600BF1E48006820F4EA
:1042300040001C4908600846006840F4800008609F
:1042400000BF00220915174802F0F0FB002526E008
:1042500004F0800028B10122D102124802F0E6FBEE
:1042600005E000224FF400610E4802F0DFFB60061B
:10427000040E012008F066FD01229102094802F0B7
:10428000D5FB012008F05EFD00224FF48061054857
:1042900002F0CCFB012008F055FD681CC5B2082DCA
:1042A000D6DB70BD0008024010B500BF144800689E
:1042B00020F44000124908600846006840F480007D
:1042C000086000BF0122C9140D4802F0AFFB0122B3
:1042D00091020B4802F0AAFB012008F033FD0022F6
:1042E0004FF40061064802F0A1FB012008F02AFD0E
:1042F00000224FF48061024802F098FB10BD0000DC
:104300000008024010B500BF1348006820F44000C8
:10431000114908600846006840F48000086000BF4A
:10432000002209150C4802F081FB00224FF40061C5
:10433000094802F07BFB012008F004FD01229102F4
:10434000054802F073FB0122D102034802F06EFB24
:10435000012008F0F7FC10BD0008024010B5002451
:1043600000BF1948006820F440001749086008465B
:104370000068086000BF0122C914134802F056FB10
:10438000012008F0DFFC012291020F4802F04EFBF1
:10439000012008F0D7FC07E0601CC4B2FA2C03DD52
:1043A000FFF7B0FF002010BD4FF40061064802F097
:1043B00031FB0028F0D100224FF48061024802F066
:1043C00035FB0120EFE700000008024070B504460D
:1043D0000D46FFF769FFA020FFF724FFFFF7BEFFA0
:1043E0000B48007820B92012FFF71CFFFFF7B6FF3B
:1043F000E0B2FFF717FFFFF7B1FF2846FFF712FF04
:10440000FFF7ACFFFFF77EFF052008F08EFC70BDC4
:104410005C1800202DE9F04104460F4615460026A1
:10442000B0462F48007848B96019B0F5004F02DB5C
:104430000020BDE8F0814FF0400807E06019B0F5BA
:10444000006F01DB0020F4E74FF01008012D01DAC6
:104450000020EEE7FFF728FFA020FFF7E3FEFFF7BD
:104460007DFF1F48007820B92012FFF7DBFEFFF721
:1044700075FFE0B2FFF7D6FEFFF770FF26E0B85DEC
:10448000FFF7D0FEFFF76AFF701C86B2601C84B293
:1044900094FBF8F008FB1040C0B9FFF733FF0A2087
:1044A00008F043FCFFF700FFA020FFF7BBFEFFF77B
:1044B00055FF0B48007820B92012FFF7B3FEFFF735
:1044C0004DFFE0B2FFF7AEFEFFF748FFAE42D6DB8E
:1044D000FFF718FF0A2008F028FC0120A9E70000D8
:1044E0005C1800201CB5002001901DA00068009001
:1044F0000A2002F0AEF8042269463520FFF78AFF51
:104500000A2002F0A6F83520FFF7E0FD8DF8040040
:104510003620FFF7DBFD8DF805003720FFF7D6FDCD
:104520008DF806003820FFF7D1FD8DF807009DF8C3
:10453000040011280FD19DF8050022280BD19DF809
:104540000600332807D19DF80700442803D1002036
:104550000449087002E00120024908701CBD0000F7
:10456000112233445C1800202DE9F04105460E4627
:104570000948C46A0BE02078FF2802D02078A842BE
:1045800004D1676831462846B84700BFA468002CAC
:10459000F1D1BDE8F0810000D01F002000200CF018
:1045A000E1F800BFFEE7000010B5012002490870E5
:1045B000024801F075F910BD44150020001F0020CD
:1045C00010B5024801F06CF910BD0000001F00207A
:1045D0002DE9F04106460F4615461048006B06606F
:1045E00000200E49096B88600C49096BC8600B48B4
:1045F000006B0561002406E0395D0848006B14304B
:104600000155601CC4B2AC42F6DB044801F0D2FC98
:1046100010B10120BDE8F0810020FBE7001F002061
:1046200010B5024801F03CF910BD0000001F002049
:1046300010B5012002490870024801F031F910BD9F
:1046400045150020481F002010B5024801F028F948
:1046500010BD0000481F00202DE9F04106460F461E
:1046600015461048006B066000200E49096B8860F3
:104670000C49096BC8600B48006B0561002406E01B
:10468000395D0848006B14300155601CC4B2AC425F
:10469000F6DB044801F08EFC10B10120BDE8F0818A
:1046A0000020FBE7481F002010B5024801F0F8F891
:1046B00010BD0000481F002070B58AB005460E46A8
:1046C0006248854201D1624C03E06248854200D1D4
:1046D000614C256061482063614860630021A160EE
:1046E000A1610121E161002121626162A162E162B7
:1046F000B6F5FA7F21D006DC642E3FD07D2E32D075
:10470000FA2E46D124E0A6F26B3060B17D2840D16C
:104710000021E1604FF4202121614FF4801161619B
:104720000320606040E00021E1604FF4A02121619E
:10473000002161610620606036E00021E1604FF4F5
:10474000202121614FF480116161062060602BE01F
:104750000021E1604FF4202121614FF4801161615B
:104760000C20606020E00021E1604FF420212161F5
:104770004FF4801161611820606015E00021E16054
:104780004FF4202121614FF4801161611E2060608F
:104790000AE00021E1604FF4202121614FF48011F3
:1047A00061610620606000BF00BF204601F0A2F9F1
:1047B00018B174212BA005F06BF8244885421FD155
:1047C00000200590069001200790002000900190A5
:1047D000029003900490012008900F2009906946F0
:1047E0001B4800F0C7FF18B189211EA005F050F842
:1047F00000201749096BC8601549096B886023E0E0
:104800001448854220D10F200590002006900120F9
:1048100007900020009001900290039004900120E6
:1048200008900F20099069460B4800F0A3FF18B1CB
:10483000A0210CA005F02CF800200749096BC860E6
:104840000549096B886000BF0AB070BD0064004074
:10485000001F002000680040481F0020901F00201B
:10486000AC1F00202E2E5C6D63755C63616E2E6341
:10487000000000002DE9F04104460D460027002607
:104880000DB9666B00E0A66B206800F5D87000EBF0
:104890000510006800F00400B060B06858B92068E6
:1048A00000F5D87000EB0510006840F2FF7101EAD6
:1048B000505030600AE0206800F5D87000EB051019
:1048C00000686FF0604101EAD0007060206800F578
:1048D000D87000EB0510006800F00200F06020685E
:1048E00000F5D87000EB0510406800F00F00306153
:1048F0003562206800F5D87000EB05104068C0F301
:104900000720F061206800F5D87000EB0510806882
:104910003075206800F5D87000EB05108068010A3A
:104920007175206800F5D87000EB05108068010CE7
:10493000B175206800F5D87000EB05108068000E96
:10494000F075206800F5D87000EB0510C06830766F
:10495000206800F5D87000EB0510C068010A717678
:10496000206800F5D87000EB0510C068010CB17626
:10497000206800F5D87000EB0510C068000EF076D6
:104980004DB920202168C8602068406920F00A00E5
:104990002168486108E0202021680861206840699A
:1049A00020F050002168486194F83C70222F01D01B
:1049B000322F05D12068406920F40F4021684861FA
:1049C000CDB994F83C00422804D0622806D0722861
:1049D0000CD107E0122084F83C000BE0322084F870
:1049E0003C0007E0522084F83C0003E0012084F8FA
:1049F0003C0000BF19E094F83C00522804D0622823
:104A000006D072280CD107E0122084F83C000BE09D
:104A1000222084F83C0007E0422084F83C0003E0B8
:104A2000012084F83C0000BF00BF204601F090FA4E
:104A30000020BDE8F08110B504462068406920F0F0
:104A400001002168486194F83C00122805D12068D3
:104A5000406920F40F402168486194F83C004228E6
:104A600004D0522806D072280CD107E0222084F806
:104A70003C000BE0322084F83C0007E0622084F820
:104A80003C0003E0012084F83C0000BF00BF20464A
:104A900001F08BFB002010BD10B5024801F0F0FBC7
:104AA00010BD00009022002010B5024801F0E8FB84
:104AB00010BD0000D021002010B5024801F0E0FB3D
:104AC00010BD00003022002010B5024801F0D8FBD4
:104AD00010BD0000F022002010B5024801F0D0FB0C
:104AE00010BD0000741D002010B5024801F0C8FB85
:104AF00010BD00005023002010B5024801F0C0FB9B
:104B000010BD00001021002010B5024801F0B8FBD4
:104B100010BD0000B023002010B5024801F0B0FB2A
:104B200010BD0000702100200146087810381823BD
:104B3000B0FBF3F20848805CC865032A05D9086811
:104B40006FF30900001D886503E008686FF3090032
:104B50008865886D704700001A7A020801460020B7
:104B60008A6A8B69CBB932B1012A0DD0022A03D0EF
:104B7000032A10D10EE000BFCB6A03F08073B3F1BB
:104B8000807F00D1012007E0CB6AB3F1C07F00D164
:104B9000012001E000E000BF34E08B69B3F5005F65
:104BA0001AD132B1012A07D0022A03D0032A11D127
:104BB0000AE000BF01200EE0CB6A03F08073B3F17E
:104BC000807F00D1012006E0CB6AB3F1C07F00D125
:104BD000012000E000BF15E032B1012A05D0022A11
:104BE00004D0032A0CD103E000BF00BF012008E07D
:104BF000CB6A03F08073B3F1807F00D1012000E025
:104C000000BF00BF704730B50468246824F48024D6
:104C100005682C60046863608468402C04D10468D3
:104C2000A2600468E16003E00468A1600468E260D7
:104C300030BD000001460A2900DC09B90020704798
:104C40002420214A10700B293CD2DFE801F03B06FA
:104C50000B10151A1F24292F350005201A4A5071F0
:104C60000620ECE70920184A50720A20E7E70D20D9
:104C7000154A50730E20E2E71120134A5074122097
:104C8000DDE71520104A50751620D8E719200E4A86
:104C900050761A20D3E71D200B4A50771E20CEE70E
:104CA0002120094A82F821002220C8E72520064A4F
:104CB00082F825002620C2E72920034A82F829002D
:104CC0002A20BCE70020BAE7C074002011B52DED02
:104CD000020B04460A2C00DC04B91EBD0B2C43D287
:104CE000DFE804F042060C12181E242A30363C007D
:104CF00001221F49684600F0ADF935E005221C4944
:104D0000684600F0A7F92FE009221949684600F02B
:104D1000A1F929E00D221649684600F09BF923E02D
:104D200011221349684600F095F91DE0152210493B
:104D3000684600F08FF917E019220D49684600F027
:104D400089F911E01D220A49684600F083F90BE059
:104D500021220749684600F07DF905E02522044933
:104D6000684600F077F900BF00BF00BFB5E700005C
:104D7000C0740020704710B5012001F03DFD10BD4A
:104D800010B54FF4806001F037FD4FF4004001F0A2
:104D900033FD10BD10B5082001F02EFD10BD10B57B
:104DA000202001F029FD10BD10B5002201B909E055
:104DB000012901D10A0205E0022901D10A0201E01C
:104DC0004FF44072114B1B6823F440730F4C236067
:104DD00023461B681343236023461B6823F0F80314
:104DE000236023461B68F82494FAA4F4B4FA84F4EC
:104DF00000FA04F444F002042343044C23602346E5
:104E00001B6843F48033236010BD0000103C024057
:104E10001C48006800F40070B0B11A48006820F423
:104E200000701849086000BF0846006840F4006040
:104E300008600846006820F40060086000BF08466B
:104E4000006840F4007008600E48006800F480605C
:104E5000B0B10C48006820F480600A49086000BFC7
:104E60000846006840F4805008600846006820F456
:104E70008050086000BF0846006840F48060086009
:104E800070470000003C02400A4A126822F4407257
:104E9000084B1A601A46126842F004021A601A4659
:104EA00012684FF4803343EA00231A43014B1A601F
:104EB00070470000103C0240074A126822F440721A
:104EC000054B1A601A4612681A601A46126842F0B8
:104ED00001021A6001707047103C024010B5094988
:104EE000096821F44071074C21602146096841F4AA
:104EF000407121602146096841F001012160026092
:104F0000436010BD103C0240084A126822F440720F
:104F1000064B1A601A46126842F480721A601A46EA
:104F2000126842F001021A6001807047103C024092
:104F3000084A126822F44072064B1A601A46126838
:104F400042F400721A601A46126842F001021A60B6
:104F500001607047103C02402348006800F01000D8
:104F600040B12248C06940F010002049C8611020BB
:104F70001D4908601C48006800F0200040B11B4833
:104F8000C06940F008001949C8612020164908602E
:104F90001548006800F0400040B11448C06940F076
:104FA00004001249C86140200F4908600E4800689B
:104FB00000F0800040B10D48C06940F002000B498C
:104FC000C8618020084908600748006800F00200B6
:104FD00040B10648C06940F020000449C861022081
:104FE00001490860704700000C3C024088580020CE
:104FF00070B50446002500201449C86101F022FD67
:10500000054609E0601C38B124B101F01BFD401BCE
:10501000A04201D9032070BD0D48006800F4803023
:105020000028EFD10A48006800F0010010B101200B
:10503000074908600648006800F0F20018B1FFF761
:105040008BFF0120E7E70020E5E7000088580020FB
:105050000C3C024030B503461C788C545D78541CDF
:105060000D559D78941C0D55DD78D41C0D5530BD23
:10507000014600202C4A914203D2B1F1006F00D3C7
:1050800050E02A4A914204D2274A914201D301209A
:1050900048E0274A914204D2244A914201D3022097
:1050A00040E0244A914204D2214A914201D3032094
:1050B00038E0214A914204D21E4A914201D3042091
:1050C00030E01E4A914204D21B4A914201D305208E
:1050D00028E01B4A914204D2184A914201D306208B
:1050E00020E0184A914204D2154A914201D3072088
:1050F00018E0154A914204D2124A914201D3082085
:1051000010E0124A914204D20F4A914201D3092081
:1051100008E00F4A914204D20C4A914201D30A207E
:1051200000E00B20704700000040000800800008ED
:1051300000C0000800000108000002080000040888
:10514000000006080000080800000A0800000C081B
:1051500000000E087047000038B50246002000909D
:1051600000BF92F83C00012801D1022038BD012087
:1051700082F83C0000BF0868092816D91068C0688A
:105180000C780A3C04EB44050724AC40A0431468A7
:10519000E0600C780A3C04EB44048868A040146882
:1051A000E46820431468E06013E0106800690C783C
:1051B00004EB44050724AC40A043146820610C783C
:1051C00004EB44048868A0401468246920431468F0
:1051D00020614868072817D21068406B0C79641E5C
:1051E00004EB84051F24AC40A04314686063088866
:1051F00080B20C79641E04EB8404A0401468646BD4
:1052000020431468606331E048680D2817D21068A5
:10521000006B0C79E41F04EB84051F24AC40A04311
:1052200014682063088880B20C79E41F04EB8404BE
:10523000A0401468246B20431468206316E01068B3
:10524000C06A0C790D3C04EB84051F24AC40A043DC
:105250001468E062088880B20C790D3C04EB840489
:10526000A0401468E46A20431468E062194B1A4CA9
:105270001068A04206D10868122803D1586840F48B
:1052800080005860144C1068A0421CD10868102897
:1052900002D00868112816D1586840F40000586000
:1052A000086810280FD10D4800680D4CB0FBF4F0D1
:1052B00000EB80004000009002E00098401E00904B
:1052C00000980028F9D100BF002082F83C0000BF00
:1052D00000BF4BE700230140002001405C15002087
:1052E00040420F0070477047704770B50446002574
:1052F000002620680068C0F3400520684068C0F3BD
:10530000401695B38EB3206C00F0100018B9206CD5
:1053100040F4007020642068806800F04050E8B9D4
:10532000A069D8B92068C06A00F4700020B1206874
:10533000806800F4806088B92068406820F0200010
:1053400021684860206C20F480702064206C00F498
:10535000805018B9206C40F0010020642046FFF70F
:10536000C1FF6FF012002168086020680068C0F378
:10537000800520684068C0F3C016E5B3DEB3206C3A
:1053800000F0100018B9206C40F400502064206830
:10539000806800F4401038BB2068806B00F4401037
:1053A00020B12068806800F48060E8B92068406817
:1053B00000F48060C0B92068806800F0405098B95F
:1053C000A06988B92068406820F0800021684860A2
:1053D000206C20F480502064206C00F4807018B998
:1053E000206C40F0010020642046FFF7B3FE6FF010
:1053F0000C00216808602068006800F00105206842
:105400004068C0F3801685B17EB12068006800F066
:10541000010050B1206C40F480302064204600F040
:1054200053F86FF001002168086020680068C0F33D
:10543000401520684068C0F380667DB176B1606C2D
:1054400040F0020060646FF0200021680860204690
:10545000FFF74AFF6FF020002168086070BD000070
:1054600070B5044600250CB9012070BD1549A06A2D
:10547000884200D000BF206C30B90020606484F8FE
:105480003C00204600F022F8206C00F0100088B9A3
:10549000206C20F4885040F0020020642046FEF783
:1054A000D5FC00206064206C20F0020040F0010078
:1054B000206400E0012500BF002084F83C0000BF0C
:1054C0002846D2E70100000F7047000010B586B0F3
:1054D0000446142101A8FBF75DFB2D492068884292
:1054E00054D100BF002000902A48006840F480702A
:1054F000284908600846006800F48070009000BFEA
:1055000000BF00BF0020009022481438006840F01F
:1055100004002049143908600846006800F00400BF
:10552000009000BF00BF01200190032002900020E6
:10553000039001A9184801F06DF91848184908604E
:1055400000204860002116488160C1604FF48061EE
:10555000016149004161890081614911C1610021F6
:105560000162416200F0B0FF18B177210DA004F094
:105570008FF900BF0A48A063846300BF00220421A2
:10558000122001F0CFFA122001F0BFFA06B010BDD0
:1055900000200140443802400008024010640240EC
:1055A000741D00202E2E5C6D63755C73746D333238
:1055B000663478785F68616C5F6D73702E6300008D
:1055C000F8B504460D4616460020009000BF94F83A
:1055D0003C00012801D10220F8BD012084F83C00E4
:1055E00000BF2068806800F00100A0B920688068D2
:1055F00040F00100216888603C4800683C49B0FBED
:10560000F1F000EB4000009002E00098401E009096
:1056100000980028F9D12068806800F00100002877
:1056200062D0206C40F20161884340F480702064B5
:105630002068406800F4806028B1206C20F400509D
:1056400040F480502064206C00F4805020B1606CE5
:1056500020F00600606401E00020606400BF0020CC
:1056600084F83C0000BF234F2348A16BC863234844
:10567000A16B08642248A16BC8646FF02200216806
:1056800008602068406840F08060216848602068B9
:10569000806840F4807021688860226802F14C01C3
:1056A00033462A46A06B00F085FF786800F01F00A3
:1056B00058B92068806800F0405028B92068806898
:1056C00040F08040216888600EE00E4920688842E2
:1056D0000AD12068806800F0405028B920688068AE
:1056E00040F0804021688860002075E75C1500204C
:1056F00040420F0000230140A53D01082D3E010856
:10570000133E01080020014070B50446002500BF8B
:1057100094F83C00012801D1022070BD012084F8DA
:105720003C0000BF2068806820F00100216888608C
:105730002068806800F00100A8B92068806820F423
:10574000807021688860A06B00F030FD05462068FD
:10575000406820F0806021684860206C20F4885008
:1057600040F00100206400BF002084F83C0000BF2E
:105770002846D2E770B504460A460023157D01206D
:1057800000FA05F33C4901F50071086840F001009A
:105790000860086820F47C5008600868556A40EA90
:1057A00005200860C8699843C861A1F50071D069F7
:1057B000C8B9D1F80C029843C1F80C02908880B2A5
:1057C000958940EA054501F51070566940F8365054
:1057D000108880B2158940EA054501F510705669B8
:1057E00000EBC6004560D069012819D1D1F80C0240
:1057F0001843C1F80C02908880B2158840EA05452C
:1058000001F51070566940F83650908980B21589BC
:1058100040EA054501F51070566900EBC600456089
:10582000906928B9D1F804029843C1F8040204E051
:10583000D1F804021843C1F80402106920B9D1F864
:1058400014029843C1F814021069012804D1D1F858
:1058500014021843C1F81402106A012804D1D1F8C7
:105860001C021843C1F81C02D1F8000220F001000C
:10587000C1F80002002070BD0064004010B504466D
:10588000606C401C60640021204600F0DBFA28B107
:105890002068406940F00A002168486110BD00009E
:1058A0002DE9F0410446002500260027A84620687F
:1058B000C068C0F3001520684069C0F3C0062DB170
:1058C00026B148F4007810202168C860206800697B
:1058D000C0F3001520684069C0F380162DB126B1D1
:1058E00048F480681020216808612068406900F051
:1058F000010000283BD0206880687A49084088422F
:1059000001D1012000E0002005462068806876492A
:105910000840884201D1012000E0002006462068AE
:10592000806872490840884201D1012000E00020CF
:1059300007460DB906B9D7B120688068C0F34005A5
:1059400020688068C0F3402620688068C0F3404724
:105950000DB906B91FB12046FFF76DF801E048F414
:105960000068206880686249084321688860206870
:10597000C06800F0030520684069C0F3400625B107
:105980001EB100212046FEF775FF2068006900F077
:10599000030520684069C0F3001625B11EB101213E
:1059A0002046FEF767FF206C40EA0800206420686C
:1059B000806900F0010520684069C0F30026206876
:1059C0004069C0F3C0372DB126B11FB1206C40F043
:1059D0000100206420688069C0F3400520684069A8
:1059E000C0F3402620684069C0F3C0372DB126B10E
:1059F0001FB1206C40F00200206420688069C0F371
:105A0000800520684069C0F3802620684069C0F3A3
:105A1000C0372DB126B11FB1206C40F004002064C6
:105A20002068806900F0700008B9012000E00020C3
:105A3000054620684069C0F3C02620684069C0F36D
:105A4000C03795BB8EB387B32068806900F07005BE
:105A5000402D1BD006DC102D09D0202D0CD0302D70
:105A600024D10EE0502D16D0602D1FD118E0206CEF
:105A700040F0080020641AE0206C40F01000206420
:105A800015E0206C40F02000206410E0206C40F015
:105A9000400020640BE0206C40F08000206406E0B1
:105AA000206C40F48070206401E007E000BF00BF7C
:105AB0002068806920F0700021688861206C78B1CE
:105AC000042021684860012084F83C002068406977
:105AD00048F65B718843216848612046FFF7CEFE97
