:020000040800F2
:10000000D057012061030008A32900089F29000898
:10001000A129000825190008ED2F000800000000A4
:10002000000000000000000000000000A102000825
:10003000471C000800000000FD020008A529000878
:100040009B0300089B0300089B0300089B03000818
:100050009B0300089B0300089B0300089B03000808
:100060009B0300089B0300089B0300089B030008F8
:100070009B0300089B030008291900089B03000844
:100080009B030008BD1900089B0300089B030008A0
:100090009B0300089B0300089B0300089B030008C8
:1000A0009B0300089B0300089B0300089B030008B8
:1000B0009B0300089B0300089B0300089B030008A8
:1000C0009B0300089B0300089B0300089B03000898
:1000D0009B030008252E0008952E00085D2F0008C0
:1000E0009B0300089B0300089B0300089B03000878
:1000F0009B0300089B0300089B030008511A00089B
:100100009B0300089B0300089B0300089B03000857
:100110009B030008F12A0008CD290008F9290008EE
:100120009B0300089B0300089B0300089B03000837
:100130009B0300089B0300089B0300089B03000827
:100140009B0300089B0300089B0300089B03000817
:100150009B0300089B030008E51A0008A52F000870
:100160009B0300089B0300089B0300089B030008F7
:100170009B0300089B0300089B030008000000008D
:100180009B0300089B03000800F002F800F078F8D9
:100190000AA090E8000C82448344AAF10107DA45E2
:1001A00001D100F06DF8AFF2090EBAE80F0013F0BC
:1001B000010F18BFFB1A43F001031847BC9D000054
:1001C000DC9D00000A444FF0000C10F8013B13F0D6
:1001D000070408BF10F8014B1D1108BF10F8015BA0
:1001E000641E05D010F8016B641E01F8016BF9D193
:1001F00013F0080F1EBF10F8014BAD1C0C1B09D1EA
:100200006D1E58BF01F801CBFAD505E014F8016B5B
:1002100001F8016B6D1EF9D59142D6D370470000ED
:100220000023002400250026103A28BF78C1FBD8FF
:10023000520728BF30C148BF0B607047662906F0DF
:100240009B84642900F09481752900F091817829BC
:1002500000F0CA81632900F0EB85732900F0F08576
:10026000002070471FB506F082FC00F021FE04005C
:100270000020002106F0EEFBE0601FBD10B510BDB0
:1002800000F01AFF1146FFF7EDFF03F043FD00F009
:1002900038FF03B4FFF7F2FF03BC02F0D7FE000003
:1002A0002C4B19680868B0E8F04F80F30988BFF359
:1002B0006F8F4FF0000080F311887047000000003E
:1002C00008480068006880F308884FF0000080F359
:1002D000148862B661B6BFF34F8FBFF36F8F00DF34
:1002E00000BF00BF08ED00E0DFF80C00016841F43A
:1002F00070010160704700BF88ED00E0EFF30980F6
:10030000BFF36F8F134B1A681EF0100F08BF20ED5C
:10031000108A20E9F04F106009B44FF0500080F3CC
:100320001188BFF34F8FBFF36F8F05F053FC4FF071
:10033000000080F3118809BC19680868B0E8F04F24
:100340001EF0100F08BFB0EC108A80F30988BFF3CD
:100350006F8F7047AC010020EFF3058070470000FD
:10036000DFF84400016841F470010160BFF34F8F72
:10037000DFF83800016821F040410160BFF36F8F62
:100380000B4880470B480047FEE7FEE7FEE7FEE725
:10039000FEE7FEE7FEE7FEE7FEE7FEE70648074961
:1003A000074A084B7047000088ED00E034EF00E09A
:1003B000BD29000889010008D04B0120D057012039
:1003C000D04F0120D04F0120704753EA020C00F0BB
:1003D00069802DE9F04B4FF00006002B1FBFB3FAE8
:1003E00083F503FA05F424FA05F65E4012BF1643BE
:1003F000B2FA82F502FA05F4C5F120051EBF22FA11
:1004000005FC44EA0C04203556EA044C4FEA144437
:1004100018BF641C4FF000084FF00009904271EBC8
:10042000030C39D3002919BFB1FA81F701FA07F695
:10043000B0FA80F700FA07F6C7F120071EBF20FACE
:1004400007FC46EA0C062037B6FBF4FCA7EB0507D1
:10045000103F07F01F0BCBF120060CFA0BFB2CFA18
:1004600006F644BFB3460026202FA4BF5E464FF0D9
:10047000000B5BEA060C08BF4FF0010B19EB0B09F0
:10048000ABFB027C48EB0608C01B06FB02CC0BFB57
:1004900003CC71EB0C01C1E70B46024641464846CE
:1004A000BDE8F08B13B54FF000004FF00001AFF343
:1004B0000080BDE81C4070470FB4044910B503AA82
:1004C000029800F0C1FC10BC5DF814FB3000002065
:1004D00070B5044685690068C10601D5302600E084
:1004E0002026C00707D070BDD4E9012130469047CF
:1004F000206A401C20626D1EF6D570BD70B50446A2
:1005000085690078C00707D170BDD4E9012120209A
:100510009047206A401C20626D1EF6D570BD70B5F4
:100520000C460546012A05D02878800600D5EA69E0
:10053000002302E0012305E05B1C934202D2E05C51
:100540000028F9D1A869E618C01AA861286A1844D9
:1005500028622846FFF7BCFF04E0D5E9012114F822
:10056000010B9047B442F8D32846FFF7C7FF70BD90
:100570002DE9F0410646002410687529314616A57C
:1005800010D0AFF30080002802DA404213A507E044
:1005900031688A0701D512A502E0490704D511A5E3
:1005A000012401E0AFF3008000210A2206F12407B4
:1005B00009E0B0FBF2FCB0FBF2F302FB1C003030B0
:1005C00078541846491C0028F3D123462A46304661
:1005D000BDE8F04100F0A2B9000000002D000000CD
:1005E0002B0000002000000070B504460D46214697
:1005F0001068AFF300802188090502D50F4A7A44BC
:1006000002E00E4A7A440E32002104F1240305E090
:1006100000F00F060009965D5E54491C0028F7D1D2
:1006200020780023000704D5702D02D009B10223E1
:1006300011322046BDE8704000F070B91A950000F4
:100640002DE9F05F894604464FF0000ADFF874B1E7
:10065000FB44C0F820A02046E1688847002874D0F9
:10066000252806D0D4E901219047206A401C206249
:10067000F1E700265F462046E168884720280546C6
:1006800007DB312D05D2781910F8200C08B106438C
:10069000F1E7B00701D526F00406C4F81CA0002736
:1006A000C4F818A02A2D09D0284602F0C8FC38B397
:1006B00004EB8708303DC8F8185019E059F8041BBE
:1006C000204604EB87029161E1688847012F0546C7
:1006D00018D1E069002820DA26F020061DE0D8F8BD
:1006E000180000EB800005EB40003038C8F8180017
:1006F0002046E1688847054602F0A1FC0028EED1BB
:10070000012F0AD02E2D08D12046E16888477F1C92
:100710000546022F46F02006C4DBA069002803DA54
:10072000404246F00106A061F00701D026F0100615
:100730006C2D0BD0682D09D04C2D39D06A2D35D0B9
:10074000742D35D07A2D33D016E038E0E1682F468D
:1007500020468847B842054609D16C2F26D04FF471
:100760008060E168064320468847054604E06C2F18
:100770001AD04FF4807006430DB3A5F1410019283B
:1007800002D8203546F400664A46294620462660AF
:100790004E46FFF753FD80B101280BD0F61D26F021
:1007A000070000F1080956E74020E4E78020D8E779
:1007B0000020D6E706F104094DE7284652E7206AF3
:1007C000BDE8F09FF0940000032A40F2308010F062
:1007D000030C00F0158011F8013BBCF1020F6244DC
:1007E00098BF11F801CB00F8013B38BF11F8013B6D
:1007F000A2F1040298BF00F801CB38BF00F8013B1A
:1008000011F0030300F02580083AC0F0088051F889
:10081000043B083A51F804CBA0E80810F5E7121D94
:100820005CBF51F8043B40F8043BAFF30080D207B3
:1008300024BF11F8013B11F801CB48BF11F8012B7F
:1008400024BF00F8013B00F801CB48BF00F8012BA2
:10085000704710B5203AC0F00B80B1E81850203A2C
:10086000A0E81850B1E81850A0E81850BFF4F5AF50
:100870005FEA027C24BFB1E81850A0E8185044BFDA
:1008800018C918C0BDE810405FEA827C24BF51F847
:10089000043B40F8043B08BF7047D20728BF31F83B
:1008A000023B48BF11F8012B28BF20F8023B48BF8C
:1008B00000F8012B704702F0FF0343EA032242EAEB
:1008C000024200F0D5BA4FF0000200B5134694463C
:1008D0009646203922BFA0E80C50A0E80C50B1F198
:1008E0002001BFF4F7AF090728BFA0E80C5048BFAC
:1008F0000CC05DF804EB890028BF40F8042B08BF4A
:10090000704748BF20F8022B11F0804F18BF00F845
:10091000012B704770477047704770472DE9F047CB
:100920000D4699469246044600F12408016888065F
:1009300004D5E06921F01001216000E00120A84207
:1009400001DD471B00E00027A1697A1902EB0900CD
:10095000081AA0612078C00602D42046FFF7B8FD2F
:10096000002608E0D4E901211AF806009047206A21
:10097000401C761C20624E45F4DB2078C0060AD568
:100980002046FFF7A5FD06E0D4E90121302090477D
:10099000206A401C2062381EA7F10107F4DC07E042
:1009A000D4E9012118F805009047206A401C206214
:1009B000281EA5F10105F3DC2046FFF79FFD2078F6
:1009C000000602D50220BDE8F0870120FBE7704752
:1009D0002DE9FF4F0C461E464FF0FF378BB0D2E992
:1009E0000001DDF860800A908A46C1F30A5505B916
:1009F0003D46002108464FF00000BAF1000F00F418
:100A0000400005DA00EB80004FF4400101EA50009D
:100A10004FEA9059B9F1010F00DDB9460A9850EA42
:100A20004A000ED044F61050A5F2FF3545432F146E
:100A3000B8F1000F1ED07542291E1EDDC9F100025B
:100A40001CE0B8F1010F4FF0000001D0302103E0AD
:100A5000F24305E02154401CB042FBDB304600224B
:100A6000002121540B99C1F80880C1E900200FB082
:100A7000BDE8F08FBD1B6D1CDEE74A4600DA694217
:100A800006A800F09FFA06AB93E8070003AB83E8E3
:100A9000070050460A9900F07DFB8DE80700A0F59D
:100AA00000501F3800900398002D0ADD42F21F010C
:100AB0004A460844002303A90390684600F0E6FD77
:100AC00009E0A0F500504A461F38002303A903900F
:100AD000684600F0F0FD8DE807000004000C03D02C
:100AE0004FF0FF30410800E01046B8F1000F03D08E
:100AF0000022009215461EE0751E05D400F0DCF9B8
:100B0000303262556D1EF9D5B3460122084302D03A
:100B100000227F1C04E02078302801D100227F1EB3
:100B2000002A099784D01DE0112D07DA00F0C4F9DE
:100B3000303262556D1C50EA0102F5D1084302D0F3
:100B40000098C8B10EE00021681E05E0235C625CDD
:100B500063542254401E491C8142F7DBAB46A81B5C
:100B6000401E0990002004F80B000B98099AC0F869
:100B70000880C0E9002B7AE711264FF0000857E7FC
:100B80002DE9F04F88460446D21D22F0070191B0AE
:100B9000D1E90001CDE90A0102F029FA02460B98D9
:100BA000C00F01D02D2007E02068810701D52B2040
:100BB00002E0202101EAC000032A099001D0072A9F
:100BC00005DB03464146204600F0BCF90BE12078E6
:100BD000800601D5E06900E00620B8F1650F814686
:100BE00006D0B8F1660F18D0B8F1670F70D131E0B8
:100BF0000020B9F1110F009001DB112301E009F190
:100C000001030AAA01A90CA8FFF7E2FEDDE90C70B6
:100C1000002609F10105834647E001204B4600907C
:100C20004FF000470AAA01A90CA8FFF7D1FEDDE9A1
:100C30000DB00C995D46002610B909F101000D18A0
:100C4000B9EB050003D4C0F1FF3609F10105A5EBAE
:100C500009002BE0B9F1010F01DA4FF00109002082
:100C6000B9F1110F0090484601DD112300E0034661
:100C70000AAA01A90CA8FFF7ABFEDDE90C704D46EE
:100C800000268346207800070AD4AB4500DA5D468B
:100C900001A8012D04DD411911F8011C302907D0EC
:100CA0004F4502DA17F1040F04DA012082460FE003
:100CB0006D1EEEE7002F02DCED1B3E4403E0781CC6
:100CC000A84200DD7D1CB81B00F1010A4FF000476F
:100CD0002078000703D4AA4501DB4FF0FF3A00213A
:100CE000B7F1004F0DF143088DF8431024D00220D6
:100CF0002B23002F01DA7F422D230A21021EA0F1AF
:100D0000010000DC5FB197FBF1FC97FBF1F201FB06
:100D10001C7C17460CF1300C08F801CDEEE7A8F169
:100D2000010003702188090501D5452100E06521F6
:100D3000A0F1010800F8011C09980FA9A1EB080710
:100D4000FF1D00B10120411901EBEA70A16938448F
:100D5000081A401EA0612078C00602D42046FFF782
:100D6000B7FB099828B1D4E901219047206A401CBB
:100D700020622078C00622D52046FFF7A9FB1EE09E
:100D8000002E04DBB34502DD01A8805D00E03020C9
:100D9000D4E901219047206A401C2062761CAAF108
:100DA00001005FEA000A0AD100F082F8C068016819
:100DB000405CD4E901219047206A401C2062281E33
:100DC000A5F10105DCDC07E0D4E9012118F8010BED
:100DD0009047206A401C2062381EA7F10107F3DC0F
:100DE0002046FFF78BFB032011B041E601694A1C46
:100DF00002610878704700B58FB0CDE9013100215C
:100E0000059105497944CDE9031011466846FFF77D
:100E100017FC0FB000BD0000E5FFFFFF10B54369F0
:100E200013B1AFF3008001E0FFF779FB012010BDA3
:100E3000127800F124010A7000224A700122EDE7C5
:100E400011684FF0FF32E9E7074B70B50D467B4460
:100E5000FFF7D1FF0446284600F026F910B14FF005
:100E6000FF3070BD204670BDA32400004FF000028B
:100E70000429C0F0128010F0030C3FF426ADCCF131
:100E8000040CBCF1020F18BF00F8012BA8BF20F81A
:100E9000022BA1EB0C01FFF718BD5FEAC17C24BF58
:100EA00000F8012B00F8012B48BF00F8012B704718
:100EB00000487047904B012030B5B0F10A024FEA6C
:100EC000900E71F100034EEA817EB0EB0E0061EBF3
:100ED00091014FEA101E4EEA017E10EB0E0041EB2D
:100EE00011114FEA102E4EEA016E10EB0E0041EB8D
:100EF00011214FEA104E4EEA014E10EB0E0041EB6D
:100F00001141401841F100014FEAD00040EA417020
:100F10004FEAD10110EB80054FEA810444EA907456
:100F200044EB01046D1944EB0404521BA3414FF040
:100F3000000348BF0A3200D530BD401C41F100011A
:100F400030BD00002DE9F0411F460446032601682C
:100F5000072A01F4006004DB08B116A505E016A518
:100F600003E008B115A500E015A521F010002060F0
:100F7000A069C01EA0610FB1401EA0612046FFF70E
:100F8000A7FA4FB1D4E9012138469047206A401CA6
:100F90002062C01C206206E0206AFAE7D4E9012141
:100FA00015F8010B9047761EF8D22046FFF7A6FAF7
:100FB000BDE8F0814E414E006E616E00494E460024
:100FC000696E66002DE9F047814616468AB03548BD
:100FD00078440DC88DE80D0032487844801C03AC7D
:100FE0000DC884E80D0041F69B300844372190FB82
:100FF000F1F290FBF1F5A5F1800501FB12041B3C19
:1010000002D56442012000E00020DFF898A080466D
:101010000027FA44AAF1BE0A0EE0E0070AD03246E1
:10102000684607EB470101230AEB810100F043FB0F
:101030008DE8070064107F1C002CEED1194F7F440F
:10104000AE3F19E0E80715D007EB04100DF1180AC0
:1010500090E80E008AE80E00C068F04201D19819AD
:1010600008903246012306A903A800F024FB03AB35
:1010700083E807006D10641C002DE3D14FF00103DD
:1010800032466946B8F1000F03A802D000F0FEFA1C
:1010900001E000F010FBC9E90001C9F808200AB01E
:1010A000BDE8F087008C0000007B00F080007047F6
:1010B00000487047704B01207546FFF7F9FFAE46B8
:1010C00005006946534620F00700854618B020B554
:1010D000FFF764F9BDE820404FF000064FF000072D
:1010E0004FF000084FF0000B21F00701AC46ACE8D0
:1010F000C009ACE8C009ACE8C009ACE8C0098D463D
:10110000704710B50446AFF300802046BDE810409C
:10111000FFF7BFB84FF0013C50F8042B51F8043BE7
:101120009A4221D1A2EB0C03934313EACC1317D1BB
:1011300050F8042B51F8043B9A4215D1A2EB0C0352
:10114000934313EACC130BD150F8042B51F8043B12
:101150009A4209D1A2EB0C03934313EACC13DBD0E0
:101160004FF00000704700BFD01A01BAB1FA81F108
:1011700001F0180122FA01F0CB40C1F12001DBB2ED
:10118000C0B2C01A2CFA01F3D11A914311EAC3116B
:10119000E6D170475FEA400C08BF91F0000F4FEABC
:1011A0008C234FEAC12243EA51514FEA1C5018BF29
:1011B00000F5F0404FEA300018BF41F000415FEA0F
:1011C0006C5C00F02980BCF1FF3F08BF40F080401C
:1011D0007047130C06BF12044FF0100C4FF0000CB8
:1011E000130E04BF12020CF1080C130F04BF1201FE
:1011F0000CF1040C930F04BF92000CF1020CD30FFE
:1012000004BF52000CF1010C11464FF00002A0F196
:101210001F00A0EB0C00704711F0004F08BF704793
:1012200031F000413FF4D5AF0B0C06BF09044FF07D
:10123000100C4FF0000C0B0E04BF09020CF1080C4F
:101240000B0F04BF09010CF1040C8B0F04BF8900C4
:101250000CF1020CCB0F04BF49000CF1010CCCF1D6
:101260002003A0EB0C0022FA03F302FA0CF241EA8D
:10127000030100F10100704720F07F4C80EA030079
:1012800023F07F47ACEB070303F57C5300F00040ED
:1012900003F1FF032DE980494FEA154B09B44FEAEA
:1012A000144325EA0B4E24EA03480FF2042606EB0A
:1012B000132749083E785FEA320203FB0667C7F549
:1012C000000707FB06F64FEA54374FEAD64606F109
:1012D000020607FB066CCCF1005C4FEA1C472CEAC7
:1012E000074C07FB06F40CFB06F504EB15464FEA2A
:1012F000961634BF00204FF000404FEAD13706FB6E
:1013000007FC4FEA1C4C0CFB0BF7D21B03FB0CF742
:1013100061EB07010CFB0EF7B0EB074072EB1742D5
:101320000CFB08F734BFA2EB0742B2EB074261EBBC
:1013300017414FEA0C444FEA910706FB07FC4FEABE
:101340001C4C0CFB0BF7B0EBC74072EB573203FBA6
:101350000CF734BFA2EBC742B2EBC74261EB573187
:101360000CFB0EF7B0EBC70072EB57720CFB08F7E3
:1013700034BFA2EBC702B2EBC70261EB5771039F08
:101380004FEA816141EA921104EBCC044FEAD13774
:101390004FEA826206FB07FC42EA90124FEA806045
:1013A0004FEA1C4C0CFB0BF7D21B03FB0CF761EB59
:1013B00007010CFB0EF7B0EB074072EB17420CFB7A
:1013C00008F734BFA2EB0742B2EB074261EB1741CB
:1013D0004FEA8C554FEA910704EB9C2406FB07FC6F
:1013E0004FEA1C4C0CFB0BF7B0EBC74072EB5732CB
:1013F00003FB0CF734BFA2EBC742B2EBC74261EB71
:1014000057310CFB0EF7B0EBC70072EB57720CFBB9
:1014100008F734BFA2EBC702B2EBC70261EB57710A
:1014200015EB4C254FEA816141EA92114FEA826245
:101430004FEAD13742EA901206FB07FC44F1000460
:101440004FEA80604FEA1C4C0CFB0BF7D21B03FBEE
:101450000CF761EB07010CFB0EF7B0EB074072EBEA
:1014600017420CFB08F734BFA2EB0742B2EB07426E
:1014700061EB174115EB1C154FEA813141EA9241AE
:101480004FEA823242EA90424FEA80304FEA0C76CD
:1014900044F1000448EA03434EEA0B484FF0000EC3
:1014A000B2EB080C71EB030724BF624639464EEBE2
:1014B0000E0E4FF0000B0018524149414BEB0B0B45
:1014C000B2EB080C71EB03077BF1000B24BF624603
:1014D00039464EEB0E0E4FF0000B001852414941B9
:1014E0004BEB0B0BB2EB080C71EB03077BF1000B22
:1014F00024BF624639464EEB0E0E51EA020718BF72
:1015000046F0010616EB0E7655F1000254F100018B
:1015100003D5BDE88901BDE80088BDE88901BDE8C3
:101520000048B619524141EB0101A3F10103704794
:1015300080807F7E7D7C7B7A797877767675747310
:10154000727171706F6E6E6D6C6C6B6A6A696868CF
:10155000676666656464636362616160605F5F5E65
:101560005E5D5D5C5C5B5B5A5A59595858575756DB
:101570005655555554545353525252515150505040
:101580004F4F4F4E4E4D4D4D4C4C4C4B4B4B4A4A92
:101590004A494949484848474747474646464545D6
:1015A000454444444443434343424242424141410F
:1015B000002B9C4630D477002BD01CB54FEA370760
:1015C00003B44FF010004FF01001BAF1000F06D035
:1015D000BCF1000FDCBF40F0080040F008014FF004
:1015E00000000FBCBDE810400BF1010BBBF1010F77
:1015F00008BF5FEA170722BF12F1010211F10101D2
:101600004FF0004143F1000300F0004043EA0000C6
:101610007047F9D35708D0E746EA064613F1400F62
:101620004FEA16461FDD13F1200FDFBF16430A46AF
:10163000002120335B42BED0C3F1200746EA0646B4
:1016400002FA07F74FEA164646EA0706C3F12007F3
:1016500022FA03F201FA07F721FA03F14FF000032F
:1016600042EA0702A7E746EA020646EA06464FEACA
:10167000164646EA0106BCBF46EA0646360C4FF05F
:1016800000034FF000024FF0000194E72DE9804C79
:101690009A46934670B491E8380007C831EA400C86
:1016A00048BF34EA430C03D5FFF7E6FDFFF780FFA0
:1016B000F0BCBDE8008C2DE9804C9A46934670B48E
:1016C00091E8380007C810F0804F08BF13F0804F32
:1016D00003D100F005F8FFF76BFFF0BCBDE8008C0C
:1016E00020F07F4780EA030023F07F4C07EB0C03D8
:1016F000A3F57C5300F00040A3F1FE0392F0000F2D
:1017000000F0B38095F0000F00F077802DE90149DB
:101710004FEA11404FEA144621EA004800FB06FC5C
:1017200024EA064708FB06F607FB08F800FB07F764
:1017300018EB06484CEB164C4FEA124B18EB0748D7
:101740004FEA15464CEB174022EA0B4E0BFB06FC0A
:1017500025EA06470EFB06F607FB0EFE0BFB07F716
:101760001EEB064E4CEB164C4FF000061EEB074EE0
:101770004CEB174B18EB0B0840F1000018EB0E0B6D
:1017800058EB000840F100008F1A4FF000013CBFF9
:10179000C943661B14BFB5EB040C00213CBFC94311
:1017A000F61B4FEA17444EEA8E0E27EA04454FEA2D
:1017B0001C4704FB07622CEA074C05FB07F70CFBF0
:1017C00005F604FB0CFC16EB074642EB174216EB42
:1017D0000C4642EB1C421BEB060658EB0202414151
:1017E00046EA9E0601D5BDE80189B619524141EB92
:1017F0000101A3F10103BDE801894FEA14454FEA55
:10180000114724EA054621EA074C05FB07F406FBCD
:1018100007F70CFB06F105FB0CFC11EB074144EB51
:1018200017444FEA124711EB0C4144EB1C4422EAE7
:10183000074C05FB07F206FB07F70CFB06F605FB5A
:101840000CFC16EB074642EB174216EB0C4642EB3C
:101850001C456A1854F1000148BF7047B61952413F
:1018600041EB0101A3F10103704795F0000F37D060
:101870004FEA11424FEA144721EA024624EA074C94
:1018800002FB07F106FB07F70CFB06F402FB0CFC5E
:1018900014EB074441EB17414FEA154714EB0C4496
:1018A00041EB1C4125EA074C02FB07F506FB07F755
:1018B0000CFB06F602FB0CFC16EB074645EB174546
:1018C00016EB0C4645EB1C42121951F1000148BFC2
:1018D0007047B619524141EB0101A3F10103704772
:1018E0004FEA14454FEA114724EA054621EA074C1E
:1018F00005FB07F106FB07F70CFB06F24FF00006AD
:1019000005FB0CFC12EB074241EB174112EB0C42BA
:1019100051EB1C4148BF7047921841EB0101A3F104
:1019200001037047FEE7000030B42048214D214AF2
:1019300000681F4C1F4B603DB83AA04205D91C49B6
:101940005439096801F0006110E0984205D918493E
:101950005839096801F0006108E0A84203D95168CC
:1019600001F0006102E0116801F0006100291BD064
:101970004FF00061A04203D90D484C3801600AE0E5
:10198000984203D90A485038016004E0A84201D9BE
:10199000D16000E0916008496FF04000096808607C
:1019A00030BC054800F01DBF30BC7047D404002097
:1019B00058640240B8600240C007002030B420489C
:1019C000214D214A00681F4C1F4B603DB83AA04290
:1019D00005D91C495439096801F4001110E09842F6
:1019E00005D918495839096801F4001108E0A842DE
:1019F00003D9516801F4001102E0116801F40011EB
:101A000000291BD04FF40011A04203D90D484C38D7
:101A100001600AE0984203D90A485038016004E0A6
:101A2000A84201D9D16000E0916008496FF0400000
:101A30000968086030BC054800F0D3BE30BC704770
:101A40007404002058640240B8600240FC06002084
:101A500030B42048214D214A00681F4C1F4B603D87
:101A6000B83AA04205D91C495439096801F000610F
:101A700010E0984205D918495839096801F0006109
:101A800008E0A84203D9516801F0006102E0116842
:101A900001F0006100291BD04FF00061A04203D982
:101AA0000D484C3801600AE0984203D90A48503882
:101AB000016004E0A84201D9D16000E091600849CA
:101AC0006FF040000968086030BC054800F089BE2E
:101AD00030BC70473405002058640240B8600240B2
:101AE000F405002030B42048214D214A00681F4CE5
:101AF0001F4B603DB83AA04205D91C4954390968CA
:101B000001F0006110E0984205D918495839096878
:101B100001F0006108E0A84203D9516801F00061BA
:101B200002E0116801F0006100291BD04FF0006154
:101B3000A04203D90D484C3801600AE0984203D90D
:101B40000A485038016004E0A84201D9D16000E0A1
:101B5000916008496FF040000968086030BC054892
:101B600000F03FBE30BC704794050020586402402E
:101B7000B8600240780600200168CAB2103A182303
:101B8000B2FBF3F2064B9B5CC3656FF30901032ABA
:101B900002D9091D816500E08165806D70470000F4
:101BA000946B000810B5014600208A6A8B694FF0DB
:101BB000C074002B0ED0B3F5005F1AD062B3012AB7
:101BC0002AD0022A28D0032A03D1C96AC90100D524
:101BD000012010BD1AB1012A06D0022AF9D1C96A22
:101BE000C901F6D5012010BDC96AA142FBD101206F
:101BF00010BD52B1012A0AD0022A06D0032AF7D119
:101C0000C96AA142F4D1012010BD012010BDC96AEA
:101C1000C901FBD5012010BD012010BD30B50468FD
:101C2000256825F480252560046863608368402B5F
:101C300004D0036899600068C26030BD03689A6090
:101C40000068C16030BD70472DE9F0410446A76DC2
:101C500000F0D2F9054694F835000026022806D097
:101C60008020606584F834600120BDE8F081206840
:101C7000016821F0160101602068416921F08001AE
:101C80004161206C08B9A06C20B12068016821F086
:101C9000080101602068016821F0010101600BE08A
:101CA00000F0AAF9401B052806D920203434206210
:101CB000267003206070D8E720680068C007EFD165
:101CC00034343F2094F828108840B86026700120F2
:101CD00060700020C9E700002DE9F041044600F0E3
:101CE0008BF905465CB1002684F83460022084F844
:101CF00035002068016821F0010101600DE001203C
:101D0000BDE8F08100F078F9401B052805D92020B6
:101D10006065032084F83500F2E720680068C0079A
:101D2000F0D121680A6820480240D4E90103184331
:101D3000D4E903352B43184363691843A369184357
:101D4000E3691843236A18431043626A042A03D1E3
:101D5000D4E90B231A43104308602068406920F03F
:101D60000700656A29460543012704290DD1A06AA9
:101D70000543E06A48B12046FFF714FF28B1402030
:101D8000606584F835700120BAE720684561204617
:101D9000FFF7F2FE94F85C203F2191408160666578
:101DA00084F835700020ABE73F8010F02DE9F0415A
:101DB00004460025A66D94F8340001280DD00120BA
:101DC00084F8340094F835700020012F07D084F88F
:101DD000340002252846BDE8F0810220FBE70227F7
:101DE00084F8357060652046FFF718FF94F85C10A2
:101DF0003F208840B0602068016841F01601016012
:101E0000206C20B12068016841F008010160206861
:101E1000016841F001010160DCE700002DE9F84FA5
:101E20000022DFF89C914FF0010809F1040A032712
:101E30004FF00F0C0AF1040B08FA02F50B682B4067
:101E4000AB4272D10C7904F00304012C01D0022CB6
:101E500015D18668540007FA04FE26EA0E06D1F86A
:101E60000CE00EFA04FE4EEA060EC0F808E04468E4
:101E7000AC430D79C5F300159540254345600C79B9
:101E8000E443A40708D0C568540007FA04F6B54334
:101E90008E68A6402E43C6600C7904F00304022C21
:101EA00011D1D40800EB8406356A5407E40E0CFA0D
:101EB00004FE25EA0E05D1F810E00EFA04FE4EEA03
:101EC000050EC6F820E00568540007FA04F6B5438D
:101ED0000E7906F00306A6402E4306604C68E40027
:101EE00067D5384C256845F480452560246804F49E
:101EF00080440094344C22F003052E19D6F808587B
:101F000094074FEA147E0CFA0EF4A5432F4CA0421E
:101F100001D1002424E02E4CA04201D101241FE075
:101F20002C4CA04202D102241AE042E02A4CA042EA
:101F300001D1032414E0294CA04201D104240FE074
:101F4000274CA04201D105240AE0264CA04201D131
:101F5000062405E0244CA04201D1072400E0082417
:101F600004FA0EF42C43C6F80848D9F800409C4304
:101F70004D68ED0300D51C43C9F80040DAF8004075
:101F80009C434D68AD0300D51C43CAF80040DBF804
:101F900000409C434D68ED0200D51C43CBF8004047
:101FA000074D0C352C689C434E68B60200D51C4387
:101FB0002C60521C102AFFF43FAFBDE8F88F0000E0
:101FC000003C014044380240003001400000024023
:101FD0000004024000080240000C024000100240D1
:101FE0000014024000180240001C02400148006832
:101FF000000C7047002004E0014880687047000032
:1020000034000020024881680278114481607047E2
:102010003400002010B50948016841F400710160E6
:10202000016841F480610160032000F059F80F203D
:1020300000F006F800F026F8002010BD003C024039
:1020400070B504460D4D4FF47A712878B1FBF0F06D
:102050000B490968B1FBF0F000F042FB08B1012028
:1020600070BD102C07D200222146501E00F018F837
:102070006C60002070BD012070BD000034000020A5
:10208000000000207047002809DB00F01F0201213A
:1020900091404009800000F1E020C0F80011704735
:1020A000F0B40D460D4B1B68C3F30223C3F10704C4
:1020B000042C00D90424191D072901D2002300E0B3
:1020C000DB1E012606FA04F1491E294099409E4074
:1020D000761E16403143F0BC00F0A1BF0CED00E0CD
:1020E00000F00701054A10684FF6FF03184040EA68
:1020F0000120034908431060704700000CED00E028
:102100000000FA052DE9F04704460D46002C13D0D7
:10211000DFF82891D9F80000EFB200F00700A842DC
:102120000CD289F80070D9F8000000F00700A8422E
:1021300004D00120BDE8F0870120FBE72068404E75
:10214000810712D5400703D5306840F4E050306075
:102150002078000703D5306840F460403060306874
:10216000A16820F0F000084330602078C00731D02B
:10217000334960680839012808D002280BD00328A9
:1021800009D0096889070BD40120D3E709688903BE
:1021900006D40120CEE70968890101D40120C9E7EE
:1021A000316821F0030101433160FFF725FF8046CC
:1021B00041F2883A07E0FFF71FFFA0EB0800504507
:1021C00001D90320B6E73068616800F00C00B0EB7D
:1021D000810FF0D1D9F8000000F00700A84209D91A
:1021E00089F80070D9F8000000F00700A84201D07B
:1021F00001209FE72078400705D53068E16820F48A
:10220000E050084330602078000706D53068216927
:1022100020F4604040EAC100306000F03FF83168CF
:10222000084AC1F30311515CC840074908600748D8
:102230000068FFF705FF00207CE70000003C02403B
:10224000083802407C6B00080000002038000020A5
:1022500001480068704700000000002000B5FFF74B
:10226000F7FF04490968044AC1F38221515CC84060
:1022700000BD0000083802408C6B000800B5FFF775
:10228000E7FF04490968044AC1F34231515CC84080
:1022900000BD0000083802408C6B000810B51748DC
:1022A000006810F00C01164816D04310042912D013
:1022B000082911D1114C241F216801F03F02216827
:1022C00049020AD52068C0F38810A0FB030100234F
:1022D000FEF77BF809E0184610BD21680023C1F322
:1022E0008811A1FB0001FEF770F82168C1F30141DC
:1022F000491C4900B0FBF1F010BD00000838024055
:102300000024F4002DE9F84F0446002C13D0207867
:10231000DFF8A083C007A8F1040556D008F1040037
:102320000168C1F3810101290CD00068C0F381006C
:10233000022803D00DE00120BDE8F88FD8F8000096
:10234000400206D5286880033FD5606870BB012035
:10235000F2E76068B0F5803F10D0B0F5A02F12D042
:10236000286820F480302860286820F480202860C5
:102370006068E0B1FFF740FE064614E0286840F4CC
:1023800080302860F4E7286840F4802028602868BE
:1023900040F480302860EBE7FFF72EFE801B6428B6
:1023A00001D90320C8E728688003F5D50DE0FFF7C1
:1023B00023FE064606E0FFF71FFE801B642801D9B6
:1023C0000320B9E728688003F5D42078BA4F800746
:1023D0004FF0000948D5B748001D016811F00C0FF7
:1023E00008D00068C0F38100022813D1D8F800009B
:1023F00040020FD42868800704D5E068012801D086
:10240000012099E72868216920F0F80040EAC1001E
:10241000286029E0E068B8B101203860FFF7ECFDE2
:10242000064606E0FFF7E8FD801B022801D90320DD
:1024300082E728688007F5D52868216920F0F80030
:1024400040EAC10028600FE0C7F80090FFF7D4FD14
:10245000064606E0FFF7D0FD801B022801D90320C5
:102460006AE728688007F5D42078000729D5DFF8C7
:1024700044A2924861690AF1700A89B101210160A0
:10248000FFF7BAFD064606E0FFF7B6FD801B0228FF
:1024900001D9032050E7DAF800008007F4D510E0F6
:1024A000C0F80090FFF7A8FD064606E0FFF7A4FD80
:1024B000801B022801D903203EE7DAF800008007DC
:1024C000F4D42078400778D54FF0000A79483C30A2
:1024D0000068C0000BD477483C30016841F080515F
:1024E0000160006800F0805000904FF0010ADFF8B2
:1024F000D0B1DBF80000C00514D4DBF8000040F4D4
:102500008070CBF80000FFF777FD064606E0FFF786
:1025100073FD801B022801D903200DE7DBF80000C2
:10252000C005F4D5634EA0686C3601280FD005288D
:1025300012D0306820F001003060306820F00400D4
:102540003060A068F8B1FFF757FD834617E03068A8
:1025500040F001003060F4E7306840F00400306083
:10256000306840F001003060EBE7FFF745FDA0EB7D
:102570000B0141F28830814201D90320DCE630684A
:102580008007F2D510E0FFF737FD834609E0FFF73B
:1025900033FDA0EB0B0141F28830814201D90320C9
:1025A000CAE630688007F2D4BAF1010F05D141487C
:1025B0003C30016821F080510160A069C0B33D4901
:1025C000091D09684FF0FF36C1F38101022946D089
:1025D000022805D0C7F86090FFF70EFD04463AE0E8
:1025E000C7F86090FFF708FD814607E0FFF704FD9C
:1025F000A0EB0900022801D903209DE6286880018C
:10260000F4D4D4E907010843616AA26A890106EBA0
:10261000520241EA0241084394F82C1040EA01605A
:10262000C8F8000001203866FFF7E6FC044607E022
:102630003DE0FFF7E1FC001B022801D903207BE607
:1026400028688001F5D532E0FFF7D6FC001B022890
:1026500001D9032070E628688001F5D427E001281D
:1026600023D0D8F80000E26900F4800191421AD129
:10267000226A00F03F01914215D147F6C071626AAB
:102680000140B1EB821F0ED1A26A00F4403106EB8B
:102690005202B1EB024F06D194F82C1000F070609A
:1026A000B0EB016F03D0012046E6012044E6002094
:1026B00042E600000438024000004742800E4742D4
:1026C000007000404FF0E021042804D0086920F099
:1026D000040008617047086940F004000861704711
:1026E00010B5401EB0F1807F01D3012010BD4FF026
:1026F000E02460610F21601700F091FC0020A061D0
:1027000007202061002010BD10B50446002C03D026
:1027100094F83D0010B107E0012010BD002084F8BE
:102720003C00204600F015F8022084F83D00211DF1
:10273000206800F077F901203D3460726070A0706D
:10274000E07020716071A071E07120722070002033
:1027500010BD704790F83D10012901D0012070474D
:10276000022180F83D100168CA6842F00102CA6087
:1027700000681449884214D0B0F1804F11D012493A
:1027800088420ED0114988420BD01149884208D0A6
:102790001049884205D01049884202D00F4988422A
:1027A00009D1816801F00701062908D0016841F0CC
:1027B0000101016003E0016841F0010101600020B6
:1027C0007047000000000140000400400008004085
:1027D000000C00400004014000400140001800408F
:1027E000704710B5044620684169C1F3C01194F8E0
:1027F0003D20212A0BD151B1416921F08001416175
:10280000606B08B1FFF720FA204600F00CFA206850
:102810004169C1F3801194F83E20222A0BD151B1B5
:10282000416921F040014161A06B08B1FFF70CFA4A
:10283000204600F0E0F9002010BD704770B5044656
:10284000002C04D094F83D00002510B106E00120D2
:1028500070BD84F83C50204600F022F8242084F813
:102860003D002068C16821F40051C160204600F09D
:10287000E3F92068016921F4904101612068416910
:1028800021F02A0141612068C16841F40051C16012
:102890002564202084F83D0084F83E00002070BDAF
:1028A00070472DE9F84F04460E461546984694F8B1
:1028B0003E00202802D00220BDE8F88F0EB305B3F9
:1028C00094F83C0001281ED0012084F83C004FF011
:1028D000000AC4F840A0222084F83E00C4F830A0CA
:1028E000FFF78AFB8146A585E585A0684FF48057F0
:1028F000B84201D1206940B13546002684F83CA099
:1029000028E00120D8E70220D6E70025F6E74B466D
:10291000002220212046CDF8008000F051FA08B1B5
:102920000320C9E725B1A068B8421BD038B108E040
:1029300020684068C0F3080026F8020B07E0206911
:1029400080B12068406800F07F0028706D1CE08D29
:10295000401EE085E08D0028D9D1202084F83E007B
:102960000020A9E7206840682870EFE790F83E3023
:10297000202B01D00220704759B152B190F83C3061
:10298000012B08D0012380F83C300023036300F0C2
:10299000DDB9012070470220704770477047FEE79D
:1029A000FEE7704710B5FFF72DFB03F04DFD012842
:1029B00003D0BDE8104003F0F7B910BD024801682C
:1029C00041F470010160704788ED00E010B5084CDB
:1029D00020680069C043C00705D10648006810B1EF
:1029E000002103F0ADFA21686FF00100086110BD0D
:1029F000840300201800002010B5084C20680069EE
:102A0000C043C00705D10648006810B1002103F09B
:102A100097FA21686FF00100086110BDCC03002017
:102A2000200000202DE9F0410268264D264E274F58
:102A3000DFF89CC0274B4FF08048A84209D04045A2
:102A400007D0B04205D0B84203D0604501D09842CB
:102A500003D122F070044A682243A8421BD04045AB
:102A600019D0B04217D0B84215D0604513D0984263
:102A700011D0194CA0420ED0184CA0420BD0184CCB
:102A8000A04208D0174CA04205D0174CA04202D05B
:102A9000164CA04203D122F44074CA6822434C6908
:102AA00022F08002224302608A68C2620A6882625F
:102AB000A84201D0984201D1096901630121416115
:102AC000BDE8F08100000140000400400008004023
:102AD000000C00400004014000400140004401405F
:102AE0000048014000180040001C00400020004049
:102AF00008B50F4800680068C043800616D44FF43C
:102B00007A73012269460A48FFF7CBFE0949087823
:102B1000402806D2064B9DF8002044331A54401C2E
:102B200008700878082801D10020087008BD00004E
:102B3000F40500204400002070B5846B20684069D3
:102B4000C0F3C01094F83D100025212904D118B11C
:102B5000E584204600F067F820684069C0F38010E3
:102B600094F83E10222904D118B1E585204600F0E2
:102B700042F8206C40F0100020642046FFF75DFE14
:102B800070BD10B50146886B09680968C9051BD47A
:102B90000021C1850168CA6822F48072CA60016898
:102BA0004A6922F001024A6101684A6922F0400242
:102BB0004A61202180F83E10016B012904D101688F
:102BC000CA6822F01002CA60016B012902D0FFF727
:102BD000E4FE10BD818DFFF703FE10BD10B5806BC4
:102BE000016B012902D0FFF7D9FE10BD818D490884
:102BF000FFF7F6FD10BD0168CA6822F49072CA6042
:102C000001684A6922F001024A61016B012904D17D
:102C10000168CA6822F01002CA60202180F83E10C4
:102C20000021016370470168CA6822F0C002CA60CF
:102C3000202180F83D1070472DE9F04104462068BE
:102C40000169E26821F4405111430161A1682069E2
:102C5000E26901436069104301432068C26849F298
:102C60000C639A430A43C26020684169A26921F457
:102C700040711143416133492068884202D0324992
:102C8000884202D1FFF7FAFA01E0FFF7E7FAE169BB
:102C90000023192764253226B1F5004F28D061683A
:102CA0008B0F8A00A0FB0701FDF78FFB0146B0FBED
:102CB000F5F07A42504301EB800006EB0010B0FBC8
:102CC000F5F000F0F002B1FBF5F002EB0012B1FB01
:102CD000F5F07B42584301EB800006EB0010B0FB9F
:102CE000F5F0216800F00F0010448860BDE8F08125
:102CF00061684A18A0FB07015B41FDF766FB0146CE
:102D0000B0FBF5F00201B1FBF5F06FF0180358438A
:102D100001EB800006EBC000B0FBF5F000F0F8001E
:102D200002EB4002B1FBF5F0584301EB800006EBEB
:102D3000C000B0FBF5F0216800F007001044886087
:102D4000D4E70000001001400014014037B582B004
:102D500004461346039AA262A38500252564222017
:102D600084F83E00A16B1348C863A16B1248086445
:102D7000A16B1248C864A06B05652168A06B091D92
:102D8000FFF714F8206801684168019184F83C500D
:102D9000C16841F48071C1602068416941F001015E
:102DA00041612068416941F04001416105B0002066
:102DB00030BD0000832B0008DD2B0008392B0008F4
:102DC0002DE9F04104460E4617469846069D1DE043
:102DD000681C1BD02DB1FFF70FF9A0EB0800A8422B
:102DE00014D92068C16821F4D071C160206841699C
:102DF00021F001014161202084F83D0084F83E006B
:102E0000002084F83C000320BDE8F08120680068C1
:102E100036EA000004D00020B842D9D00020F3E701
:102E20000120F9E708B5174800680168C943C906D9
:102E300027D40168406800901248FFF7D2FC12487E
:102E4000006840681149C0F1320080B208800D4A24
:102E5000343A024412F8012C0A2A05D140F4004009
:102E600008800B4800698047064832213438FDF756
:102E70002AFD04493222BDE8084034390148FFF7F1
:102E800075BD08BDE0020020140400202C000020C5
:102E9000B800002038B52E4800680068C04380069E
:102EA00017D44FF47A73012269462948FFF7F9FCD9
:102EB000284C0025E07805280BD2DFE800F0030B52
:102EC000172538009DF80000AA2802D10121E170E1
:102ED000A07038BD9DF80000552801D0E57038BDC0
:102EE0000220E070A0785530A07038BD9DF8000039
:102EF0006070A1780144A170802803D80320E0709D
:102F0000A58038BDE57038BDA088114B421C9DF8E6
:102F1000001092B24433A2801954A0780844A070E3
:102F20006078001F8242EEDB0420E07038BDA0789C
:102F30009DF80010884208D16078242805D1044902
:102F4000202244310448FDF784FCE57038BD0000C0
:102F5000FC060020460000202C02002008B50F4887
:102F600000680068C043800616D44FF47A730122CB
:102F700069460A48FFF795FC09490878202806D2D7
:102F8000064B9DF8002044331A54401C0870087802
:102F9000082801D10020087008BD0000C0070020EB
:102FA0004C00002008B50F4800680068C043800648
:102FB00016D44FF47A73012269460A48FFF771FC70
:102FC00009490878402806D2064B9DF80020443372
:102FD0001A54401C08700878082801D10020087095
:102FE00008BD00007806002045000020FEE703B47D
:102FF00001984100009850EAC12018BF04204A0DF2
:1030000018BF40F0010040F2FF72B2EB515F08BF01
:1030100040F00200012808BF052002B070470907F0
:10302000090E002804DB00F1E02080F8001470474E
:1030300000F00F0000F1E02080F8141D70473038D8
:103040000A2801D201207047002070477047000015
:1030500038B500230F4A146844F010041460126855
:1030600002F0100200920D4A0B4C14605160936004
:10307000D0601046FFF748FB002205213620FFF7FD
:103080000FF83620FEF7FFFFBDE838400348FFF792
:1030900061BB000040380240001000408403002063
:1030A00038B500230F4A146844F0200414601268F5
:1030B00002F0200200920D4A0B4C146051609360A4
:1030C000D0601046FFF720FB002205213720FEF7D5
:1030D000E7FF3720FEF7D7FFBDE838400348FFF78A
:1030E00039BB00004038024000140040CC030020EF
:1030F00010B504460420FFF7E5FA084804604FF4D1
:103100007A7044434FF0E021086940F00200086102
:103110004C61086940F00100086110BD28000020E2
:1031200070B5054600244FF47A7603E0304600F08F
:1031300005F8641CAC42F9D370BD000070B50021E5
:103140004FF0E0256C690A4A12685043AB69AA69DE
:103150009A42FCD003D2A3EB0203194403E0A4EB90
:1031600002063344194413468142F0D370BD000077
:10317000280000202DE9F84300245448016841F458
:1031800080010160016801F480010091016841F44F
:1031900000110160006800F4001000904D494C4897
:1031A000886381634C4901604FF000674760846029
:1031B000C4600E15066144618461C4614FF44031FE
:1031C0000162446203218162C4620463FEF784FDEC
:1031D000322242493F48FFF7C9FB3D4D4048603528
:1031E00028606F604FF04008C5F80880EC602E61E1
:1031F0006C61AC61EC614FF40039C5F8209000229D
:103200000A211120FEF74CFF1120FEF73CFF284653
:10321000FEF762FD33484563A8633148483860359E
:1032200028606F60C5F80880EC602E616C61AC614D
:10323000EC61C5F8209000220A210E20FEF730FF35
:103240000E20FEF720FF2846FEF746FD2648456380
:10325000A86323481830603528606F60C5F808807F
:10326000EC602E616C61AC61EC61C5F820900022CD
:103270000A212F20FEF714FF2F20FEF704FF284617
:10328000FEF72AFD19484563A86313487830603576
:1032900028604FF020606860C5F80880EC602E61FF
:1032A0006C61AC61EC61C5F8209000220A214620D7
:1032B000FEF7F6FE4620FEF7E6FE2846FEF70CFD7A
:1032C0000B484563A863BDE8F8830000303802402E
:1032D00014040020E002002040640240AC02002000
:1032E000A0600240FC060020C0070020F40500207A
:1032F0007806002003490A685206FCD5C2B24A602B
:1033000070470000001001401CB50322002101207D
:1033100002F060FD184C606110B118A0FDF7CCF808
:1033200003220021012002F055FDA06110B11BA075
:10333000FDF7C2F803220021012002F04BFDE061FD
:1033400010B11EA0FDF7B8F803220021012002F001
:1033500041FD206210B121A0FDF7AEF80648012121
:10336000CDE900100023802224A1274803F03CF877
:10337000BDE81C4002F0D6BB04000020B6FED6B566
:10338000D0C5BAC5C1BF73656D31B4B4BDA8B3C9EA
:10339000B9A6A3A1A3A1A3A10D0A0000B6FED6B5AC
:1033A000D0C5BAC5C1BF73656D32B4B4BDA8B3C9C9
:1033B000B9A6A3A1A3A1A3A10D0A0000B6FED6B58C
:1033C000D0C5BAC5C1BF73656D33B4B4BDA8B3C9A8
:1033D000B9A6A3A1A3A1A3A10D0A0000B6FED6B56C
:1033E000D0C5BAC5C1BF73656D34B4B4BDA8B3C987
:1033F000B9A6A3A1A3A1A3A10D0A000073746172D1
:10340000745F7461736B00005548000870B5054621
:103410000024094908884E8846430021084600F0E8
:103420009FFA00F067FC4FF0D84102E0A1F880500D
:10343000641CB442FAD370BD740300202DE9F04F30
:10344000304B987119462C272B252A2689884FF452
:1034500030584FF428594FF4487441F6631A4FF02E
:10346000F00B45F2105E4FF4A07C4FF4F072002890
:103470000ED0A3F800C0A3F802B071452BD1A3F879
:103480000880A3F80A90280298811C805A802DE0B9
:10349000A3F800B0A3F802C0714509D1A3F80880D1
:1034A000A3F80A904FF42C5098811A805C800AE0AF
:1034B000514505D11F815D819E811A805C8002E0AB
:1034C0001F815E819D81A1F5A640103815D1A3F81A
:1034D00000C05A8011E0514505D11F815E819D8158
:1034E0001C805A8002E01F815E819D81A1F5A6406B
:1034F000103802D11A80A3F802C0BDE8F04F0020B6
:1035000000F058B9740300202DE9FF4F82B0074640
:103510008846002415460320A0EB420653E0A8EBA2
:10352000050081B207EB040A01901FFA8AF0059AA0
:1035300000F09CF8A8EB0400009081B207EB0509AD
:103540001FFA89F0059A00F091F808EB040B1FFAB6
:103550008BF11FFA89F0059A00F088F808EB05094D
:103560001FFA89F11FFA8AF0059A00F07FF81FFA16
:1035700089F1A7EB04091FFA89F0059A00F076F8A3
:10358000A7EB050A1FFA8BF11FFA8AF0059A00F0E3
:103590006DF80198059A81B21FFA89F000F066F87B
:1035A0000098059A81B21FFA8AF000F05FF8641C57
:1035B000002E03DA06EB8406B61D04E0601B06EB62
:1035C00080060A366D1EAC42A9DD06B0BDE8F08F5C
:1035D0002DE9FE4F00250026171AA3EB01088146AE
:1035E0008A46681E002F03DD4FF00101019107E0BC
:1035F00003D14FF00001019102E00190C7F10007F3
:10360000B8F1000F03DD4FF00100009007E003D197
:103610004FF00000009002E00090C8F1000847451C
:1036200001DD3C4600E044464FF0000B601C029078
:1036300016E01FFA8AF11FFA89F00C9A00F016F8CA
:103640003D444644A54202DD2D1B01988144A6421B
:1036500002DD361B009882440BF1010B1FFA8BFB35
:1036600002988345E5DDBDE8FE8F000010B51446E5
:1036700000F076F900F03EFB0148048010BD000028
:103680008000006C2DE9F8418046079C0E461546E7
:103690001F4633462A46314640460094FFF798FFBE
:1036A0003B464246314640460094FFF791FF3B4679
:1036B0002A46394640460094FFF78AFF3B462A4691
:1036C000314628460094FFF783FFBDE8F8812DE9D5
:1036D000F0439846079B81460C46A2EB0900401C2C
:1036E00086B29FB24FF0D8450FE02146484600F021
:1036F00037F900F0FFFA002203E0A5F88070521CB1
:1037000092B2B242F9D3641CA4B24445EDD9BDE8EB
:10371000F083401E411CFCD170470346012000E0AD
:103720005843491EC9B2FBD27047000008B5034890
:1037300000880090BDF8000008BD00008000006C0B
:1037400010B51B4C2288824202D962888A4201D875
:10375000002010BD00F004F9A088A0F5AA4110399E
:1037600021D02E2000F0BAFAFFF7E0FFA188A1F5E2
:10377000C852633AEDD00220FFF7CBFFFFF7D6FF28
:1037800004460220FFF7C5FFFFF7D0FFE1B24FF676
:10379000FF7202EA012124EA6212890A42EA411117
:1037A00041EAD02010BD4FF4385000F097FADBE723
:1037B0007403002070B50023684C41F6631621465F
:1037C000A2798988012A01D1B14202D1C2B9B1429C
:1037D00016D1082814D2DFE800F00406080A0C0EFF
:1037E000101206200CE007200AE0042008E0052063
:1037F00006E0012004E0002002E0032000E00220B7
:10380000082812D2DFE800F0110406080A0C0E1096
:1038100080230AE0402308E0C02306E0202304E0E0
:10382000602302E0A02300E0E023362045F210559B
:10383000A94200D10002A1F51342413A03D0A1F5FB
:10384000EE42893A01D143F00803194600F05CFAD0
:10385000A188B1420ED0980606D520886288904291
:1038600008D22280608005E022886088824201D9E7
:1038700020806280A94247D1608900F02FFA0020A1
:1038800000F020FA6089401C80B200F027FA002086
:1038900000F018FA6089801C80B200F01FFA2088BE
:1038A000401EC0F30F2000F00DFA6089C01C80B2EA
:1038B00000F014FA2078401EC0B200F003FAA0898C
:1038C00000F00CFA002000F0FDF9A089401C80B245
:1038D00000F004FA002000F0F5F9A089801C80B205
:1038E00000F0FCF96088401EC0F30F2000F0EAF9F8
:1038F000A089C01C80B200F0F1F9A078BDE870404A
:10390000401EC0B200F0DEB9608900F0E7F9002087
:1039100000F0D8F9002000F0D5F92088401EC0F34F
:103920000F2000F0CFF92078401EC0B200F0CAF995
:10393000A08900F0D3F9002000F0C4F9002000F0C5
:10394000C1F96088401EC0F30F2000F0BBF9A078D9
:10395000BDE87040401EC0B200F0B4B9740300204E
:10396000F0B502460C463E4D260A2846A988170A9D
:103970004089A1F5C853633B16D0A1F5AA43103B7B
:1039800050D000F0ABF9384600F09CF9D0B200F00E
:1039900099F9A88900F0A2F9304600F093F9E0B255
:1039A000BDE8F04000F08EB9A97941B300F096F976
:1039B000384600F087F9D0B200F084F92888401E1C
:1039C000C0F30F2000F07EF92878401EC0B200F04E
:1039D00079F9A88900F082F9304600F073F9E0B275
:1039E00000F070F96888401EC0F30F2000F06AF9FB
:1039F000A878BDE8F040401EC0B200F063B9298845
:103A0000891A491E8AB200F069F9002000F05AF9BB
:103A1000002000F057F9100A00F054F9D0B200F07D
:103A200051F9D6E700F05AF9384600F04BF96889A9
:103A3000401C80B200F052F9D0B200F043F9A889DE
:103A400000F04CF9304600F03DF9A889401C80B2E6
:103A500000F044F9E0B2BDE8F04000F033B90000F6
:103A6000740300202DE9F84F81460C469846A34682
:103A70005FEA487001D0012000E0002000EBD80090
:103A80004FEA58014843C0B20090203AD0B2B8F192
:103A90000C0F0DD0B8F1100F10D0B8F1180F11D0D5
:103AA000B8F1200F46D1244901EB801A00273EE0EF
:103AB000224900EB400001EB800AF7E7204901EBC7
:103AC000001AF3E71F4900EBC00001EB800AEDE7A5
:103AD0001AF807600025300605D5214648460B9A9E
:103AE000FFF7C4FD07E00A9828B917482146026885
:103AF0004846FFF7BBFD7006060E641CA4B21348CF
:103B00004088A04216D9A4EB0B00404509D15C4681
:103B100009F101091FFA89F90C480088484509D9BB
:103B200003E06D1CEDB2082DD5D37F1CFFB20098C9
:103B30008742CDD3BDE8F88F5C8300089C6B0008FA
:103B40001070000800760008400000207403002078
:103B50002DE9FF4F83B08046DDF8449093461D4623
:103B6000002600241098A24647081FE0281B401E8C
:103B7000C1B20A20FFF7D1FDBBFBF0F00A21B0FB78
:103B8000F1F201FB120026B9691E8C4201DA90B1F4
:103B900001263030C2B2CDE900A907FB048080B213
:103BA000109B0499FFF75EFF641CE4B2AC42DDD3C6
:103BB00007B0BDE8F08FCDE900A907FB048080B213
:103BC0002022109B0499FFF74DFFEDE72DE9FC4FF4
:103BD0000446DDE90C6B0B9F0D4604F0FF0810193D
:103BE0001FFA80F958191FFA80FA12E04C4502D3E7
:103BF0004446E81985B2554510D20020CDE9000BA6
:103C00003B4629462046FFF72DFF04EB570084B2C0
:103C1000761C3278A2F120005E28E7D9BDE8FC8F3F
:103C20002DE9FF4F83B08046DDE911B91F464FF003
:103C3000000A002410980BF00105460823E0381B09
:103C4000401EC1B20A20FFF768FD0599B1FBF0F0F4
:103C50000A21B0FBF1F201FB1200BAF1000F05D10D
:103C6000791E8C4202DA98B14FF0010A3030C2B2AC
:103C7000CDE9005906FB048080B2109B0499FFF740
:103C8000F1FE641CE4B2BC42D9D307B0BDE8F08FAA
:103C90005FEA0B600AD5CDE9005906FB048080B2CB
:103CA0003022109B0499FFF7DDFEEAE7CDE90059C9
:103CB00006FB048080B22022109B0499FFF7D2FEFD
:103CC000DFE7000001B5BDF800000090BDF800007E
:103CD0000149088008BD00008000006C01B5BDF8F6
:103CE00000000090BDF800000149088008BD0000F8
:103CF0007E00006C0248034900890880704700007C
:103D0000740300207E00006C014A108051807047CF
:103D10007E00006C10B5FEF77DF907230222082112
:103D20004FF4A87000F0EAFDA820FFF7E1F9FFF7D3
:103D300021FA0E4800F024FF0D48416854208847BE
:103D400042F2CF0421463120FFF782F92146632059
:103D5000FFF7A6F94FF4E12000F0AEFE05A0FCF756
:103D6000ABFBFFF7D1FA002010BD000040420F006E
:103D7000B80000200D0A2048454C4C4F21200D0A68
:103D80000D0A00002DE9F04104460F46204DEE6873
:103D90002968002081F859002868001D01F02DFBDA
:103DA00038B9286890F82C1001208840296981438F
:103DB0002961601C15D1A7B1164948682A6890602E
:103DC00082682B68DA602A688368121D5A602A6844
:103DD000121D8260286841610868401C0860BDE8C7
:103DE000F081344428684460B44206D22968E86B04
:103DF000091DBDE8F04101F021BB2968A86B091D30
:103E000001F01CFBA86A8442E9D2AC62E7E700003B
:103E1000AC010020340B002070B5044601F032FBE9
:103E2000254DA868401CA860286810B1686938B1A1
:103E30000CE02C60A868012808D100F0BDF905E06D
:103E40002868E16AC06A884200D82C60686A401C11
:103E500068626064E06A01212A6981401143296136
:103E6000164A00EB800002EB80004068A060816889
:103E7000E1608368211D59608160E06A00EB800089
:103E800002EB8001616152F82010491C42F82010B9
:103E900001F03CFB686900280CD02868E16AC06A20
:103EA000884207D206494FF080500860BFF34F8F19
:103EB000BFF36F8F70BD0000AC01002064080020CC
:103EC00004ED00E010B501F0DDFA0E4C2068A0B959
:103ED0000D4801F0A5FA0C48143001F0A1FA0A4887
:103EE000E0601430206100221021052001F072FFF3
:103EF000206010B105A101F0FDFBBDE8104001F00C
:103F000005BB0000EC010020480B0020546D7251ED
:103F10000000000070B50C4D0C4E11E001F0B2FA3B
:103F2000F068C468201D01F068FAA868401EA86007
:103F30006868401E686001F0E9FA204600F053F816
:103F400068680028EAD170BDAC010020200B002079
:103F500030B40B46026C002A0CD0C1681144C16019
:103F60008468A14201D30168C160C16830BC1846B1
:103F7000FCF72ABC30BC70472DE9F04104461746D7
:103F80000026A56B226C002A10D0C7B1E068FCF7B0
:103F90001BFCE168206C091AE1602268914202D2A0
:103FA000A168081AE060022F16D017E02068A8B9AF
:103FB000A06802F00DFB06460020A0600EE06068DD
:103FC000FCF702FC216C606808446060A1688842CC
:103FD00004D32068606001E005B16D1E6D1CA5630F
:103FE0003046BDE8F08110B50446206B01F0CAFAF6
:103FF0002046BDE8104001F0C5BA416A002904D04E
:10400000006B0068C0F1200070470020704700007E
:104010000749CA681168002904D00021016019B15C
:10402000002070470121F9E7D06800687047000060
:10403000EC0100204FF4A0310F48420706D0C01D0C
:1040400020F007000C49411AC1F5A0310B4A10605D
:10405000002353600144083921F00701183A116028
:104060004B600B600B1A43600160406890605060C9
:104070004FF0004050617047700B00201802002084
:10408000074E4FF08054074DFFF744FF306801287A
:10409000FAD92C60BFF34F8FBFF36F8FF4E70000A6
:1040A0006408002004ED00E070B51D46049C002962
:1040B0000BD02260E06321640121204601F0CCFE98
:1040C00084F850500020A06470BD2460F2E7000026
:1040D0002DE9F05FDDE90A590C9C82460E46174631
:1040E0009B46B900A522206BFCF7E5FB206B7F1EE9
:1040F00000EB870020F007085FEA487005D04FF416
:10410000587220A128A0FCF7D7F9002766B100203B
:104110002218315C82F83410315C11B1401C102837
:10412000F6D384F8437001E084F83470202D05D371
:1041300040F2973213A11CA0FCF7BEF9202D00D34A
:104140001F25E562E5642765201D01F074F904F17F
:10415000180001F070F92461C5F12000A0616462CB
:10416000676584F8587084F859705A46514640463D
:1041700000F05EFB2060B9F1000F01D0C9F80040EB
:10418000BDE8F09F2E2E5C2E2E5C4D6964646C653C
:1041900077617265735C4672656552544F535C7407
:1041A00061736B732E6300004572726F723A202543
:1041B000732C2025640D0A0070B50024114D04EB0A
:1041C000840005EB800001F02BF9641C202CF6D351
:1041D0000D4801F025F90C48143001F021F90A4886
:1041E000283001F01DF908483C3001F019F9064863
:1041F000503001F015F90548034981631431C1635A
:1042000070BD000064080020E40A0020AC0100201A
:1042100030B5134900E011460A688242FBD34B686F
:104220005C18844203D140681844486008460D6811
:1042300044682318AB420DD1094B183B1B689A42C6
:1042400006D05268224442600A681268026002E0A6
:10425000036000E00260814200D0086030BD0000D1
:104260001802002070B50024416000610C4D91429D
:104270000AD8D11A8269914201D301240EE0011DAE
:10428000286901F0DBF809E09A4203D2994201D390
:10429000012403E0011DE86801F0D0F8204670BD5C
:1042A000EC01002010B5044601F0ECF8A06B20B141
:1042B000002401F02BF9204610BD0124F9E700008D
:1042C000F1B50098846C0026002C05D140F6D5325B
:1042D00019A122A0FCF7F0F8A06BE16B884205D38E
:1042E00040F6D63214A11DA0FCF7E6F8A06BE16BF6
:1042F00088421ED294F94550002269462046FFF7B5
:104300003BFE0646681C02D07F2D09D00EE0606A95
:1043100078B104F1240002F027FA50B1012608E038
:1043200040F6F63204A10DA0FCF7C6F86D1C84F827
:1043300045503046F8BD00002E2E5C2E2E5C4D6997
:1043400064646C6577617265735C4672656552542E
:104350004F535C71756575652E6300004572726F11
:10436000723A2025732C2025640D0A0070B505468D
:104370000E460D48C068C068C468201D01F03DF8B5
:1043800094F82800410705D532462946204600F01A
:10439000D7F803E000F0FE0084F828002046216AE8
:1043A000BDE8704008470000EC01002070B586B001
:1043B0003A4E6AE00298002803DADDE90320059905
:1043C00090470298002860DB049C606910B1201DB2
:1043D00001F013F801A800F0D7F8054602980A2862
:1043E00053D2DFE800F0520505292F460505292F95
:1043F00094F8280040F0010084F828000398A1698F
:10440000034601442A462046FFF72CFF00283CD0F3
:1044100094F82800410707D50398A1692A4601446A
:10442000204600F08DF803E000F0FE0084F828003C
:10443000216A2046884728E014F8280F00F0FE0083
:10444000207022E094F8280040F0010084F8280051
:104450000398A06128B940F2593211A119A0FCF7C4
:104460002BF8A0692B4641192A462046FFF7FAFE91
:104470000BE094F82800810703D4204601F082F86D
:1044800003E000F0FE0084F82800002202A9306852
:1044900001F0CAFD00288DD106B070BDEC010020EE
:1044A0002E2E5C2E2E5C4D6964646C65776172659E
:1044B000735C4672656552544F535C74696D6572E6
:1044C000732E63004572726F723A2025732C20257B
:1044D000640D0A00F8B506460D4601F073FB684608
:1044E00000F052F80446009810B102F0C5F9F8BD8A
:1044F00045B9A64206D802F0BFF921463046FFF77B
:1045000035FFF8BD0C481DB10169096891B100255E
:10451000311B2A46006801F02DF902F0ADF90028A0
:10452000EFD106494FF080500860BFF34F8FBFF3C3
:104530006F8FF8BD0125EBE7EC01002004ED00E0F2
:1045400070B505460C46164604E0A8690444296A7D
:1045500028468847A8692346011932462846FFF7AE
:1045600081FE0028F1D170BD0648816B09680029E1
:1045700004D0816BC9680968816270474FF0FF31D0
:1045800081627047AC01002070B5054601F06AFFFA
:104590000446074EB068844204D200F00BF80120B4
:1045A000286001E000202860B460204670BD000053
:1045B000EC01002070B5094C4FF0FF3504E0C068F5
:1045C00000682946FFF7D2FEE0680268002AF6D1AB
:1045D000E0682169E160206170BD0000EC0100200D
:1045E00008484068401C04D0E92207A115A0FBF749
:1045F00063FF502080F31188BFF34F8FBFF36F8F9D
:10460000FEE70000200200202E2E5C2E2E5C4D695D
:1046100064646C6577617265735C4672656552545B
:104620004F535C706F727461626C655C5256445398
:104630005C41524D5F434D34465C706F72742E6323
:10464000000000004572726F723A2025732C2025FD
:10465000640D0A0008B56846FFF7DAFC0099FFF719
:1046600039FFFFF7A3FEF6E72DE9F041044600F01D
:1046700009FF94F9455004F1240612E0A06C30B112
:104680002046FFF71DFE50B101F052F907E0606AC5
:1046900048B1304602F068F808B101F049F96D1EE2
:1046A0006DB2002DEADC4FF0FF3684F8456000F073
:1046B0002DFF00F0E7FE94F9445004F1100709E0E3
:1046C000206948B1384602F04FF808B101F030F9DE
:1046D0006D1E6DB2002DF3DC84F84460BDE8F0413E
:1046E00000F014BF2DE9F0410446002601F06AFAFB
:1046F000364F386808B9FFF79DFC7869044258D1F5
:10470000BCB104F10805A54213D9680712D005F021
:104710000700C0F108002844A84208D905466807E8
:1047200008D09C222AA138A0FBF7C6FE02E0002593
:1047300000E00025002D3CD07868854239D8234917
:1047400018310846046801E0214604466068A84222
:1047500002D220680028F7D13868844229D00E6838
:104760000836206808606068401B102811D904EBE7
:1047700005085FEA487004D0CF2215A122A0FBF7FC
:104780009BFE6068401BC8F8040065604046FFF768
:104790003FFD61687868401A7860BA68904200D23C
:1047A000B86078690143616000202060F868401CAF
:1047B000F86002F061F8700705D04FF4887204A128
:1047C00011A0FBF779FE3046BDE8F0810002002021
:1047D0002E2E5C2E2E5C4D6964646C65776172656B
:1047E000735C4672656552544F535C706F727461AE
:1047F000626C655C4D656D4D616E675C686561708E
:104800005F342E63000000004572726F723A2025FB
:10481000732C2025640D0A0004490868002803D081
:104820000868026D521C026508687047AC010020E0
:1048300024384FF08073036221F00101C161044903
:10484000816142606FF0020140F82019704700005A
:10485000E14500087CB500F015FE1B480321CDE9B9
:1048600000104FF480740023224618A1194801F06B
:10487000BBFD15480521001DCDE900106500002392
:104880002A4615A1164801F0AFFD0F480221083055
:10489000CDE900100023224612A1144801F0A4FD26
:1048A000094806210C30CDE9001000232A4610A14A
:1048B000114801F099FD0448001F006800F0BEFF98
:1048C000BDE87C4000F022BE080000207461736BDC
:1048D00031000000B54900087461736B32000000BC
:1048E000C14900087461736B33000000DD490008A2
:1048F0007461736B34000000E94900082DE9F0434E
:1049000093B006460F4690469946302107A8FBF71C
:10491000DAFF142102A8FBF7D6FF0025224C2068FD
:1049200040F080502060206800F0805001901F4CC3
:10493000206840F480402060206800F480400190AE
:10494000012007900004089002240D9480010E902D
:1049500010960F97CDF84480CDF8489007A8FDF742
:10496000D1FC18B1012013B0BDE8F0830F200290F4
:10497000039404954FF4A05005904FF48050069096
:10498000052102A8FDF7BEFB08B10120EBE7FDF70A
:104990002DFB41F20101884204D10548016841F430
:1049A000807101600020DEE7403802400070004066
:1049B000003C02404FF47A74204600F0FFFEFBE713
:1049C000054C4FF0FF352946606901F0DDFB0320FF
:1049D00000F0F4FEF7E70000040000204FF47A74C2
:1049E000204600F0EBFEFBE796B0DFF898B0264CCF
:1049F0004FF0FF31DBF81C0001F0C6FBE06902F06C
:104A000045F805460E46A06902F040F8074688467C
:104A1000606902F03BF881468A46206902F036F868
:104A2000CDE91401E06802F031F8CDE91201A06887
:104A300002F02CF8CDE91001606802F027F8CDE90A
:104A40000E01206802F022F8CDE9089ACDE90A7833
:104A500041EC100BCDE90C56DDE91401CDE906015E
:104A6000DDE91201CDE90401DDE91001CDE9020122
:104A7000DDE90E01CDE9000153EC102B03A0FBF79B
:104A80001BFDB5E7040000202C020020252E336614
:104A90002C252E33662C252E33662C252E33662CA2
:104AA000252E33662C252E33662C252E33662C2599
:104AB0002E33660D0A00000070B586B0064600254C
:104AC0002B49086840F040000860086800F040008A
:104AD0000090086840F008000860086800F00800CE
:104AE0000090086840F008000860086800F00800BE
:104AF00000901F491031086840F4003008600868D1
:104B000000F4003000902020019002210291012049
:104B10000390049107200590164C01A92046FDF74B
:104B20007DF94020019001A92046FDF777F9134C4B
:104B3000114820606660A560E5602561A5610C20D4
:104B400060612046FDF77AFE2068C16821F04001CF
:104B5000C1602068C16841F02001C1602620FDF7D6
:104B600092FA002207212620FDF79AFA06B070BDBE
:104B700030380240000C024000440040FC06002097
:104B8000F0B587B0064600252849086840F01000B7
:104B90000860086800F01000019024491439086882
:104BA00040F001000860086800F00100019008680A
:104BB00040F001000860086800F00100019048150D
:104BC000029002210391012004900591072406948C
:104BD000174F02A93846FDF721F9381502900694BF
:104BE00002A93846FDF71AF9134C12482060666096
:104BF000A560E5602561A5610C2060612046FDF798
:104C00001DFE2068C16821F04001C1602068C168B4
:104C100041F01001C1602520FDF735FA0022052181
:104C20002520FDF73DFA07B0F0BD000044380240F2
:104C30000000024000100140E002002070B594B076
:104C4000064612AB11AA08A9304600F0CBF900289D
:104C500022D113901D4C042513E0216805EBC00000
:104C600012AB085810AA694600F0BCF9002813D10D
:104C700008A9684600F0A2FB80B19DF84C00401CDA
:104C80001390217D9DF84C008142E6D8207D9DF84F
:104C90004C1088420ED1042014B070BD9DF8400025
:104CA0009DF84410884201D90220F5E79DF84C0098
:104CB000A075EBE713A9304600F04EFA0028EBD1BF
:104CC0009DF84C0060750020E6E70000B800002069
:104CD0002DE9F0419AB0824EB57D307DA8426FD962
:104CE0000421306801EBC50106AB405807AA08A9AA
:104CF00000F078F908A97BA0FBF7DEFB00240DF19A
:104D0000400832E0308B0121A140084217D0222117
:104D100076A0FBF7D1FB204600F09EFA81192431E2
:104D200073A0FBF7C9FB222170A0FBF7C5FB20464F
:104D300000F092FA3044243048F824000BE020467A
:104D400000F08AFA3044416A48F82410F07DF0B14E
:104D500068A0FBF7B1FB9DF81C00401E844202D006
:104D600066A0FBF7A9FB641CE4B29DF81C0084421A
:104D7000C8D363A0FBF7A0FB707D0B2810D2DFE83F
:104D800000F00A10172028303A46546476005DA0DF
:104D9000FBF792FBDFE7306850F8350080470746A5
:104DA00078E0306850F8351010988847074671E071
:104DB000306850F83520DDE910019047074669E07A
:104DC0007FE0306850F8353010A807C8984707468C
:104DD00060E0306850F8354010A80FC8A04707467B
:104DE00058E014980090306850F8354010A80FC86B
:104DF000A04707464EE0DDE91401CDE90001306827
:104E000050F8354010A80FC8A047074642E0DDE93A
:104E100015211498CDE901210090306850F83540F3
:104E200010A80FC8A047074634E0DDE91610DDE9F9
:104E30001423CDE90210CDE90023306850F8354045
:104E400010A80FC8A047074624E0DDE91523DDE9D7
:104E50001710CDE90123CDE90310149800903068B4
:104E600050F8354010A80FC8A047074612E0DDE90A
:104E70001810CDE90410DDE91623DDE91401CDE9B0
:104E80000223CDE90001306850F8354010A80FC862
:104E9000A04707469DF81800012815D01AA0FBF777
:104EA0000BFB96F8EC0000280BD0D6F8F0000A2196
:104EB000B0FBF1F201FB1202B0FBF1F113A0FBF722
:104EC000FBFA1AB0BDE8F081F07D20B1394617A099
:104ED000FBF7F2FAE5E7394617A0FBF7EDFAE0E752
:104EE000B80000200D0A257328000000256300008B
:104EF0002573000030582558000000002C000000E9
:104F000029000000256C64003B0D0A0046756E63A5
:104F100074696F6E2052756E2054696D653A256410
:104F20002E2531646D730D0A000000003D305825B8
:104F3000583B0D0A000000003D256C753B0D0A0032
:104F4000F0B5002500260027002403782C2B01D182
:104F500004B90126292B00D003B90CB317B1222BB9
:104F60002CD02CE0A3F1300CBCF1090F19D92D2B5A
:104F700017D02B2B15D0A3F1610CBCF1050F10D964
:104F8000A3F1410CBCF1050F0BD9582B09D0782B9C
:104F900007D0222B0ED0202B20D02C2B1ED0FF2769
:104FA0000EE06EB9612B02D3203B0B7000E00B705A
:104FB000491C13E026B9012701240FE0002426B183
:104FC0000020087017702846F0BD3CB15C2B02D160
:104FD000401C6D1CEDB2037801F8013B6D1CEDB275
:104FE000401CB2E72DE9FF4F82B088469B46002463
:104FF000A14600270125002600220299EA4615E075
:10500000202810D002F07F03052B0CD202B9802299
:1050100002F07F03042B01D12A280AD10AF80300E9
:10502000521CD2B201E0852A03D0491C087800281E
:10503000E6D16AB102F07F0100200AF8010044A124
:10504000684600F0BBF938B101218BF8001000224E
:105050004FF0000B029B15E000208BF80000F6E7F4
:105060005B1C0BF1010B0BF0FF0B1878202801D013
:105070002A2807D1184600F029F9282802D02A2822
:1050800000D0D9461878282801D00028E8D1029904
:10509000B9F1000F01D04944491C4FF00009002329
:1050A000087810B1282803D003E04FF001093BE055
:1050B00013B1292803D003E0641CE4B20DE013B15E
:1050C000222808D009E014B1641EE4B201E04FF0D8
:1050D00001094CB301E04BB100234CB12C280ED098
:1050E000202818D0282816D06AB112E00123F4E74E
:1050F000202817D088F8000008F1010812E00125E7
:10510000521CD2B207E0052E03D20AF80600761C24
:10511000F6B26D1CEDB2012C04D1022D02D1032593
:105120007F1CFFB2491CBBE7012F08D100200AF801
:10513000060007A1684600F041F900B9002704986D
:105140000770002088F8000006B04846BDE8F08FE0
:10515000766F6964000000002DE9F043B5B00F469A
:1051600000240022334E0021B3189976521CD2B28B
:105170000A2AF9D302E0401C017899B10178282964
:10518000F9D1451C4FF0010834AA69462846FFF7BB
:10519000D7FE05449DF8D00040B1012824D0FF2857
:1051A00040D13DE0012035B0BDE8F0839DF800001E
:1051B000A8B333A9684600F093F808B10220F2E7DB
:1051C000204600F049F8304433994162308B08FAA8
:1051D00004F188433083042031198876641CE4B2DA
:1051E0000A2C1FD90320DEE7684600F0FDF800F125
:1051F0000109204600F030F881192431684600F09A
:10520000EAF8308B08FA04F108433083301980F84B
:105210001A90641CE4B20A2C04D90320C3E701E00D
:105220000220C0E72878292801D00028ACD13C70A2
:105230000020B8E7B80000200020054A11880B04C0
:1052400005D5C8B2034B0021195418461180704788
:105250002C000020AC02002010B5024600200021E6
:10526000054B05E05C18A47E2044C0B2491CC9B2BD
:105270009142F7D310BD0000B80000200149012081
:10528000C8757047B80000200346012000E058436D
:10529000491EC9B2FBD2704710B5FFF7CDFF0028F9
:1052A0000ED008490978EE290AD0EF2908D0064C1B
:1052B000A1688847002803D1E068BDE81040004796
:1052C00010BD0000AC020020B8000020401C00E02F
:1052D000401C0178202901D10028F9D100787047BD
:1052E0002DE9F0430E4600244FF00A08002702463D
:1052F000002131601178A1F13003092B12D9037814
:105300002D2B01D02B2B00D164B1A1F14103052B32
:1053100008D9582901D1012C04D01178A9B1012054
:10532000BDE8F083412901D34FF0100801782D2901
:1053300004D02B2905D0641CE4B204E00227401CF1
:1053400001E00127401C521CD4E70546B8F1100FBC
:1053500001D084B128E0032C01D20220E0E72878B4
:10536000302802D16878582801D00320D8E7AD1C36
:10537000A41EE4B218E00420D2E7641EE4B295F85B
:1053800000904846A9F13009B9F1090F01D9A0F1FF
:10539000370921464046FFF777FF316809FB0010C7
:1053A00030606D1C287810B1002CE8D0E5E7022FA2
:1053B00002D13068404230600020B1E704E00120B3
:1053C000704732B1401C491C02780B789A42F8D0E1
:1053D000F5E70020704701E0401C491C02780A7084
:1053E0000278002AF8D17047002102781AB1491CCE
:1053F000C9B2401CF9E7084670470169D0E901329B
:105400009A60D0E901235A604A68824201D18268D9
:105410004A60002202610868401E08600868704700
:1054200000F1080141604FF0FF328260C16001610C
:1054300000210160704700210161704730B50C68A0
:10544000621C02D000F1080202E0026904E01A4680
:1054500053681D68A542FAD953684B6099608A6009
:10546000516008610168491C016030BD42684A60B2
:1054700093688B6093685960916008610168491C6A
:1054800001607047502080F31188BFF34F8FBFF346
:105490006F8F09494868401C486001280AD10748B5
:1054A000006810F0FF0F05D04FF4DB7204A113A0C9
:1054B000FBF702B8704700002002002004ED00E076
:1054C0002E2E5C2E2E5C4D6964646C65776172656E
:1054D000735C4672656552544F535C706F727461B1
:1054E000626C655C525644535C41524D5F434D348F
:1054F000465C706F72742E63000000004572726F1C
:10550000723A2025732C2025640D0A0010B5094C31
:105510006068002805D140F2BD1207A115A0FAF776
:10552000CBFF6068401E6060002801D180F31188C5
:1055300010BD0000200200202E2E5C2E2E5C4D6936
:1055400064646C6577617265735C4672656552541C
:105550004F535C706F727461626C655C5256445359
:105560005C41524D5F434D34465C706F72742E63E4
:10557000000000004572726F723A2025732C2025BE
:10558000640D0A0070B500282DD008380446164D69
:1055900060686969084205D14FF4927213A121A095
:1055A000FAF78AFF206828B140F225120FA11DA04A
:1055B000FAF782FF60686969084214D02268002AFD
:1055C00011D18843606000F0FDFA606869680844A2
:1055D00068602046FEF71CFE2869401C2861BDE873
:1055E000704001F049B970BD000200202E2E5C2EE3
:1055F0002E5C4D6964646C6577617265735C46729C
:10560000656552544F535C706F727461626C655C77
:105610004D656D4D616E675C686561705F342E63CA
:10562000000000004572726F723A2025732C20250D
:10563000640D0A004FF0E0200021016181610549FD
:105640004FF47A720968B1FBF2F1491E41610721FA
:10565000016170470000002010B5FAF77DFE104C84
:1056600010280CD300F1E02090F8F0032178884254
:1056700005D240F217320BA119A0FAF71DFF1C4802
:105680000068A16800F4E060884207D9BDE81040D6
:1056900040F2273203A112A0FAF70EBF10BD00009E
:1056A000200200202E2E5C2E2E5C4D6964646C65F9
:1056B00077617265735C4672656552544F535C70D6
:1056C0006F727461626C655C525644535C41524D1A
:1056D0005F434D34465C706F72742E6300000000AF
:1056E0004572726F723A2025732C2025640D0A00D2
:1056F0000CED00E070B505460E46002D05D140F6D4
:10570000C8220EA116A0FAF7D7FE00238EB1002200
:10571000174800EBC2046168A94202D100EBC20342
:1057200007E01BB950F8321001B92346521C082A71
:10573000EFD3002B01D01E605D6070BD2E2E5C2E5D
:105740002E5C4D6964646C6577617265735C46724A
:10575000656552544F535C71756575652E63000025
:105760004572726F723A2025732C2025640D0A0051
:105770002408002070B504460D461646FFF782FE49
:1057800094F944304FF000005B1C01D184F84400D0
:1057900094F94510491C01D184F84500FFF7B6FE85
:1057A000A06B28B93246294604F1240000F0FAF82B
:1057B0002046BDE87040FEF757BF000010B5044614
:1057C0000020002C10D00E48406B28B140F2495206
:1057D0000CA115A0FAF770FE00F0F4F900212046A4
:1057E000FEF7D0FA01F048F8002807D112494FF02F
:1057F00080500860BFF34F8FBFF36F8F10BD000064
:10580000AC0100202E2E5C2E2E5C4D6964646C650C
:1058100077617265735C4672656552544F535C7470
:1058200061736B732E6300004572726F723A2025AC
:10583000732C2025640D0A0004ED00E070B50446C9
:10584000FFF720FE254D04B92C68201DFFF7D5FD7C
:1058500058B9E06A224A00EB800152F8211021B9C0
:1058600001218140286988432861A06A18B104F1A8
:105870001800FFF7C2FD686A401C6862286884420D
:1058800007D1211D1748FFF7F1FD6868401C6860CB
:1058900004E0A868401EA860FEF766FEFFF736FE2B
:1058A0002868844202D02046FEF79DFB68690028E4
:1058B00012D0286884420FD1686B28B140F2DC42D4
:1058C00009A112A0FAF7F8FD14494FF080500860C2
:1058D000BFF34F8FBFF36F8F70BD0000AC0100208E
:1058E00064080020200B00202E2E5C2E2E5C4D69BB
:1058F00064646C6577617265735C46726565525469
:105900004F535C7461736B732E6300004572726F4A
:10591000723A2025732C2025640D0A0004ED00E066
:1059200002490A6A0260C96841607047AC01002000
:1059300001490120C8617047AC01002070B50446E0
:105940000D46002C05D140F61C4208A110A0FAF724
:10595000B3FD1348016820461831FFF76FFD284654
:10596000BDE870400121FEF70DBA00002E2E5C2E1E
:105970002E5C4D6964646C6577617265735C467218
:10598000656552544F535C7461736B732E630000F2
:105990004572726F723A2025732C2025640D0A001F
:1059A000AC01002070B504460D461646002C05D10A
:1059B00040F652420FA118A0FAF77EFD60681A491E
:1059C0000A68D06182680B681A620A6883681832B4
:1059D0005A600A6818328260086884622068401C35
:1059E00020600EB14FF0FF3531462846BDE87040CB
:1059F000FEF7C8B92E2E5C2E2E5C4D6964646C6572
:105A000077617265735C4672656552544F535C747E
:105A100061736B732E6300004572726F723A2025BA
:105A2000732C2025640D0A00AC01002070B50E46D1
:105A30000446002856D0206D28B941F29F022AA1C1
:105A400032A0FAF739FDE56CB54200D23546E06A7E
:105A5000A84247D0206D012844D1304E306884429E
:105A600005D141F2BA0220A128A0FAF725FDE06A8B
:105A7000E562A169002902DBC5F12001A161284D81
:105A800000EB8000616905EB800081422AD1201D76
:105A9000FFF7B3FC012130B994F82C00326901FA08
:105AA00000F082433261E06A326981401143316122
:105AB00000EB800005EB80004068A0608168E16039
:105AC0008268211D51608160E06A00EB800005EB77
:105AD00080006061E06A00EB800055F82010491CEE
