:020000040800F2
:10000000C86E012071030008D53C0008D13C0008EF
:10001000D33C00082D2C00082944000800000000F3
:10002000000000000000000000000000B102000815
:100030007F2E0008000000000D030008D73C0008D8
:10004000AB030008AB030008AB030008AB030008D8
:10005000AB030008AB030008812E0008AB030008C7
:10006000AB030008AB030008AB030008AB030008B8
:10007000AB030008AB030008AB030008AB030008A8
:10008000AB030008312C0008AB030008AB030008E9
:10009000AB030008AB030008AB030008AB03000888
:1000A000AB030008AB030008AB030008AB03000878
:1000B000AB030008013D0008AB030008AB030008D8
:1000C000AB030008AB030008AB030008AB03000858
:1000D000AB03000815420008C94200089943000814
:1000E000AB030008AB030008AB030008AB03000838
:1000F000AB030008AB030008AB030008AB03000828
:10010000AB030008AB030008AB030008AB03000817
:10011000AB030008A93E00084D3D0008953D0008CE
:10012000AB030008AB030008AB030008AB030008F7
:10013000AB030008AB030008AB030008AB030008E7
:10014000AB030008AB030008AB030008AB030008D7
:10015000AB030008AB030008F12C0008E1430008E2
:10016000AB030008AB030008AB030008AB030008B7
:10017000AB030008AB030008AB030008000000005D
:10018000AB030008AB03000800F002F800F081F8B0
:100190000AA090E8000C82448344AAF10107DA45E2
:1001A00001D100F076F8AFF2090EBAE80F0013F0B3
:1001B000010F18BFFB1A43F00103184714CF0000CA
:1001C00034CF00000A444FF0000C10F8013B13F04C
:1001D000070408BF10F8014B1D1108BF10F8015BA0
:1001E000641E05D010F8016B641E01F8016BF9D193
:1001F00013F0080F1EBF10F8014BAD1C0C1B09D1EA
:100200006D1E58BF01F801CBFAD505E014F8016B5B
:1002100001F8016B6D1EF9D59142D6D370470000ED
:100220000023002400250026103A28BF78C1FBD8FF
:10023000520728BF30C148BF0B607047662908F0DD
:100240007B85672908F07885642900F0B5817529D8
:1002500000F0B281782900F0EB81632900F0258657
:10026000732900F02A86002070471FB508F057FD5B
:1002700000F06AFE04000020002108F045F9401C4F
:1002800060600020002108F029F9E0601FBD10B572
:1002900010BD00F0B3FF1146FFF7E7FF05F006F9C8
:1002A00000F0FAFF03B4FFF7F2FF03BC04F016FA04
:1002B0002C4B19680868B0E8F04F80F30988BFF349
:1002C0006F8F4FF0000080F311887047000000002E
:1002D00008480068006880F308884FF0000080F349
:1002E000148862B661B6BFF34F8FBFF36F8F00DF24
:1002F00000BF00BF08ED00E0DFF80C00016841F42A
:1003000070010160704700BF88ED00E0EFF30980E5
:10031000BFF36F8F134B1A681EF0100F08BF20ED4C
:10032000108A20E9F04F106009B44FF0500080F3BC
:100330001188BFF34F8FBFF36F8F07F02DFB4FF086
:10034000000080F3118809BC19680868B0E8F04F14
:100350001EF0100F08BFB0EC108A80F30988BFF3BD
:100360006F8F7047D4010020EFF3058070470000C5
:10037000DFF84400016841F470010160BFF34F8F62
:10038000DFF83800016821F040410160BFF36F8F52
:100390000B4880470B480047FEE7FEE7FEE7FEE715
:1003A000FEE7FEE7FEE7FEE7FEE7FEE70648074951
:1003B000074A084B7047000088ED00E034EF00E08A
:1003C000F13C000889010008C8620120C86E0120C4
:1003D000C8660120C8660120704753EA020C00F08D
:1003E00069802DE9F04B4FF00006002B1FBFB3FAD8
:1003F00083F503FA05F424FA05F65E4012BF1643AE
:10040000B2FA82F502FA05F4C5F120051EBF22FA00
:1004100005FC44EA0C04203556EA044C4FEA144427
:1004200018BF641C4FF000084FF00009904271EBB8
:10043000030C39D3002919BFB1FA81F701FA07F685
:10044000B0FA80F700FA07F6C7F120071EBF20FABE
:1004500007FC46EA0C062037B6FBF4FCA7EB0507C1
:10046000103F07F01F0BCBF120060CFA0BFB2CFA08
:1004700006F644BFB3460026202FA4BF5E464FF0C9
:10048000000B5BEA060C08BF4FF0010B19EB0B09E0
:10049000ABFB027C48EB0608C01B06FB02CC0BFB47
:1004A00003CC71EB0C01C1E70B46024641464846BE
:1004B000BDE8F08B13B54FF000004FF00001AFF333
:1004C0000080BDE81C4070470FB4044910B503AA72
:1004D000029800F0F7FC10BC5DF814FB60000020EF
:1004E0000FB47CB50C0009AA009001D02044401E36
:1004F000084B7B4469460190089800F0ACFC054627
:100500001CB10020694600F0B9FC28467CBC5DF8AF
:1005100014FB00009109000070B50446856900686D
:10052000C10601D5302600E02026C00707D070BDE7
:10053000D4E9012130469047206A401C20626D1E9C
:10054000F6D570BD70B5044685690078C00707D13F
:1005500070BDD4E9012120209047206A401C206210
:100560006D1EF6D570BD70B50C460546012A05D046
:100570002878800600D5EA69002302E0012305E01F
:100580005B1C934202D2E05C0028F9D1A869E6180E
:10059000C01AA861286A184428622846FFF7BCFFE1
:1005A00004E0D5E9012114F8010B9047B442F8D3D7
:1005B0002846FFF7C7FF70BD2DE9F041064600242D
:1005C00010687529314616A510D0AFF300800028B9
:1005D00002DA404213A507E031688A0701D512A567
:1005E00002E0490704D511A5012401E0AFF3008022
:1005F00000210A2206F1240709E0B0FBF2FCB0FB5F
:10060000F2F302FB1C00303078541846491C0028D5
:10061000F3D123462A463046BDE8F04100F0ADB99B
:10062000000000002D0000002B0000002000000052
:1006300070B504460D4621461068AFF3008021884E
:10064000090502D50F4A7A4402E00E4A7A440E3276
:10065000002104F1240305E000F00F060009965D77
:100660005E54491C0028F7D120780023000704D5E8
:10067000702D02D009B1022311322046BDE870402E
:1006800000F07BB926BE00002DE9F05F89460446E4
:100690004FF0000ADFF874B1FB44C0F820A02046F8
:1006A000E1688847002874D0252806D0D4E90121C4
:1006B0009047206A401C2062F1E700265F462046F2
:1006C000E16888472028054607DB312D05D27819D7
:1006D00010F8200C08B10643F1E7B00701D526F069
:1006E0000406C4F81CA00027C4F818A02A2D09D0BD
:1006F000284603F0ECFF38B304EB8708303DC8F818
:10070000185019E059F8041B204604EB8702916148
:10071000E1688847012F054618D1E069002820DAF2
:1007200026F020061DE0D8F8180000EB800005EB4D
:1007300040003038C8F818002046E1688847054670
:1007400003F0C5FF0028EED1012F0AD02E2D08D1CD
:100750002046E16888477F1C0546022F46F02006A8
:10076000C4DBA069002803DA404246F00106A0611C
:10077000F00701D026F010066C2D0BD0682D09D0A3
:100780004C2D39D06A2D35D0742D35D07A2D33D0FB
:1007900016E038E0E1682F4620468847B842054613
:1007A00009D16C2F26D04FF48060E16806432046C3
:1007B0008847054604E06C2F1AD04FF4807006433A
:1007C0000DB3A5F14100192802D8203546F4006682
:1007D0004A462946204626604E46FFF72FFD80B147
:1007E00001280BD0F61D26F0070000F1080956E796
:1007F0004020E4E78020D8E70020D6E706F104098E
:100800004DE7284652E7206ABDE8F09FFCBD000096
:10081000032A40F2308010F0030C00F0158011F82C
:10082000013BBCF1020F624498BF11F801CB00F804
:10083000013B38BF11F8013BA2F1040298BF00F858
:1008400001CB38BF00F8013B11F0030300F0258015
:10085000083AC0F0088051F8043B083A51F804CB3C
:10086000A0E80810F5E7121D5CBF51F8043B40F802
:10087000043BAFF30080D20724BF11F8013B11F80D
:1008800001CB48BF11F8012B24BF00F8013B00F851
:1008900001CB48BF00F8012B704710B5203AC0F0DB
:1008A0000B80B1E81850203AA0E81850B1E8185071
:1008B000A0E81850BFF4F5AF5FEA027C24BFB1E8AE
:1008C0001850A0E8185044BF18C918C0BDE810401F
:1008D0005FEA827C24BF51F8043B40F8043B08BF28
:1008E0007047D20728BF31F8023B48BF11F8012BEF
:1008F00028BF20F8023B48BF00F8012B704702F0E8
:10090000FF0343EA032242EA024200F0FCBA4FF03E
:10091000000200B5134694469646203922BFA0E84F
:100920000C50A0E80C50B1F12001BFF4F7AF09075B
:1009300028BFA0E80C5048BF0CC05DF804EB89004C
:1009400028BF40F8042B08BF704748BF20F8022B8F
:1009500011F0804F18BF00F8012B704770477047A7
:100960007047704710B500F0F3FA006810BD10B57D
:10097000044600F0EDFA046010BD2DE9F0470D4685
:1009800099469246044600F124080168880604D579
:10099000E06921F01001216000E00120A84201DDA2
:1009A000471B00E00027A1697A1902EB0900081A29
:1009B000A0612078C00602D42046FFF7ADFD0026D6
:1009C00008E0D4E901211AF806009047206A401C8B
:1009D000761C20624E45F4DB2078C0060AD52046FE
:1009E000FFF79AFD06E0D4E9012130209047206A04
:1009F000401C2062381EA7F10107F4DC07E0D4E9AF
:100A0000012118F805009047206A401C2062281E2A
:100A1000A5F10105F3DC2046FFF794FD20780006E0
:100A200002D50220BDE8F0870120FBE770472DE9E1
:100A3000FF4F0C461E464FF0FF378BB0D2E9000146
:100A4000DDF860800A908A46C1F30A5505B93D4633
:100A5000002108464FF00000BAF1000F00F44000FA
:100A600005DA00EB80004FF4400101EA50004FEA44
:100A70009059B9F1010F00DDB9460A9850EA4A00D1
:100A80000ED044F61050A5F2FF3545432F14B8F1AF
:100A9000000F1ED07542291E1EDDC9F100021CE0A8
:100AA000B8F1010F4FF0000001D0302103E0F24314
:100AB00005E02154401CB042FBDB304600220021FF
:100AC00021540B99C1F80880C1E900200FB0BDE89E
:100AD000F08FBD1B6D1CDEE74A4600DA694206A8AE
:100AE00000F012FB06AB93E8070003AB83E80700B6
:100AF00050460A9901F098FB8DE80700A0F50050D8
:100B00001F3800900398002D0ADD42F21F014A466B
:100B10000844002303A90390684601F043FE09E05E
:100B2000A0F500504A461F38002303A903906846E9
:100B300001F062FE8DE807000004000C03D04FF0C6
:100B4000FF30410800E01046B8F1000F03D000224A
:100B5000009215461EE0751E05D400F0FDF93032F6
:100B600062556D1EF9D5B3460122084302D000221A
:100B70007F1C04E02078302801D100227F1E002A4B
:100B8000099784D01DE0112D07DA00F0E5F9303225
:100B900062556D1C50EA0102F5D1084302D000985D
:100BA000C8B10EE00021681E05E0235C625C63545E
:100BB0002254401E491C8142F7DBAB46A81B401E55
:100BC0000990002004F80B000B98099AC0F80880DF
:100BD000C0E9002B7AE711264FF0000857E72DE90E
:100BE000F04F88460446D21D22F0070191B0D1E9AA
:100BF0000001CDE90A0103F018FC02460B98C00F72
:100C000001D02D2007E02068810701D52B2002E0CC
:100C1000202101EAC000032A099001D0072A05DB40
:100C200003464146204600F0DDF90BE120788006BE
:100C300001D5E06900E00620B8F1650F814606D0D5
:100C4000B8F1660F18D0B8F1670F70D131E000200D
:100C5000B9F1110F009001DB112301E009F101034B
:100C60000AAA01A90CA8FFF7E2FEDDE90C70002634
:100C700009F10105834647E001204B4600904FF003
:100C800000470AAA01A90CA8FFF7D1FEDDE90DB0C3
:100C90000C995D46002610B909F101000D18B9EB59
:100CA000050003D4C0F1FF3609F10105A5EB0900E9
:100CB0002BE0B9F1010F01DA4FF001090020B9F181
:100CC000110F0090484601DD112300E003460AAAF7
:100CD00001A90CA8FFF7ABFEDDE90C704D4600261C
:100CE0008346207800070AD4AB4500DA5D4601A8A8
:100CF000012D04DD411911F8011C302907D04F45A1
:100D000002DA17F1040F04DA012082460FE06D1EAB
:100D1000EEE7002F02DCED1B3E4403E0781CA84206
:100D200000DD7D1CB81B00F1010A4FF00047207860
:100D3000000703D4AA4501DB4FF0FF3A0021B7F1C9
:100D4000004F0DF143088DF8431024D002202B23CF
:100D5000002F01DA7F422D230A21021EA0F101009B
:100D600000DC5FB197FBF1FC97FBF1F201FB1C7C0F
:100D700017460CF1300C08F801CDEEE7A8F10100A0
:100D800003702188090501D5452100E06521A0F106
:100D9000010800F8011C09980FA9A1EB0807FF1D25
:100DA00000B10120411901EBEA70A1693844081A29
:100DB000401EA0612078C00602D42046FFF7ACFB9D
:100DC000099828B1D4E901219047206A401C20628B
:100DD0002078C00622D52046FFF79EFB1EE0002E9D
:100DE00004DBB34502DD01A8805D00E03020D4E9DA
:100DF00001219047206A401C2062761CAAF1010064
:100E00005FEA000A0AD100F09FF8C0680168405C00
:100E1000D4E901219047206A401C2062281EA5F1D8
:100E20000105DCDC07E0D4E9012118F8010B90474B
:100E3000206A401C2062381EA7F10107F3DC20461F
:100E4000FFF780FB032011B041E6000001694A1C56
:100E500002610878704700B58FB0CDE901310021FB
:100E6000059105497944CDE9031011466846FFF71D
:100E70000BFC0FB000BD0000E5FFFFFF0A6802F8A1
:100E8000010B0A607047D1E900239A4202D2531C39
:100E90000B601070704710B5436913B1AFF3008059
:100EA00001E0FFF760FB012010BD127800F1240182
:100EB0000A7000224A700122EDE711684FF0FF32FC
:100EC000E9E70000074B70B50D467B44FFF7C3FF11
:100ED0000446284600F08AF910B14FF0FF3070BD8B
:100EE000204670BD533B00007CB505460023684694
:100EF000CDE9003300F0D4F86946284603F0D4FB6E
:100F00007CBD4FF000020429C0F0128010F0030CE9
:100F10003FF4FFACCCF1040CBCF1020F18BF00F899
:100F2000012BA8BF20F8022BA1EB0C01FFF7F1BCAD
:100F30005FEAC17C24BF00F8012B00F8012B48BFF9
:100F400000F8012B704700000048704788620120BC
:100F5000004870476862012030B5B0F10A024FEADC
:100F6000900E71F100034EEA817EB0EB0E0061EB52
:100F700091014FEA101E4EEA017E10EB0E0041EB8C
:100F800011114FEA102E4EEA016E10EB0E0041EBEC
:100F900011214FEA104E4EEA014E10EB0E0041EBCC
:100FA0001141401841F100014FEAD00040EA417080
:100FB0004FEAD10110EB80054FEA810444EA9074B6
:100FC00044EB01046D1944EB0404521BA3414FF0A0
:100FD000000348BF0A3200D530BD401C41F100017A
:100FE00030BD00002DE9F0411F460446032601688C
:100FF000072A01F4006004DB08B116A505E016A578
:1010000003E008B115A500E015A521F0100020604F
:10101000A069C01EA0610FB1401EA0612046FFF76D
:101020007BFA4FB1D4E9012138469047206A401C31
:101030002062C01C206206E0206AFAE7D4E90121A0
:1010400015F8010B9047761EF8D22046FFF77AFA82
:10105000BDE8F0814E414E006E616E00494E460083
:10106000696E66000FB4002300B589B00CA9009129
:101070000B99CB60214B7B440693214B7B44079318
:1010800004236FF00042CDE901321E4A7A446B46D8
:1010900008920246002007F0B1FE09B05DF814FB8B
:1010A00070B506464FF0FF3015460C46324686B006
:1010B0000091CDE9010169460020049004A8FFF7E2
:1010C000D1FF02460498211825B108B1084600E076
:1010D00020462860049800280DD0002A02DD0098E0
:1010E000884208D03246081B69460094CDE90104C5
:1010F00004A8FFF7B7FF06B070BD0000DF010000D5
:10110000F7010000B70100002DE9F04781461646BF
:101110008AB0354878440DC88DE80D0032487844CF
:10112000801C03AC0DC884E80D0041F69B300844D8
:10113000372190FBF1F290FBF1F5A5F1800501FB61
:1011400012041B3C02D56442012000E00020DFF8BD
:1011500098A080460027FA44AAF1BE0A0EE0E007F4
:101160000AD03246684607EB470101230AEB8101AA
:1011700001F042FB8DE8070064107F1C002CEED1CB
:10118000194F7F44AE3F19E0E80715D007EB041074
:101190000DF1180A90E80E008AE80E00C068F042CF
:1011A00001D1981908903246012306A903A801F03D
:1011B00023FB03AB83E807006D10641C002DE3D113
:1011C0004FF0010332466946B8F1000F03A802D080
:1011D00001F0E8FA01E001F00FFBC9E90001C9F8EC
:1011E00008200AB0BDE8F08710B40000007B00F0D2
:1011F0008000704700487047686201207546FFF71D
:10120000F9FFAE4605006946534620F007008546C3
:1012100018B020B5FFF7CAF8BDE820404FF000062F
:101220004FF000074FF000084FF0000B21F00701CE
:10123000AC46ACE8C009ACE8C009ACE8C009ACE811
:10124000C0098D46704710B5044600F06FF800687D
:10125000005D00F0010010BD426842B1016811F864
:10126000013B23B1521EC0E900121846704701210C
:10127000C160881E704742685AB1C368016843B9AB
:1012800083688B4205D0491E521CC0E90012002021
:1012900070474FF0FF30704710B50446AFF3008041
:1012A0002046BDE81040FEF7FDBF00004FF0013CB6
:1012B00050F8042B51F8043B9A4221D1A2EB0C03C5
:1012C000934313EACC1317D150F8042B51F8043B85
:1012D0009A4215D1A2EB0C03934313EACC130BD122
:1012E00050F8042B51F8043B9A4209D1A2EB0C03AD
:1012F000934313EACC13DBD04FF00000704700BFDC
:10130000D01A01BAB1FA81F101F0180122FA01F004
:10131000CB40C1F12001DBB2C0B2C01A2CFA01F3FC
:10132000D11A914311EAC311E6D1704710B5FFF706
:101330000BFE001D10BD00BFD17100002DE9FF4F55
:1013400006468BB00878FF2806D0491C2D2805D00A
:1013500000244FF0000908E000200CE00124F8E729
:1013600009EB8903491C00EB43090878FF28F7D1F2
:1013700014B1C9F100008146107800252C46AA4618
:1013800029462D2801D02B2804D1521C2D2813D0FA
:10139000002082468B461078FF280FD04FF0000CBB
:1013A0000A21521CA5FB017804FB018105FB0C11ED
:1013B000C5194BEB0104EEE70120EAE700210846DE
:1013C0004FF00000BAF1000F02D000EB800040089F
:1013D000C0F38157012F01DD4FF0FF370E9955EA19
:1013E000040009EB01080BD04FF0020918F5FA7F51
:1013F00016DA4FEACA70002F706008DD012007E09E
:101400004FEACA70C6E900B00FB0BDE8F08F002007
:101410003060FFF79DFDC0F800901821084616E0E7
:10142000B8F5FA7F18DD002F02DAF748784401E0BA
:10143000F6487844D0E90010C6E9001040EACA70C6
:101440007060FFF785FDC0F80090142108460FB0CA
:10145000BDE8F04F07F06DBC002108464FF00000DA
:10146000B8F10001099002DAC7F1000200E03A4643
:1014700001DAC8F1000106A8FFF746FE06AB93E8C3
:10148000070003AB83E8070044F23E005BEA040177
:101490000090584604D144F21E012C465D4600914E
:1014A000210C0904014306D10099240444EA15449F
:1014B0002D041039009104F07F41014306D10099B9
:1014C000240244EA15642D020839009104F07041A9
:1014D000014306D10099240144EA15742D01091F26
:1014E000009104F04041014306D10099A40044EA70
:1014F0009574AD00891E009104F00041084304D1A9
:1015000000986D196441401E00904FF001033A4667
:101510006846B8F1000FCDE9014503A902DD01F0ED
:1015200080F901E001F053F9BAF1000F04460D46CD
:1015300001D084F00044002108464FF000000999D2
:1015400040F2FF77484010F00C0F07D124F0004024
:10155000284303D0C4F30A50B84212D1FFF7F8FC75
:10156000C0F80090C4F30A50B8420AD1A8487844A1
:10157000D0E90010C6E9001004F000410843706093
:1015800042E7C6E900543FE72DE9FF4F1F464FF001
:10159000000A4FF0FF38454691B0D7E90146CDF833
:1015A0003CA0FFF7D1FCC0680168405C1090B969AD
:1015B00012986D1C8847396A814688470028F6D101
:1015C000B9F1FF3F0AD0002E24F4D06411DDB9F147
:1015D0002B0F08D0B9F12D0F0BD102E0404615B00A
:1015E00013E744F48064B96912986D1C8847761E2D
:1015F0008146600504A901D52D2000E02B20002E96
:1016000001F1010B0DF130088DF810003FDDB9F14B
:10161000690F08D0B9F1490F05D0B9F16E0F02D0AA
:10162000B9F14E0F1CD13B4601A8009580E850024D
:10163000DDE912126FF0020007F0E4FBC11CCED10D
:101640000EE0B96912986D1C884781461398761E82
:1016500044F4007405600F98401C002E0F9016DDB6
:10166000B9F1300FEDD0B9F1780F02D0B9F1580FC0
:101670000DD10F9801280AD13B46CDE90054DDE990
:101680001212001F029607F0BBFBC11CA7D11099D4
:1016900089453ED144F0800406E01399681CAAF104
:1016A000010A44F400740860B9696D1C1298761E32
:1016B000884730288146F0D02BE01099894505D124
:1016C000200603D4761E44F0800418E0484602F059
:1016D000FEFF08B3761E0DF123018B4544F4007420
:1016E00008D2A9F130000BF8010B200607D5AAF1AA
:1016F000010003E0200602D40AF101008246A005A1
:1017000002D51399681C0860B96912986D1C884746
:101710008146002ED1DC53E0002E51DDB9F1650F7A
:1017200002D0B9F1450F4BD1A00549D5B9696D1C5F
:101730001298761E24F440748847002E81460CDDF2
:101740002B2804D0B9F12D0F07D144F48074B96966
:1017500012986D1C8847761E8146E00501D52D2123
:1017600000E02B2108F8011BCDF8008021E0761E57
:101770000DF13901884544F400740CD2A9F1300010
:1017800010F0FF0088F8000002D10099884509D9BF
:1017900008F1010806E0E00501D51E4801E042F22B
:1017A0000F708246B96912986D1C8847814613985C
:1017B0000560002E04DD484602F089FF0028D6D1DE
:1017C000F96912988847FF2053468BF8000088F883
:1017D000000000200A900B9004AA0CA90AA8FFF7A9
:1017E000ADFDA00502D46FF00100F8E614F0240F5F
:1017F00012D0E0071CD13868DDE90A12031D3B60F6
:101800000068C0E9001213E0C8BC0000BABC0000C8
:101810007EBB0000F1D8FFFF0AA9684602F044FF32
:10182000E00705D13868009A011D39600068026040
:101830002846D4E62DE9FF4F1F464FF03C0987B0FC
:101840004FF00042DDE9141001F10108DDF858A065
:1018500002EA405003900020059083460546044666
:101860000490B969461E08988847AAF1010A0290B7
:10187000BAF1000F3BDD02982E2815D0102100F0A0
:1018800016FA00282EDB4FF0010B0599014317D003
:10189000B9F1000F0BDB4A46C11700F0F5F905431B
:1018A0000C43A9F1040905E0012004900BE008B104
:1018B00045F0010501200590049820B9361D02E08D
:1018C000049800B1361FB969089808F101088847E3
:1018D000BBF1000FAAF1010A0290C9D00999C1F821
:1018E0000080C5E70298702808D0502806D0F96912
:1018F00008988847BBF1000F14D04FE000200290F9
:101900000120BBF1000F049009D0B969089808F1D3
:1019100001088847AAF10109B9F1000F07DCF9694C
:10192000089888476FF001000BB0BDE8F08F2B28B6
:1019300004D02D280CD14FF0FF300490B9690898DD
:1019400008F101088847A9F10109B9F1000FE6DDA6
:10195000411CE4D00A2100F0AAF90028DFDB02993B
:1019600008F1010801EB810100EB41000290B96927
:10197000089888470A2100F09AF9099AA9F1010903
:10198000B9F1000FC2F8008001DD0028E7DAF9693B
:10199000089888470499029800FB016655EA0400FC
:1019A00004D004F04041090002D006E0039898E01A
:1019B000A40044EA9574AD00B61E04F0004108008E
:1019C00002D16D196441761E159810F0240F03D0D2
:1019D0004FF00B095C4803E04FF028096FF07D00E1
:1019E0008246564507DAAAEB06018944B9F1410F50
:1019F00001DD4FF0410901200021A9F1010200F0B1
:101A000043F9024628400B462140084301D00121FA
:101A100000E00021501E029143F1FF312840214097
:101A2000084301D0012000E000200299834651EADA
:101A30000B014FD0002108464FF00000039900F43D
:101A4000400039B100EB80004FF4400100EBD07052
:101A500001EA60008015012802DD4FF0FF3000E050
:101A600013D0401C36D0029860B3BBF1000F0CD1EC
:101A70004A460120002100F007F928402140084390
:101A800001D0012000E00020E0B101204A46002101
:101A900000F0FAF8034640190A4661412D1A8C41BC
:101AA00011D3B9F1400F09DD159810F0240F02D0C1
:101AB000AAF1340603E0AAF1170600E0761C00251F
:101AC0004FF0004406E05B1E42F1FF3220EA0305BE
:101AD00021EA0204CAF10100B04206DA1B49039868
:101AE00008430190002000900EE0039AC4F3D32134
:101AF000E80A0A43164940EA44500A433146CDE910
:101B00000002684602F0D9FD159810F0240F0BD0A2
:101B10001598C00715D13868DDE90012031D3B6038
:101B20000068C0E900120CE002A8694602F0BCFDA2
:101B30001598C00705D13868029A011D3960006800
:101B400002604046F0E6000002FCFFFF0000F07F6C
:101B50000000F03F2DE9FF4F92461D4685B04FF043
:101B60000041DDE9124BDDE914727F1E01EA4B50A2
:101B7000414940F0FF4940EA0108002122F02000DD
:101B80004928049102D04E2828D04CE03BA00126E1
:101B900007C88DE80700A9690698641C88477F1E5E
:101BA000014606D41DF8060018B121F0200181423B
:101BB0000BD0E96906988847032E34D0082E32D01E
:101BC0006FF0010009B0BDE8F08F761C032E01D044
:101BD000082EE0D1601CCAF80000DCE7A96906986D
:101BE000641C88477F1E2AD420F02000412826D17B
:101BF000A9690698641C88477F1E20D420F0200025
:101C00004E281CD1A9690698641C88477F1E48F499
:101C1000002849F48009CAF8004001D4282806D0D9
:101C2000E969069888475FEACB7012D022E0A9697B
:101C30000698641C88477F1E01D4002803DAE969EE
:101C400006988847BCE72928F1D1641CCAF80040EF
:101C5000E9E71BF0240F07D028680499031D2B60C7
:101C60000068C0E9001805E02868021D2A600068C5
:101C7000C0F800902046A5E70000F07F494E464995
:101C80004E49545900000000B2F120030AD5C2F1B8
:101C9000200301FA02F120FA03F300FA02F041EA0C
:101CA0000301704700FA03F14FF0000070473A2833
:101CB00000D2303820F02002412A01D3A2F13700AF
:101CC000884201D34FF0FF30704700002DE9F04FFC
:101CD00081B02DED048B84B00588D0F804C0D0F815
:101CE00008806F1E0020B0EBD30F0CEB870B029720
:101CF000CDE9005300F0E68125F0070008EB8000F5
:101D0000039045F007009FEDBB0ADF084FEAD509B5
:101D100005F007060CEB800A604600BF0B68B9F1BE
:101D2000000FCBF800304B68CBF804308B68CBF851
:101D30000830CB68CBF80C300B69CBF810304B690E
:101D4000CBF814308B69CBF81830CB69CBF81C304A
:101D500090ED006A90ED015A90ED027A90ED031A31
:101D600090ED042A90ED054A90ED063A00F044818A
:101D70004FF0000EF0EE400AF0EE401AF0EE402A6E
:101D8000F0EE403AF0EE404AF0EE405AF0EE406A93
:101D90004B46F0EE407A00BF08EB0E0494ED008A4B
:101DA00000EB0E0523EE089A26EE086A71EE891AFA
:101DB00094ED019A37EE866A65EE087A76EEA76AA8
:101DC00067EE087A25EE095A75EEA75A61EE087A91
:101DD00036EE055A27EE096A74EEA74A62EE087AD3
:101DE00076EE866A21EE096A73EEA73A64EE087A07
:101DF00075EE865A22EE096A72EEA77AD5ED072AA9
:101E000074EE864A24EE096A73EE863A23EE096A76
:101E100028EE228A77EE867A95ED086A70EE880AB7
:101E200022EE898A71EE881A29EE068A94ED029ACA
:101E300070EE880A27EE097A35EE077A21EE095A04
:101E400076EE856A22EE095A75EE855A24EE095A15
:101E500074EE854A23EE095A73EE853A22EE895ACA
:101E600077EE857A95ED095A26EE098A71EE881A81
:101E700029EE058A94ED039A70EE880A21EE091A7C
:101E800037EE011A22EE097A76EE876A24EE097A95
:101E900075EE875A23EE097A74EE874A22EE897A24
:101EA00073EE873A26EE097A77EE877A95ED0A7A0D
:101EB00025EE098A71EE881A29EE078A94ED049AB4
:101EC00070EE880A22EE092A31EE022A24EE091A5F
:101ED00076EE816A23EE091A75EE815A22EE891A8E
:101EE00074EE814A26EE091A73EE813A25EE091A3C
:101EF00077EE817A95ED0B1A27EE098A71EE881A32
:101F000029EE018A94ED059A70EE880A24EE094ABA
:101F100032EE044A23EE092A76EE826A22EE892AFC
:101F200075EE825A26EE092A74EE824A25EE092AB7
:101F300073EE823A27EE092A77EE827A95ED0C2A23
:101F400021EE098A71EE881A29EE028A94ED069A2A
:101F500070EE880A23EE093A34EE033A22EE894AFB
:101F600076EE846A26EE094A75EE845A25EE094A11
:101F700074EE844A27EE094A73EE843A21EE094A48
:101F800037EE848A95ED0D4A62EE097A71EEA71A52
:101F900069EE047A94ED079A70EEA70A62EE892A38
:101FA00073EE227A26EE093A76EE836A25EE093A36
:101FB00075EE835A27EE093A74EE834A21EE093A08
:101FC00073EE833A22EE093A78EE032A95ED0E3A43
:101FD00024EE098A71EE881A29EE038A70EE880AC7
:101FE000B9F101090EF1200E7FF4D6AE039D5446DF
:101FF000994614E00000000000F11C044546F0EE94
:10200000407AF0EE406AF0EE405AF0EE404AF0EED0
:10201000403AF0EE402AF0EE401AF0EE400A20314D
:102020000BF1200BA6B3334695ED008A043526EE5E
:10203000086A77EE867AB0EE456A25EE085A76EEA3
:10204000856AB0EE475A27EE087A75EE875AB0EEE9
:10205000417A21EE081A74EE814AB0EE421A22EE5D
:10206000082A73EE823AB0EE442A24EE084A72EE51
:10207000842AB0EE434A94ED003A24EE089A28EE02
:10208000038A71EE891A70EE880A0434013BCBD1C1
:1020900002F120052030C2ED007AC2ED016AC2EDE6
:1020A000025AC2ED034AC2ED043AC2ED052AC2ED5E
:1020B000061AC2ED070A013F0AF1200A2A467FF4F8
:1020C0002DAE01E060461546019A12F0070225D0B8
:1020D0009FED280ADDF800E051F8043BBEF1000F47
:1020E0004BF8043BB0EE401A13D000237746B0EE15
:1020F000401A00BF08EB0304C61896ED002A94EDC1
:10210000003A013F22EE032A31EE021A03F10403E2
:10211000F0D1A5EC011A0430013ADDD1029F002173
:10212000B1EB970F16D0B90802680CF11003CCF888
:10213000002042680139CCF804208268CCF80820DD
:1021400000F11002C068CCF80C009C461046EBD1A0
:1021500010469C4617F0030106D000BF50F8042B30
:1021600001394CF8042BF9D104B0BDEC048B01B05B
:10217000BDE8F08F00000000B0B505460498298046
:1021800008446FF0030101EB800118461C46AA6069
:10219000FEF7BDFB6C60B0BD9FED201A9FED202ABD
:1021A00020EE010ABDEEC01A11EE100AB5EE400A8B
:1021B000F1EE10FAB8BF013801EE100AB8EEC11AFC
:1021C00030EE410A20EE020ABDEEC01A9FED152A3C
:1021D00011EE100A002130EE021AB1EB502F4CF62E
:1021E000CC011CBF0020B0EE410AC0F6000101EE98
:1021F000100A01EB8001B8EE411A30EE410A91ED70
:10220000001A91ED012AB7EE003A33EE403A23EE80
:10221000011A20EE020A31EE000A704783F9223ECD
:1022200000000044000000C45FEA400C08BF91F0C9
:10223000000F4FEA8C234FEAC12243EA51514FEA83
:102240001C5018BF00F5F0404FEA300018BF41F0B5
:1022500000415FEA6C5C00F02980BCF1FF3F08BFE1
:1022600040F080407047130C06BF12044FF0100C72
:102270004FF0000C130E04BF12020CF1080C130FE8
:1022800004BF12010CF1040C930F04BF92000CF177
:10229000020CD30F04BF52000CF1010C11464FF099
:1022A0000002A0F11F00A0EB0C00704711F0004FDE
:1022B00008BF704731F000413FF4D5AF0B0C06BFAB
:1022C00009044FF0100C4FF0000C0B0E04BF090274
:1022D0000CF1080C0B0F04BF09010CF1040C8B0F5F
:1022E00004BF89000CF1020CCB0F04BF49000CF1B4
:1022F000010CCCF12003A0EB0C0022FA03F302FA4C
:102300000CF241EA030100F10100704720F07F4C1C
:1023100080EA030023F07F47ACEB070303F57C530F
:1023200000F0004003F1FF032DE980494FEA154B0F
:1023300009B44FEA144325EA0B4E24EA03480FF28E
:10234000042606EB132749083E785FEA320203FBB6
:102350000667C7F5000707FB06F64FEA54374FEA52
:10236000D64606F1020607FB066CCCF1005C4FEA8C
:102370001C472CEA074C07FB06F40CFB06F504EBA4
:1023800015464FEA961634BF00204FF000404FEA42
:10239000D13706FB07FC4FEA1C4C0CFB0BF7D21B9A
:1023A00003FB0CF761EB07010CFB0EF7B0EB0740EA
:1023B00072EB17420CFB08F734BFA2EB0742B2EBFB
:1023C000074261EB17414FEA0C444FEA910706FBC5
:1023D00007FC4FEA1C4C0CFB0BF7B0EBC74072EB51
:1023E000573203FB0CF734BFA2EBC742B2EBC74234
:1023F00061EB57310CFB0EF7B0EBC70072EB577275
:102400000CFB08F734BFA2EBC702B2EBC70261EBCB
:102410005771039F4FEA816141EA921104EBCC04AA
:102420004FEAD1374FEA826206FB07FC42EA90127C
:102430004FEA80604FEA1C4C0CFB0BF7D21B03FBEE
:102440000CF761EB07010CFB0EF7B0EB074072EBEA
:1024500017420CFB08F734BFA2EB0742B2EB07426E
:1024600061EB17414FEA8C554FEA910704EB9C242E
:1024700006FB07FC4FEA1C4C0CFB0BF7B0EBC7400C
:1024800072EB573203FB0CF734BFA2EBC742B2EB3F
:10249000C74261EB57310CFB0EF7B0EBC70072EB94
:1024A00057720CFB08F734BFA2EBC702B2EBC702AE
:1024B00061EB577115EB4C254FEA816141EA9211AE
:1024C0004FEA82624FEAD13742EA901206FB07FCDC
:1024D00044F100044FEA80604FEA1C4C0CFB0BF700
:1024E000D21B03FB0CF761EB07010CFB0EF7B0EB03
:1024F000074072EB17420CFB08F734BFA2EB074210
:10250000B2EB074261EB174115EB1C154FEA813125
:1025100041EA92414FEA823242EA90424FEA8030E9
:102520004FEA0C7644F1000448EA03434EEA0B48B4
:102530004FF0000EB2EB080C71EB030724BF6246AC
:1025400039464EEB0E0E4FF0000B00185241494138
:102550004BEB0B0BB2EB080C71EB03077BF1000BA1
:1025600024BF624639464EEB0E0E4FF0000B0018AA
:10257000524149414BEB0B0BB2EB080C71EB0307DB
:102580007BF1000B24BF624639464EEB0E0E51EA3A
:10259000020718BF46F0010616EB0E7655F1000251
:1025A00054F1000103D5BDE88901BDE80088BDE80C
:1025B0008901BDE80048B619524141EB0101A3F180
:1025C0000103704780807F7E7D7C7B7A7978777687
:1025D00076757473727171706F6E6E6D6C6C6B6A00
:1025E0006A6968686766666564646363626161609E
:1025F000605F5F5E5E5D5D5C5C5B5B5A5A5959581B
:102600005857575656555555545453535252525184
:10261000515050504F4F4F4E4E4D4D4D4C4C4C4BDA
:102620004B4B4A4A4A494949484848474747474621
:10263000464645454544444444434343434242425D
:102640004241414146EA0646A3F570534FEA164619
:1026500046EA42564FEAD22242EA415210B54FEAC8
:10266000D121A3F1010300F02FF820F0004000F188
:10267000020C00F0004701EB00501146BCF5006F62
:1026800040EA070000D210BDBAF1000F0AD01CB515
:1026900003B44FF004004FF004014FF000000FBCF2
:1026A000BDE810404FF00001BBF1010FB9BF044875
:1026B0004FF0FF310348002140EA070010BD00BF82
:1026C000FFFFEF7F0000F07F002B9C4630D47700A7
:1026D0002BD01CB54FEA370703B44FF010004FF072
:1026E0001001BAF1000F06D0BCF1000FDCBF40F0C2
:1026F000080040F008014FF000000FBCBDE810409A
:102700000BF1010BBBF1010F08BF5FEA170722BFF6
:1027100012F1010211F101014FF0004143F10003F8
:1027200000F0004043EA00007047F9D35708D0E7B3
:1027300046EA064613F1400F4FEA16461FDD13F135
:10274000200FDFBF16430A46002120335B42BED074
:10275000C3F1200746EA064602FA07F74FEA164693
:1027600046EA0706C3F1200722FA03F201FA07F747
:1027700021FA03F14FF0000342EA0702A7E746EA15
:10278000020646EA06464FEA164646EA0106BCBF7E
:1027900046EA0646360C4FF000034FF000024FF0B9
:1027A000000194E72DE9804C9A46934670B491E875
:1027B000380007C831EA400C48BF34EA430C03D55F
:1027C000FFF7A4FDFFF780FFF0BCBDE8008C2DE90A
:1027D000804C9A46934670B491E8380007C831EAB5
:1027E000400C48BF34EA430C03D5FFF78FFDFFF7D9
:1027F00029FFF0BCBDE8008C2DE9804C9A46934639
:1028000070B491E8380007C810F0804F08BF13F08B
:10281000804F03D100F01AF8FFF756FFF0BCBDE877
:10282000008C2DE9804C9A46934670B491E83800AC
:1028300007C810F0804F08BF13F0804F03D100F09D
:1028400005F8FFF7FFFEF0BCBDE8008C20F07F47E5
:1028500080EA030023F07F4C07EB0C03A3F57C53C5
:1028600000F00040A3F1FE0392F0000F00F0B380EF
:1028700095F0000F00F077802DE901494FEA1140F3
:102880004FEA144621EA004800FB06FC24EA06470A
:1028900008FB06F607FB08F800FB07F718EB0648ED
:1028A0004CEB164C4FEA124B18EB07484FEA154613
:1028B0004CEB174022EA0B4E0BFB06FC25EA0647C1
:1028C0000EFB06F607FB0EFE0BFB07F71EEB064E94
:1028D0004CEB164C4FF000061EEB074E4CEB174B23
:1028E00018EB0B0840F1000018EB0E0B58EB00083A
:1028F00040F100008F1A4FF000013CBFC943661B36
:1029000014BFB5EB040C00213CBFC943F61B4FEAD2
:1029100017444EEA8E0E27EA04454FEA1C4704FB93
:1029200007622CEA074C05FB07F70CFB05F604FBD6
:102930000CFC16EB074642EB174216EB0C4642EB3B
:102940001C421BEB060658EB0202414146EA9E067A
:1029500001D5BDE80189B619524141EB0101A3F14E
:102960000103BDE801894FEA14454FEA114724EA03
:10297000054621EA074C05FB07F406FB07F70CFBAD
:1029800006F105FB0CFC11EB074144EB17444FEA41
:10299000124711EB0C4144EB1C4422EA074C05FBA7
:1029A00007F206FB07F70CFB06F605FB0CFC16EB23
:1029B000074642EB174216EB0C4642EB1C456A18E1
:1029C00054F1000148BF7047B619524141EB010173
:1029D000A3F10103704795F0000F37D04FEA114281
:1029E0004FEA144721EA024624EA074C02FB07F1AA
:1029F00006FB07F70CFB06F402FB0CFC14EB074488
:102A000041EB17414FEA154714EB0C4441EB1C41D5
:102A100025EA074C02FB07F506FB07F70CFB06F659
:102A200002FB0CFC16EB074645EB174516EB0C4674
:102A300045EB1C42121951F1000148BF7047B6190D
:102A4000524141EB0101A3F1010370474FEA1445E4
:102A50004FEA114724EA054621EA074C05FB07F136
:102A600006FB07F70CFB06F24FF0000605FB0CFC1B
:102A700012EB074241EB174112EB0C4251EB1C41A8
:102A800048BF7047921841EB0101A3F10103704761
:102A90002DE9F04387B0142102A8FDF738FF002587
:102AA0005D48016841F002010160016801F0020126
:102AB0000191016841F004010160016801F0040125
:102AC0000191016841F008010160006800F0080010
:102AD0000190012403940495022605960294DFF8E0
:102AE0003C8102A9404600F0D3FA0C20029002A9D2
:102AF000404600F0CDFA2020029002A9404600F0A6
:102B0000C7FA27020297DFF8189102A9484600F099
:102B1000BFFA4020029002A9404600F0B9FA802096
:102B2000029002A9404600F0B3FA1020029002A9D8
:102B3000404600F0ADFA00224021404600F097FBED
:102B400000228021404600F092FB012210214046E5
:102B500000F08DFB039504940594029402A9484665
:102B600000F096FA039404950594029602A9404653
:102B700000F08EFA029402A92A4800F089FA03951F
:102B8000049405966002029002A9484600F080FA7B
:102B9000254803900494029402A9484600F078FA6C
:102BA00006210022084600F0F7FB062000F0E7FBB4
:102BB00000222021404600F05AFB012239464846B7
:102BC00000F055FB00220121404600F050FB01229D
:102BD0001146404600F04BFB01221146404600F0F2
:102BE00046FB01221146404600F041FB01221146FE
:102BF000404600F03CFB00220121404600F037FB3C
:102C000001220C21404600F032FB0A2001F036FE82
:102C100007B0BDE8F08300003038024000080240F1
:102C200000040240000C024000002110FEE70000FA
:102C300070B52B482C4D2C4A00682A4B2A4C603D1D
:102C4000B83A984205D927495439096801F4001166
:102C500010E0A04205D923495839096801F4001150
:102C600008E0A84203D9516801F4001102E011689C
:102C700001F40011002931D04FF40011984203D91A
:102C800018484C3801600AE0A04203D91548503872
:102C9000016004E0A84201D9D16000E09160134CCA
:102CA0006FF040002168086020684169C1F3C011DD
:102CB00094F83D20212A11D100290FD0416921F03B
:102CC00080014161606B08B100F0F8F82068C168CC
:102CD00021F0C001C160202084F83D0070BD0000DB
:102CE000801C002058640240B8600240E81D0020AB
:102CF00070B52B482C4D2C4A00682A4B2A4C603D5D
:102D0000B83A984205D927495439096801F0006159
:102D100010E0A04205D923495839096801F0006143
:102D200008E0A84203D9516801F0006102E011688F
:102D300001F00061002931D04FF00061984203D9C1
:102D400018484C3801600AE0A04203D915485038B1
:102D5000016004E0A84201D9D16000E09160134C09
:102D60006FF040002168086020684169C1F3C0111C
:102D700094F83D20212A11D100290FD0416921F07A
:102D800080014161606B08B100F098F82068C1686B
:102D900021F0C001C160202084F83D0070BD00001A
:102DA000C01B002058640240B8600240E4190020B3
:102DB0000168CAB2103A1823B2FBF3F2064B9B5CCF
:102DC000C3656FF30901032A02D9091D816500E07B
:102DD0008165806D70470000E894000810B50146D9
:102DE00000208A6A8B694FF0C074002B0ED0B3F5B7
:102DF000005F1AD062B3012A2AD0022A28D0032AFF
:102E000003D1C96AC90100D5012010BD1AB1012A38
:102E100006D0022AF9D1C96AC901F6D5012010BD30
:102E2000C96AA142FBD1012010BD52B1012A0AD0CA
:102E3000022A06D0032AF7D1C96AA142F4D101209F
:102E400010BD012010BDC96AC901FBD5012010BD0C
:102E5000012010BD30B50468256825F48025256063
:102E6000046863608368402B04D00368996000683D
:102E7000C26030BD03689A600068C16030BD7047B1
:102E800008B50B49012008600020009009486A46F7
:102E90000021006804F0F6FB0098002807D00649DE
:102EA0004FF080500860BFF34F8FBFF36F8F08BDA6
:102EB000143C01404400002004ED00E02DE9F04105
:102EC0000446A76D00F0E0F9054694F835000026A9
:102ED000022806D08020606584F834600120BDE8B7
:102EE000F0812068016821F01601016020684169C5
:102EF00021F080014161206C08B9A06C20B12068EC
:102F0000016821F0080101602068016821F00101D9
:102F100001600BE000F0B8F9401B052806D920201D
:102F200034342062267003206070D8E7206800687F
:102F3000C007EFD134343F2094F828108840B8609F
:102F40002670012060700020C9E700002DE9F041E3
:102F5000044600F099F905465CB1002684F8346017
:102F6000022084F835002068016821F00101016029
:102F70000DE00120BDE8F08100F086F9401B052836
:102F800005D920206065032084F83500F2E7206829
:102F90000068C007F0D121680A6820480240D4E9DF
:102FA00001031843D4E903352B43184363691843DD
:102FB000A3691843E3691843236A18431043626AFC
:102FC000042A03D1D4E90B231A4310430860206874
:102FD000406920F00700656A294605430127042956
:102FE0000DD1A06A0543E06A48B12046FFF7F6FE1E
:102FF00028B14020606584F835700120BAE7206868
:1030000045612046FFF7D4FE94F85C203F219140B3
:103010008160666584F835700020ABE73F8010F072
:103020002DE9F04104460025A66D94F834000128EE
:103030000DD0012084F8340094F835700020012F61
:1030400007D084F8340002252846BDE8F08102202C
:10305000FBE7022784F8357060652046FFF7FAFE2B
:1030600094F85C103F208840B0602068016841F00F
:1030700016010160206C20B12068016841F0080150
:1030800001602068016841F001010160DCE7000097
:103090002DE9F84F0022DFF89C914FF0010809F16B
:1030A000040A03274FF00F0C0AF1040B08FA02F58B
:1030B0000B682B40AB4272D10C7904F00304012C55
:1030C00001D0022C15D18668540007FA04FE26EAC6
:1030D0000E06D1F80CE00EFA04FE4EEA060EC0F819
:1030E00008E04468AC430D79C5F3001595402543CD
:1030F00045600C79E443A40708D0C568540007FA7A
:1031000004F6B5438E68A6402E43C6600C7904F0E1
:103110000304022C11D1D40800EB8406356A54074D
:10312000E40E0CFA04FE25EA0E05D1F810E00EFAC2
:1031300004FE4EEA050EC6F820E00568540007FAC2
:1031400004F6B5430E7906F00306A6402E4306604A
:103150004C68E40067D5384C256845F48045256007
:10316000246804F480440094344C22F003052E19A2
:10317000D6F8085894074FEA147E0CFA0EF4A543CB
:103180002F4CA04201D1002424E02E4CA04201D1BA
:1031900001241FE02C4CA04202D102241AE042E09C
:1031A0002A4CA04201D1032414E0294CA04201D1B1
:1031B00004240FE0274CA04201D105240AE0264C4C
:1031C000A04201D1062405E0244CA04201D10724ED
:1031D00000E0082404FA0EF42C43C6F80848D9F895
:1031E00000409C434D68ED0300D51C43C9F80040E6
:1031F000DAF800409C434D68AD0300D51C43CAF883
:103200000040DBF800409C434D68ED0200D51C43B4
:10321000CBF80040074D0C352C689C434E68B60235
:1032200000D51C432C60521C102AFFF43FAFBDE8B0
:10323000F88F0000003C014044380240003001405B
:10324000000002400004024000080240000C02405E
:10325000001002400014024000180240001C02400E
:103260000069084201D00120704700207047002A01
:1032700001D081617047090481617047014800688D
:10328000000C7047002004E001488068704700008F
:103290006400002070B50446002C11D021684CF663
:1032A000CC400860216845F255500860D4E9001010
:1032B00048602168A0688860FFF7E6FF05460CE0DB
:1032C000012070BDFFF7E0FF401B302805D92068C2
:1032D000C068800701D0032070BD2068C0688007E7
:1032E000F0D121684AF6AA200860002070BD00686D
:1032F0004AF6AA2101600020704700000248816858
:1033000002781144816070476400002010B50948BC
:10331000016841F400710160016841F4806101605D
:10332000032000F059F80F2000F006F800F026F80E
:10333000002010BD003C024070B504460D4D4FF416
:103340007A712878B1FBF0F00B490968B1FBF0F015
:1033500000F042FB08B1012070BD102C07D2002202
:103360002146501E00F018F86C60002070BD01204E
:1033700070BD00006400002000000020704700289D
:1033800009DB00F01F02012191404009800000F19B
:10339000E020C0F800117047F0B40D460D4B1B68DB
:1033A000C3F30223C3F10704042C00D90424191D1C
:1033B000072901D2002300E0DB1E012606FA04F1F2
:1033C000491E294099409E40761E16403143F0BC6C
:1033D00001F043B80CED00E000F00701054A106869
:1033E0004FF6FF03184040EA0120034908431060EC
:1033F000704700000CED00E00000FA052DE9F047F1
:1034000004460D46002C13D0DFF82891D9F80000AF
:10341000EFB200F00700A8420CD289F80070D9F88A
:10342000000000F00700A84204D00120BDE8F087AA
:103430000120FBE72068404E810712D5400703D5E5
:10344000306840F4E05030602078000703D53068E1
:1034500040F4604030603068A16820F0F00008431C
:1034600030602078C00731D03349606808390128BE
:1034700008D002280BD0032809D0096889070BD48B
:103480000120D3E70968890306D40120CEE7096843
:10349000890101D40120C9E7316821F0030101430A
:1034A0003160FFF7F1FE804641F2883A07E0FFF70E
:1034B000EBFEA0EB0800504501D90320B6E73068C9
:1034C000616800F00C00B0EB810FF0D1D9F800007A
:1034D00000F00700A84209D989F80070D9F8000067
:1034E00000F00700A84201D001209FE720784007A4
:1034F00005D53068E16820F4E0500843306020785A
:10350000000706D53068216920F4604040EAC10018
:10351000306000F03FF83168084AC1F30311515C94
:10352000C8400749086007480068FFF705FF00200A
:103530007CE70000003C024008380240388E00085A
:10354000000000206800002001480068704700006B
:103550000000002000B5FFF7F7FF04490968044A9E
:10356000C1F38221515CC84000BD00000838024010
:10357000488E000800B5FFF7E7FF04490968044AD0
:10358000C1F34231515CC84000BD00000838024020
:10359000488E000810B51748006810F00C01164856
:1035A00016D04310042912D0082911D1114C241F20
:1035B000216801F03F02216849020AD52068C0F362
:1035C0008810A0FB03010023FCF707FF09E0184661
:1035D00010BD21680023C1F38811A1FB0001FCF795
:1035E000FCFE2168C1F30141491C4900B0FBF1F028
:1035F00010BD0000083802400024F4002DE9F84F07
:103600000446002C13D02078DFF8A083C007A8F16F
:10361000040556D008F104000168C1F381010129B5
:103620000CD00068C0F38100022803D00DE0012017
:10363000BDE8F88FD8F80000400206D5286880035E
:103640003FD5606870BB0120F2E76068B0F5803F4D
:1036500010D0B0F5A02F12D0286820F48030286058
:10366000286820F4802028606068E0B1FFF70CFE35
:10367000064614E0286840F480302860F4E72868A3
:1036800040F480202860286840F480302860EBE710
:10369000FFF7FAFD801B642801D90320C8E72868DA
:1036A0008003F5D50DE0FFF7EFFD064606E0FFF7D6
:1036B000EBFD801B642801D90320B9E7286880034B
:1036C000F5D42078BA4F80074FF0000948D5B748A5
:1036D000001D016811F00C0F08D00068C0F38100D4
:1036E000022813D1D8F8000040020FD428688007C0
:1036F00004D5E068012801D0012099E728682169F4
:1037000020F0F80040EAC100286029E0E068B8B184
:1037100001203860FFF7B8FD064606E0FFF7B4FD6C
:10372000801B022801D9032082E728688007F5D58D
:103730002868216920F0F80040EAC10028600FE005
:10374000C7F80090FFF7A0FD064606E0FFF79CFDD6
:10375000801B022801D903206AE728688007F5D476
:103760002078000729D5DFF844A2924861690AF160
:10377000700A89B101210160FFF786FD064606E067
:10378000FFF782FD801B022801D9032050E7DAF8F9
:1037900000008007F4D510E0C0F80090FFF774FD3A
:1037A000064606E0FFF770FD801B022801D90320C2
:1037B0003EE7DAF800008007F4D42078400778D597
:1037C0004FF0000A79483C300068C0000BD47748BD
:1037D0003C30016841F080510160006800F0805089
:1037E00000904FF0010ADFF8D0B1DBF80000C0050F
:1037F00014D4DBF8000040F48070CBF80000FFF731
:1038000043FD064606E0FFF73FFD801B022801D975
:1038100003200DE7DBF80000C005F4D5634EA06877
:103820006C3601280FD0052812D0306820F0010036
:103830003060306820F004003060A068F8B1FFF715
:1038400023FD834617E0306840F001003060F4E764
:10385000306840F004003060306840F001003060B3
:10386000EBE7FFF711FDA0EB0B0141F2883081423D
:1038700001D90320DCE630688007F2D510E0FFF7BD
:1038800003FD834609E0FFF7FFFCA0EB0B0141F2CB
:103890008830814201D90320CAE630688007F2D41B
:1038A000BAF1010F05D141483C30016821F0805147
:1038B0000160A069C0B33D49091D09684FF0FF369A
:1038C000C1F38101022946D0022805D0C7F86090D3
:1038D000FFF7DAFC04463AE0C7F86090FFF7D4FC43
:1038E000814607E0FFF7D0FCA0EB0900022801D9D0
:1038F00003209DE628688001F4D4D4E90701084339
:10390000616AA26A890106EB520241EA0241084358
:1039100094F82C1040EA0160C8F8000001203866D5
:10392000FFF7B2FC044607E03DE0FFF7ADFC001BEB
:10393000022801D903207BE628688001F5D532E012
:10394000FFF7A2FC001B022801D9032070E62868BB
:103950008001F5D427E0012823D0D8F80000E269DF
:1039600000F4800191421AD1226A00F03F01914295
:1039700015D147F6C071626A0140B1EB821F0ED1CA
:10398000A26A00F4403106EB5202B1EB024F06D1BD
:1039900094F82C1000F07060B0EB016F03D00120A0
:1039A00046E6012044E6002042E6000004380240DA
:1039B00000004742800E4742007000404FF0E02177
:1039C000042804D0086920F00400086170470869E1
:1039D00040F004000861704710B5401EB0F1807FD0
:1039E00001D3012010BD4FF0E02460610F2160176A
:1039F00000F033FD0020A06107202061002010BDF1
:103A000010B50446002C03D094F83D0010B107E037
:103A1000012010BD002084F83C00204600F015F87D
:103A2000022084F83D00211D206800F0D7F9012014
:103A30003D3460726070A070E07020716071A071A0
:103A4000E07120722070002010BD704790F83D108A
:103A5000012901D001207047022180F83D10016842
:103A6000CA6842F00102CA6000681449884214D052
:103A7000B0F1804F11D0124988420ED011498842CE
:103A80000BD01149884208D01049884205D010490E
:103A9000884202D00F49884209D1816801F00701AC
:103AA000062908D0016841F00101016003E00168C6
:103AB00041F001010160002070470000000001405A
:103AC0000004004000080040000C004000040140D9
:103AD00000400140001800407047704770B5044630
:103AE000002C04D094F83D00002510B106E0012020
:103AF00070BD84F83C50204600F022F8242084F861
:103B00003D002068C16821F40051C160204600F0EA
:103B10008BFA2068016921F49041016120684169B4
:103B200021F02A0141612068C16841F40051C1605F
:103B30002564202084F83D0084F83E00002070BDFC
:103B400070472DE9F84F04460E461546984694F8FE
:103B50003E00202802D00220BDE8F88F0EB305B346
:103B600094F83C0001281ED0012084F83C004FF05E
:103B7000000AC4F840A0222084F83E00C4F830A017
:103B8000FFF782FB8146A585E585A0684FF4805745
:103B9000B84201D1206940B13546002684F83CA0E6
:103BA00028E00120D8E70220D6E70025F6E74B46BB
:103BB000002220212046CDF8008000F0F9FA08B15B
:103BC0000320C9E725B1A068B8421BD038B108E08E
:103BD00020684068C0F3080026F8020B07E020695F
:103BE00080B12068406800F07F0028706D1CE08D77
:103BF000401EE085E08D0028D9D1202084F83E00C9
:103C00000020A9E7206840682870EFE790F83E3070
:103C1000202B01D00220704759B152B190F83C30AE
:103C2000012B08D0012380F83C300023036300F00F
:103C300085BA012070470220704770477047000026
:103C4000F7B5044694F83D00202801D00220FEBDBF
:103C5000019979B372B394F83C0001282DD001206A
:103C600084F83C002162A284E2840025256421209E
:103C700084F83D00636B1248D863636B1148186485
:103C8000636B1148D864606B056520681346001D9E
:103C9000666B02463046FFF7C3F921686FF04000BB
:103CA000086084F83C502068416941F0800141611E
:103CB0000020FEBDFFE70120FBE70220F9E700003E
:103CC000AF3F0008DD3F0008F13E00087047704735
:103CD000FEE7FEE7704710B5FFF710FB04F052F95E
:103CE000012803D0BDE8104003F040BF10BD000024
:103CF0000248016841F470010160704788ED00E0FE
:103D000010B5104800680169C943C90718D1891E58
:103D100001610D4C00220C212046FFF7A8FA002279
:103D20000C212046FFF7A3FA00220C212046FFF7C2
:103D30009EFA20460122BDE810400C21FFF797BAF9
:103D400010BD0000181B00200008024008B50E48F6
:103D500000680169C943C90714D1891E01610020A7
:103D600000900A486A460021006803F08BFC009826
:103D7000002807D006494FF080500860BFF34F8FEE
:103D8000BFF36F8F08BD0000881A0020400000209C
:103D900004ED00E008B50E4800680169C943C90791
:103DA00014D1891E0161002000900A486A46002152
:103DB000006803F067FC0098002807D006494FF020
:103DC00080500860BFF34F8FBFF36F8F08BD0000B6
:103DD000D01A00204800002004ED00E02DE9F04159
:103DE0000268264D264E274FDFF89CC0274B4FF028
:103DF0008048A84209D0404507D0B04205D0B8421B
:103E000003D0604501D0984203D122F070044A6883
:103E10002243A8421BD0404519D0B04217D0B84227
:103E200015D0604513D0984211D0194CA0420ED045
:103E3000184CA0420BD0184CA04208D0174CA042FE
:103E400005D0174CA04202D0164CA04203D122F458
:103E50004074CA6822434C6922F080022243026007
:103E60008A68C2620A688262A84201D0984201D17F
:103E70000969016301214161BDE8F0810000014051
:103E80000004004000080040000C00400004014015
:103E9000004001400044014000480140001800403B
:103EA000001C00400020004008B50F480068006872
:103EB000C043800616D44FF47A73012269460A483B
:103EC000FFF73FFE09490878402806D2064B9DF8C7
:103ED000002044331A54401C08700878082801D187
:103EE0000020087008BD0000E01C002074000020C5
:103EF00070B5846B20684069C0F3C01094F83D1021
:103F00000025212904D118B1E584204600F083F86A
:103F100020684069C0F3801094F83E10222904D133
:103F200018B1E585204600F05EF8206C40F01000E6
:103F300020642046FFF7D1FD70BD10B50146886BA7
:103F400009680968C9051BD40021C1850168CA68D0
:103F500022F48072CA6001684A6922F001024A6153
:103F600001684A6922F040024A61202180F83E102F
:103F7000016B012904D10168CA6822F01002CA60ED
:103F8000016B012902D0FFF758FE10BD818DFFF7AC
:103F9000A3FD10BD10B5806B016B012902D0FFF7A6
:103FA0004DFE10BD818D4908FFF796FD10BD10B57F
:103FB0000146886B09680968C9050CD40021C184D1
:103FC00001684A6922F080024A610068C16841F0D4
:103FD0004001C16010BDFFF779FE10BD10B5806BC8
:103FE000FFF775FE10BD0168CA6822F49072CA60BE
:103FF00001684A6922F001024A61016B012904D17A
:104000000168CA6822F01002CA60202180F83E10C0
:104010000021016370470168CA6822F0C002CA60CB
:10402000202180F83D1070472DE9F04104462068BA
:104030000169E26821F4405111430161A1682069DE
:10404000E26901436069104301432068C26849F294
:104050000C639A430A43C26020684169A26921F453
:1040600040711143416133492068884202D032498E
:10407000884202D1FFF77EFA01E0FFF76BFAE169AF
:104080000023192764253226B1F5004F28D0616836
:104090008B0F8A00A0FB0701FCF79FF90146B0FBDC
:1040A000F5F07A42504301EB800006EB0010B0FBC4
:1040B000F5F000F0F002B1FBF5F002EB0012B1FBFD
:1040C000F5F07B42584301EB800006EB0010B0FB9B
:1040D000F5F0216800F00F0010448860BDE8F08121
:1040E00061684A18A0FB07015B41FCF776F90146BD
:1040F000B0FBF5F00201B1FBF5F06FF01803584387
:1041000001EB800006EBC000B0FBF5F000F0F8001A
:1041100002EB4002B1FBF5F0584301EB800006EBE7
:10412000C000B0FBF5F0216800F007001044886083
:10413000D4E70000001001400014014037B582B000
:1041400004461346039AA262A38500252564222013
:1041500084F83E00A16B1348C863A16B1248086441
:10416000A16B1248C864A06B05652168A06B091D8E
:10417000FEF756FF206801684168019184F83C50C1
:10418000C16841F48071C1602068416941F001015A
:1041900041612068416941F04001416105B0002062
:1041A00030BD00003B3F0008953F0008F13E00088D
:1041B0002DE9F04104460E4617469846069D1DE03F
:1041C000681C1BD02DB1FFF75FF8A0EB0800A842D8
:1041D00014D92068C16821F4D071C1602068416998
:1041E00021F001014161202084F83D0084F83E0067
:1041F000002084F83C000320BDE8F08120680068BE
:1042000036EA000004D00020B842D9D00020F3E7FD
:104210000120F9E7F8B5284D28680168C943C906A7
:1042200048D40026016840680090244C6069C0F3BF
:10423000801095F83E1022291BD1D0B1606920F082
:1042400040006061A86B08B1FEF738FEE06820F41A
:104250009070E060606920F001006061286B0128C7
:1042600003D1E06820F01000E060202085F83E00D7
:104270002E631348006840681249C0F1320080B2D2
:1042800008800D4A343A024412F8012C0A2A04D15B
:1042900040F40040088002F0A7FE0748322134387D
:1042A000FCF735FBBDE8F8400349322234390248B7
:1042B000FFF7ACBCF8BD0000E4190020001001407D
:1042C000601B00205C000020F8B500242F4D2868FA
:1042D0000168C943C90658D40026016841680091A5
:1042E0004169C1F3801195F83E20222A1ED1E9B11F
:1042F000416921F040014161A86B08B1FEF7DEFD84
:104300002868C16821F49071C1602868416921F072
:1043100001014161286B012804D12868C16821F09E
:104320001001C160202085F83E002E631848006807
:104330004068C0F1800080B204281ED31349443184
:104340000A78AA2A19D14A78552A16D18A78904231
:1043500013D10020531E04E00D5C2C44E4B2401C39
:1043600080B29842F8DB881810F8010CA04204D102
:10437000121FC91C0748FCF74BFABDE8F840034977
:10438000802244310148FFF741BCF8BDE81D002000
:10439000201C00205402002008B50F480068006867
:1043A000C043800616D44FF47A73012269460A4846
:1043B000FFF7C7FB09490878202806D2064B9DF86D
:1043C000002044331A54401C08700878082801D192
:1043D0000020087008BD0000AC1E002077000020FF
:1043E00008B50F4800680068C043800616D44FF433
:1043F0007A73012269460A48FFF7A3FB0949087846
:10440000402806D2064B9DF8002044331A54401C25
:1044100008700878082801D10020087008BD000045
:10442000641D002075000020FEE703B401984100E0
:10443000009850EAC12018BF04204A0D18BF40F070
:10444000010040F2FF72B2EB515F08BF40F0020082
:10445000012808BF052002B070470907090E00288F
:1044600004DB00F1E02080F80014704700F00F003A
:1044700000F1E02080F8141D7047000000000000EB
:1044800030B52DED048B81B0B0EE408AF0EE608A3D
:104490006A4651EC180B00F0E7FA00989FED329B4A
:1044A0007E300090002821DC53EC192B51EC180BC6
:1044B00004F02EF91AD0002140F608004FF0000059
:1044C000044651EC180B04F035F808EE100A40F6DB
:1044D000080004EA00014FF00000B5EEC08AF1EEDA
:1044E00010FA04BF0220FCF742FA2DE00098FF28E2
:1044F00030DB002108464FF0000000F4400553EC8B
:10450000192B51EC180B04F079FA8CBF002401240C
:104510000220FCF72CFA9FED168A4DB1002C0CBF3F
:104520004FF400004FF48000A84218BF9FED118A9D
:10453000042108464FF00000002C01BFB1EE480AEC
:1045400001B0BDEC048B30BDB0EE480A01B0BDEC4B
:10455000048B30BD51EC180B03F0ECFF01B000EE02
:10456000100ABDEC048B30BD00000000000000000C
:104570000000807FFFFF7F7F30B540F2FF742DED9C
:10458000048BF0EE608A18EE901A85B0B0EE408A87
:104590009FED2B9B05468DED008B34EA115147D0E2
:1045A00053EC192B51EC180B04F0B2F840D02A460A
:1045B00051EC180B04F0F4FB41EC180B18EE900AC8
:1045C0008DED008B34EA10501CD053EC192B51ECBC
:1045D000180B04F09DF82BD10220FCF7C8F900F06D
:1045E00053F810EE901A18EE900A8DED020B8DED37
:1045F000008B61F31E0003909DED020B05B0BDEC36
:10460000048B30BD0220FCF7B2F900F02DF810EE5B
:10461000901A18EE900A8DED020B8DED008B61F370
:104620001E0003909DED020B05B0BDEC048B30BD68
:1046300005B0B0EE480AF0EE680ABDEC048B30BD60
:10464000000000000000000008B59FED060A0A46C1
:1046500001468DED000A6846FCF746FC9DED000A18
:1046600008BD0000000000009FED050B10B553ECE5
:10467000102B51EC100B04F0C3F841EC100B10BDE3
:1046800000000000000000709FED050B10B553EC1A
:10469000102B51EC100B04F0B3F841EC100B10BDD3
:1046A000000000000000001010B5044691ED000B62
:1046B000FFF7E6FE84ED000A10BD10B5044690ED4C
:1046C000000B0846FFF758FF84ED000B10BD303893
:1046D0000A2801D20120704700207047704700006F
:1046E00070B500240025134E002202213046FEF74B
:1046F000BEFD0021491CC9B20029FBD06006040E92
:104700004FF400710C48FEF7ABFD012801D1641C89
:10471000E4B2012202213046FEF7A9FD0021491C26
:10472000C9B20029FBD06D1CEDB2082DDCD32046A8
:1047300070BD0000000802400004024038B50023AC
:104740000F4A146844F002041460126802F0020276
:1047500000920D4A0B4C146051609360D06010467B
:10476000FFF74EF9002206211D20FEF715FE1D2041
:10477000FEF705FEBDE838400348FFF767B90000C3
:104780004038024000040040181B002038B50023C8
:104790000F4A146844F010041460126802F010020A
:1047A00000920D4A0B4C146051609360D06010462B
:1047B000FFF726F9002205213620FEF7EDFD362011
:1047C000FEF7DDFDBDE838400348FFF73FB90000C4
:1047D0004038024000100040881A002038B50023FD
:1047E0000F4A146844F020041460126802F020029A
:1047F00000920D4A0B4C146051609360D0601046DB
:10480000FFF7FEF8002206213720FEF7C5FD37200E
:10481000FEF7B5FDBDE838400348FFF717B90000C3
:104820004038024000140040D01A0020B4EEC10A03
:10483000F1EE10FA02DDB0EE410A7047B4EEE00A84
:10484000F1EE10FAF9D2B0EE600A704710B50446E6
:104850000420FFF7B3F8084804604FF47A7044432B
:104860004FF0E021086940F0020008614C610869DE
:1048700040F00100086110BD5800002070B50546E9
:1048800000244FF47A7603E0304600F005F8641C0B
:10489000AC42F9D370BD000070B500214FF0E025A7
:1048A0006C690A4A12685043AB69AA699A42FCD003
:1048B00003D2A3EB0203194403E0A4EB0206334442
:1048C000194413468142F0D370BD00005800002007
:1048D0002DE9F84F00244A48016841F48001016045
:1048E000016801F480010091016841F40011016048
:1048F000006800F400100090434E4248B0638663A5
:10490000424901604FF0006747608460C4604FF423
:104910008068C0F8108044618461C4614FF400393C
:10492000C0F8209044624FF0030AC0F828A0C46287
:104930000463FEF70BFB322235493046FFF766F978
:10494000304D3448C03528606F60AC60EC60C5F80D
:1049500010806C61AC61EC61C5F820906C62C5F8A8
:1049600028A0EC622C6380222B492C48FFF74EF9DB
:104970002846FEF7EBFADFF8A4A0CAF83850C5F8CD
:1049800038A022487830603D28606F604FF0400BBF
:10499000C5F808B0EC60C5F810806C61AC61EC61E2
:1049A000C5F8209000220A214620FEF7F5FC46209B
:1049B000FEF7E5FC2846FEF7C9FA7563AE631548B5
:1049C0001830C03528606F60C5F808B0EC60C5F8D5
:1049D00010806C61AC61EC61C5F8209000220A2166
:1049E0001120FEF7D9FC1120FEF7C9FC2846FEF77E
:1049F000ADFACAF83450C5F838A0BDE8F88F000009
:104A000030380240601B0020E4190020406402405E
:104A1000B0190020886002402C1E0020E81D0020F4
:104A200003490A685206FCD5C2B24A6070470000CA
:104A3000001001401CB507480121CDE900100023FA
:104A4000802205A1074803F06DFABDE81C4002F082
:104A50004BBF00003800002073746172745F746192
:104A6000736B00003960000810B582B01446CDE9C0
:104A700000010023009A2360194B21F00040984266
:104A80002ADA024328D0B0F5801FA8BF226810DAC6
:104A90009FED150B53EC102B9DED000B51EC100B03
:104AA00003F0AEFECDE900016FF0350221F00040C9
:104AB00022600F4B6FF31E5103EB20501044206017
:104AC00041F0FF5040F0005001909DED000B00BF01
:104AD00002B051EC100B10BD9DED000BF8E700008B
:104AE0000000F07F000000000000000000005043C4
:104AF00002FCFFFFB0EEC00A704700002DE9F0474E
:104B00002DED028B82B00025194F9FED1A8A4FF4CC
:104B100049784FF41779012640F2671105FB01F03F
:104B200007EB800441462046FBF7F1FE04F54C708C
:104B300082464946FBF7EBFE234604F549700E4AD0
:104B4000C9210096FDF718FB534604F28C500B4A1E
:104B500097210096FDF710FB04F5806484ED668ACA
:104B60006D1C042DD8DB02B0BDEC028BBDE8F087D4
:104B70004003002000000000C08E0008E4910008FF
:104B80000148FEF7B4BB0000101F0020044A034B8D
:104B90001360506091601046FEF77CBB003000400F
:104BA000101F002070B505460024094908884E886A
:104BB00046430021084600F09FFA00F067FC4FF0E2
:104BC000D84102E0A1F88050641CB442FAD370BD11
:104BD000781A00202DE9F04F304B987119462C2798
:104BE0002B252A2689884FF430584FF428594FF442
:104BF000487441F6631A4FF0F00B45F2105E4FF423
:104C0000A07C4FF4F07200280ED0A3F800C0A3F8E7
:104C100002B071452BD1A3F80880A3F80A902802AE
:104C200098811C805A802DE0A3F800B0A3F802C040
:104C3000714509D1A3F80880A3F80A904FF42C50CD
:104C400098811A805C800AE0514505D11F815D8101
:104C50009E811A805C8002E01F815E819D81A1F5AA
:104C6000A640103815D1A3F800C05A8011E0514574
:104C700005D11F815E819D811C805A8002E01F81C9
:104C80005E819D81A1F5A640103802D11A80A3F85B
:104C900002C0BDE8F04F002000F058B9781A00209B
:104CA0002DE9FF4F82B007468846002415460320B1
:104CB000A0EB420653E0A8EB050081B207EB040A23
:104CC00001901FFA8AF0059A00F09CF8A8EB040006
:104CD000009081B207EB05091FFA89F0059A00F0F0
:104CE00091F808EB040B1FFA8BF11FFA89F0059A73
:104CF00000F088F808EB05091FFA89F11FFA8AF01D
:104D0000059A00F07FF81FFA89F1A7EB04091FFA52
:104D100089F0059A00F076F8A7EB050A1FFA8BF1E7
:104D20001FFA8AF0059A00F06DF80198059A81B291
:104D30001FFA89F000F066F80098059A81B21FFA10
:104D40008AF000F05FF8641C002E03DA06EB84069C
:104D5000B61D04E0601B06EB80060A366D1EAC42F1
:104D6000A9DD06B0BDE8F08F2DE9FE4F0025002635
:104D7000171AA3EB010881468A46681E002F03DD3F
:104D80004FF00101019107E003D14FF000010191C3
:104D900002E00190C7F10007B8F1000F03DD4FF00A
:104DA0000100009007E003D14FF00000009002E006
:104DB0000090C8F10008474501DD3C4600E044464C
:104DC0004FF0000B601C029016E01FFA8AF11FFAE8
:104DD00089F00C9A00F016F83D444644A54202DDE5
:104DE0002D1B01988144A64202DD361B00988244A7
:104DF0000BF1010B1FFA8BFB02988345E5DDBDE843
:104E0000FE8F000010B5144600F076F900F03EFB6E
:104E10000148048010BD00008000006C2DE9F841BD
:104E20008046079C0E4615461F4633462A463146A5
:104E300040460094FFF798FF3B46424631464046C5
:104E40000094FFF791FF3B462A46394640460094BE
:104E5000FFF78AFF3B462A46314628460094FFF773
:104E600083FFBDE8F8812DE9F0439846079B814612
:104E70000C46A2EB0900401C86B29FB24FF0D84509
:104E80000FE02146484600F037F900F0FFFA002213
:104E900003E0A5F88070521C92B2B242F9D3641CB0
:104EA000A4B24445EDD9BDE8F083401E411CFCD1BD
:104EB00070470346012000E05843491EC9B2FBD2A7
:104EC0007047000008B5034800880090BDF8000056
:104ED00008BD00008000006C10B51B4C2288824287
:104EE00002D962888A4201D8002010BD00F004F97E
:104EF000A088A0F5AA41103921D02E2000F0BAFADE
:104F0000FFF7E0FFA188A1F5C852633AEDD0022077
:104F1000FFF7CBFFFFF7D6FF04460220FFF7C5FFE0
:104F2000FFF7D0FFE1B24FF6FF7202EA012124EA57
:104F30006212890A42EA411141EAD02010BD4FF4C1
:104F4000385000F097FADBE7781A002070B500239C
:104F5000684C41F663162146A2798988012A01D15D
:104F6000B14202D1C2B9B14216D1082814D2DFE849
:104F700000F00406080A0C0E101206200CE00720B0
:104F80000AE0042008E0052006E0012004E00020FB
:104F900002E0032000E00220082812D2DFE800F03F
:104FA000110406080A0C0E1080230AE0402308E0D2
:104FB000C02306E0202304E0602302E0A02300E0F9
:104FC000E023362045F21055A94200D10002A1F598
:104FD0001342413A03D0A1F5EE42893A01D143F0A0
:104FE0000803194600F05CFAA188B1420ED0980679
:104FF00006D520886288904208D22280608005E031
:1050000022886088824201D920806280A94247D1EB
:10501000608900F02FFA002000F020FA6089401C1F
:1050200080B200F027FA002000F018FA6089801C96
:1050300080B200F01FFA2088401EC0F30F2000F05D
:105040000DFA6089C01C80B200F014FA2078401E6E
:10505000C0B200F003FAA08900F00CFA002000F0C2
:10506000FDF9A089401C80B200F004FA002000F095
:10507000F5F9A089801C80B200F0FCF96088401E20
:10508000C0F30F2000F0EAF9A089C01C80B200F044
:10509000F1F9A078BDE87040401EC0B200F0DEB962
:1050A000608900F0E7F9002000F0D8F9002000F056
:1050B000D5F92088401EC0F30F2000F0CFF92078EA
:1050C000401EC0B200F0CAF9A08900F0D3F9002058
:1050D00000F0C4F9002000F0C1F96088401EC0F360
:1050E0000F2000F0BBF9A078BDE87040401EC0B2B0
:1050F00000F0B4B9781A0020F0B502460C463E4DD7
:10510000260A2846A988170A4089A1F5C853633B97
:1051100016D0A1F5AA43103B50D000F0ABF93846A9
:1051200000F09CF9D0B200F099F9A88900F0A2F93A
:10513000304600F093F9E0B2BDE8F04000F08EB9DF
:10514000A97941B300F096F9384600F087F9D0B25A
:1051500000F084F92888401EC0F30F2000F07EF98B
:105160002878401EC0B200F079F9A88900F082F9D1
:10517000304600F073F9E0B200F070F96888401E24
:10518000C0F30F2000F06AF9A878BDE8F040401E97
:10519000C0B200F063B92988891A491E8AB200F0AA
:1051A00069F9002000F05AF9002000F057F9100AC0
:1051B00000F054F9D0B200F051F9D6E700F05AF9F6
:1051C000384600F04BF96889401C80B200F052F973
:1051D000D0B200F043F9A88900F04CF9304600F055
:1051E0003DF9A889401C80B200F044F9E0B2BDE866
:1051F000F04000F033B90000781A00202DE9F84F94
:1052000081460C469846A3465FEA487001D00120CB
:1052100000E0002000EBD8004FEA58014843C0B23C
:105220000090203AD0B2B8F10C0F0DD0B8F1100FA9
:1052300010D0B8F1180F11D0B8F1200F46D1244981
:1052400001EB801A00273EE0224900EB400001EB11
:10525000800AF7E7204901EB001AF3E71F4900EB4A
:10526000C00001EB800AEDE71AF807600025300660
:1052700005D5214648460B9AFFF7C4FD07E00A987A
:1052800028B91748214602684846FFF7BBFD70065B
:10529000060E641CA4B213484088A04216D9A4EBA1
:1052A0000B00404509D15C4609F101091FFA89F953
:1052B0000C480088484509D903E06D1CEDB2082D63
:1052C000D5D37F1CFFB200988742CDD3BDE8F88FBD
:1052D000B0AC0008F094000864990008549F0008DE
:1052E00070000020781A00202DE9FF4F83B080461F
:1052F000DDF8449093461D46002600241098A246EF
:1053000047081FE0281B401EC1B20A20FFF7D1FD4D
:10531000BBFBF0F00A21B0FBF1F201FB120026B951
:10532000691E8C4201DA90B101263030C2B2CDE95B
:1053300000A907FB048080B2109B0499FFF75EFF71
:10534000641CE4B2AC42DDD307B0BDE8F08FCDE918
:1053500000A907FB048080B22022109B0499FFF76C
:105360004DFFEDE72DE9FC4F0446DDE90C6B0B9F8B
:105370000D4604F0FF0810191FFA80F958191FFA9A
:1053800080FA12E04C4502D34446E81985B25545EF
:1053900010D20020CDE9000B3B4629462046FFF7FE
:1053A0002DFF04EB570084B2761C3278A2F1200066
:1053B0005E28E7D9BDE8FC8F2DE9FF4F83B080461A
:1053C000DDE911B91F464FF0000A002410980BF0D8
:1053D0000105460823E0381B401EC1B20A20FFF732
:1053E00068FD0599B1FBF0F00A21B0FBF1F201FB79
:1053F0001200BAF1000F05D1791E8C4202DA98B181
:105400004FF0010A3030C2B2CDE9005906FB0480EA
:1054100080B2109B0499FFF7F1FE641CE4B2BC4219
:10542000D9D307B0BDE8F08F5FEA0B600AD5CDE9AC
:10543000005906FB048080B23022109B0499FFF7CC
:10544000DDFEEAE7CDE9005906FB048080B22022A8
:10545000109B0499FFF7D2FEDFE7000001B5BDF80D
:1054600000000090BDF800000149088008BD000060
:105470008000006C01B5BDF800000090BDF8000090
:105480000149088008BD00007E00006C0248034905
:105490000089088070470000781A00207E00006CA8
:1054A000014A1080518070477E00006C00B587B0C3
:1054B000FDF72CFF0723022208214FF4A87000F00B
:1054C0001FFEA820FFF7C2F9FFF702FA0F48416854
:1054D000542088470E4801F0FBF94FF4E12001F019
:1054E0007FF932210420FFF751FB0AA0FAF7ECFF05
:1054F0009FED0C0B0DA28DED000B142102A8FAF705
:10550000EFFFFFF797FA07B0002000BDE000002092
:1055100040420F000D0A2048454C4C4F21200D0AF7
:105520000D0A00006E861BF0F92109402567000076
:1055300011B52DED020B83B040F2671148430F49BE
:1055400001EB8004012302AA03A904F54970FCF7CA
:10555000BDFB9DED020AFFF7CDFA04F5806080EDFA
:10556000660A012301AA04F5B36104F28C50FCF72A
:10557000ADFB9DED010A06B010BD00004003002008
:105580002DE9F04104460F46204DEE6829680020C1
:1055900081F859002868001D01F0E1FD38B928683C
:1055A00090F82C1001208840296981432961601CF2
:1055B00015D1A7B1164948682A68906082682B689F
:1055C000DA602A688368121D5A602A68121D826098
:1055D000286841610868401C0860BDE8F0813444D7
:1055E00028684460B44206D22968E86B091DBDE80A
:1055F000F04101F0D5BD2968A86B091D01F0D0FD6F
:10560000A86A8442E9D2AC62E7E70000D401002036
:105610002C22002070B5044601F0E6FD254DA86857
:10562000401CA860286810B1686938B10CE02C6093
:10563000A868012808D100F0B3F905E02868E16AFC
:10564000C06A884200D82C60686A401C6862606446
:10565000E06A01212A69814011432961164A00EB61
:10566000800002EB80004068A0608168E160836890
:10567000211D59608160E06A00EB800002EB80012F
:10568000616152F82010491C42F8201001F0F0FD31
:10569000686900280CD02868E16AC06A884207D28D
:1056A00006494FF080500860BFF34F8FBFF36F8FF4
:1056B00070BD0000D40100205C1F002004ED00E05C
:1056C00010B501F091FD0E4C2068A0B90D4801F015
:1056D00059FD0C48143001F055FD0A48E0601430C3
:1056E000206100221021052002F056FA206010B13E
:1056F00005A101F0B1FEBDE8104001F0B9BD000008
:105700001402002040220020546D7251000000005D
:1057100070B50C4D0C4E11E001F066FDF068C468E8
:10572000201D01F01CFDA868401EA8606868401E8E
:10573000686001F09DFD204600F053F8686800287D
:10574000EAD170BDD40100201822002030B40B46ED
:10575000026C002A0CD0C1681144C1608468A14267
:1057600001D30168C160C16830BC1846FBF750B86E
:1057700030BC70472DE9F041044617460026A56B62
:10578000226C002A10D0C7B1E068FBF741F8E1684D
:10579000206C091AE1602268914202D2A168081ABD
:1057A000E060022F16D017E02068A8B9A06802F0C8
:1057B000ADFC06460020A0600EE06068FBF728F80C
:1057C000216C606808446060A168884204D3206846
:1057D000606001E005B16D1E6D1CA5633046BDE83B
:1057E000F08110B50446206B01F07EFD2046BDE837
:1057F000104001F079BD00000749CA68116800290E
:1058000004D00021016019B1002070470121F9E79F
:10581000D068006870470000140200204FF4A031E7
:105820000F48420706D0C01D20F007000C49411A5E
:10583000C1F5A0310B4A10600023536001440839C0
:1058400021F00701183A11604B600B600B1A43609E
:1058500001604068906050604FF0004050617047B8
:105860006822002040020020074E4FF08054074D70
:10587000FFF74EFF30680128FAD92C60BFF34F8F35
:10588000BFF36F8FF4E700005C1F002004ED00E021
:1058900070B51D46049C00290BD02260E063216492
:1058A0000121204602F0BAF984F850500020A0648B
:1058B00070BD2460F2E700002DE9F05FDDE90A59D0
:1058C0000C9C82460E4617469B46B900A522206BCB
:1058D000FBF715F8206B7F1E00EB870020F0070810
:1058E0005FEA487005D04FF4587220A128A0FAF75B
:1058F000EBFD002766B100202218315C82F83410DD
:10590000315C11B1401C1028F6D384F8437001E0DB
:1059100084F83470202D05D340F2973213A11CA0D7
:10592000FAF7D2FD202D00D31F25E562E564276537
:10593000201D01F032FC04F1180001F02EFC24615E
:10594000C5F12000A0616462676584F8587084F82E
:1059500059705A465146404600F052FB2060B9F15A
:10596000000F01D0C9F80040BDE8F09F2E2E5C2E3C
:105970002E5C4D6964646C6577617265735C467218
:10598000656552544F535C7461736B732E630000F2
:105990004572726F723A2025732C2025640D0A001F
:1059A00070B50024114D04EB840005EB800001F07C
:1059B000E9FB641C202CF6D30D4801F0E3FB0C48F6
:1059C000143001F0DFFB0A48283001F0DBFB084807
:1059D0003C3001F0D7FB0648503001F0D3FB0548BE
:1059E000034981631431C16370BD00005C1F002056
:1059F000DC210020D401002030B5134900E011461D
:105A00000A688242FBD34B685C18844203D1406829
:105A10001844486008460D6844682318AB420DD10D
:105A2000094B183B1B689A4206D0526822444260D8
:105A30000A681268026002E0036000E002608142CE
:105A400000D0086030BD00004002002070B5002486
:105A5000416000610C4D91420AD8D11A826991428D
:105A600001D301240EE0011D286901F099FB09E032
:105A70009A4203D2994201D3012403E0011DE86850
:105A800001F08EFB204670BD1402002010B50446C4
:105A900001F0AAFBA06B20B1002401F0E9FB204635
:105AA00010BD0124F9E70000F1B50098846C0026D0
:105AB000002C05D140F6D53219A122A0FAF704FD39
:105AC000A06BE16B884205D340F6D63214A11DA02D
:105AD000FAF7FAFCA06BE16B88421ED294F94550AC
